{
  "contractName": "Authentication",
  "abi": [
    {
      "constant": true,
      "inputs": [],
      "name": "userCount",
      "outputs": [
        {
          "name": "",
          "type": "uint256"
        }
      ],
      "payable": false,
      "stateMutability": "view",
      "type": "function"
    },
    {
      "constant": true,
      "inputs": [
        {
          "name": "",
          "type": "uint256"
        }
      ],
      "name": "devices",
      "outputs": [
        {
          "name": "id",
          "type": "uint256"
        },
        {
          "name": "name",
          "type": "string"
        },
        {
          "name": "account",
          "type": "address"
        }
      ],
      "payable": false,
      "stateMutability": "view",
      "type": "function"
    },
    {
      "constant": true,
      "inputs": [
        {
          "name": "",
          "type": "uint256"
        }
      ],
      "name": "users",
      "outputs": [
        {
          "name": "id",
          "type": "uint256"
        },
        {
          "name": "name",
          "type": "string"
        },
        {
          "name": "account",
          "type": "address"
        }
      ],
      "payable": false,
      "stateMutability": "view",
      "type": "function"
    },
    {
      "constant": true,
      "inputs": [],
      "name": "deviceCount",
      "outputs": [
        {
          "name": "",
          "type": "uint256"
        }
      ],
      "payable": false,
      "stateMutability": "view",
      "type": "function"
    },
    {
      "inputs": [],
      "payable": false,
      "stateMutability": "nonpayable",
      "type": "constructor"
    },
    {
      "anonymous": false,
      "inputs": [
        {
          "indexed": false,
          "name": "id",
          "type": "uint256"
        },
        {
          "indexed": false,
          "name": "name",
          "type": "string"
        },
        {
          "indexed": false,
          "name": "account",
          "type": "address"
        }
      ],
      "name": "DeviceAdded",
      "type": "event"
    },
    {
      "anonymous": false,
      "inputs": [
        {
          "indexed": false,
          "name": "id",
          "type": "uint256"
        },
        {
          "indexed": false,
          "name": "name",
          "type": "string"
        },
        {
          "indexed": false,
          "name": "account",
          "type": "address"
        }
      ],
      "name": "UserAdded",
      "type": "event"
    },
    {
      "anonymous": false,
      "inputs": [
        {
          "indexed": false,
          "name": "sender",
          "type": "address"
        },
        {
          "indexed": false,
          "name": "token",
          "type": "bytes32"
        }
      ],
      "name": "DistributeToken",
      "type": "event"
    },
    {
      "constant": false,
      "inputs": [
        {
          "name": "name",
          "type": "string"
        },
        {
          "name": "account",
          "type": "address"
        }
      ],
      "name": "addDevice",
      "outputs": [],
      "payable": false,
      "stateMutability": "nonpayable",
      "type": "function"
    },
    {
      "constant": false,
      "inputs": [
        {
          "name": "name",
          "type": "string"
        },
        {
          "name": "account",
          "type": "address"
        }
      ],
      "name": "addUser",
      "outputs": [],
      "payable": false,
      "stateMutability": "nonpayable",
      "type": "function"
    },
    {
      "constant": false,
      "inputs": [],
      "name": "rand",
      "outputs": [
        {
          "name": "",
          "type": "bytes32"
        }
      ],
      "payable": false,
      "stateMutability": "nonpayable",
      "type": "function"
    },
    {
      "constant": false,
      "inputs": [],
      "name": "login_admin",
      "outputs": [],
      "payable": false,
      "stateMutability": "nonpayable",
      "type": "function"
    }
  ],
  "bytecode": "0x60806040526000600155600060025534801561001a57600080fd5b50600080546001600160a01b03191633179081905560408051808201909152600a81527f41646d696e20557365720000000000000000000000000000000000000000000060208083019190915261007e926001600160a01b031690610083811b901c565b610269565b600280546001908101918290556040805160608101825283815260208082018781526001600160a01b03871683850152600095865260048252929094208151815591518051919492936100dc93908501929101906101ce565b5060408201518160020160006101000a8154816001600160a01b0302191690836001600160a01b031602179055509050507f514af2a82370fd69109ef67206736f3880c4f9c15d2f2acd798b782ae37fdc5a60025483836040518084815260200180602001836001600160a01b03166001600160a01b03168152602001828103825284818151815260200191508051906020019080838360005b8381101561018e578181015183820152602001610176565b50505050905090810190601f1680156101bb5780820380516001836020036101000a031916815260200191505b5094505050505060405180910390a15050565b828054600181600116156101000203166002900490600052602060002090601f016020900481019282601f1061020f57805160ff191683800117855561023c565b8280016001018555821561023c579182015b8281111561023c578251825591602001919060010190610221565b5061024892915061024c565b5090565b61026691905b808211156102485760008155600101610252565b90565b6107cd806102786000396000f3fe608060405234801561001057600080fd5b50600436106100885760003560e01c8063535bca9a1161005b578063535bca9a14610181578063864a0d0a14610189578063a1e98bbf1461023c578063f262c49f146102ed57610088565b806307973ccf1461008d57806310ff8e31146100a7578063365b98b21461015c5780633b3dca7614610179575b600080fd5b6100956102f5565b60408051918252519081900360200190f35b6100c4600480360360208110156100bd57600080fd5b50356102fb565b6040518084815260200180602001836001600160a01b03166001600160a01b03168152602001828103825284818151815260200191508051906020019080838360005b8381101561011f578181015183820152602001610107565b50505050905090810190601f16801561014c5780820380516001836020036101000a031916815260200191505b5094505050505060405180910390f35b6100c46004803603602081101561017257600080fd5b50356103b1565b610095610423565b61009561042d565b61023a6004803603604081101561019f57600080fd5b8101906020810181356401000000008111156101ba57600080fd5b8201836020820111156101cc57600080fd5b803590602001918460018302840111640100000000831117156101ee57600080fd5b91908080601f016020809104026020016040519081016040528093929190818152602001838380828437600092019190915250929550505090356001600160a01b031691506104339050565b005b61023a6004803603604081101561025257600080fd5b81019060208101813564010000000081111561026d57600080fd5b82018360208201111561027f57600080fd5b803590602001918460018302840111640100000000831117156102a157600080fd5b91908080601f016020809104026020016040519081016040528093929190818152602001838380828437600092019190915250929550505090356001600160a01b0316915061057e9050565b61023a610683565b60025481565b6003602090815260009182526040918290208054600180830180548651600293821615610100026000190190911692909204601f8101869004860283018601909652858252919492939092908301828280156103985780601f1061036d57610100808354040283529160200191610398565b820191906000526020600020905b81548152906001019060200180831161037b57829003601f168201915b505050600290930154919250506001600160a01b031683565b6004602090815260009182526040918290208054600180830180548651600293821615610100026000190190911692909204601f8101869004860283018601909652858252919492939092908301828280156103985780601f1061036d57610100808354040283529160200191610398565b6000194301405b90565b60015481565b600280546001908101918290556040805160608101825283815260208082018781526001600160a01b038716838501526000958652600482529290942081518155915180519194929361048c9390850192910190610709565b5060408201518160020160006101000a8154816001600160a01b0302191690836001600160a01b031602179055509050507f514af2a82370fd69109ef67206736f3880c4f9c15d2f2acd798b782ae37fdc5a60025483836040518084815260200180602001836001600160a01b03166001600160a01b03168152602001828103825284818151815260200191508051906020019080838360005b8381101561053e578181015183820152602001610526565b50505050905090810190601f16801561056b5780820380516001836020036101000a031916815260200191505b5094505050505060405180910390a15050565b6001805481018082556040805160608101825282815260208082018781526001600160a01b03871683850152600094855260038252929093208151815591518051919492936105d293850192910190610709565b5060408201518160020160006101000a8154816001600160a01b0302191690836001600160a01b031602179055509050507f38101813396880482827038ca59bf3c8e9f76de5428a1f35af0961e3c62e6a6260015483836040518084815260200180602001836001600160a01b03166001600160a01b03168152602001828103825284818151815260200191508051906020019080838360008381101561053e578181015183820152602001610526565b61068b610423565b60058190556040805133606081901b602080840191909152426034840152605480840195909552835180840390950185526074830180855285519590910194909420600681905593526094810192909252517f86d5fe05f5fdd717661032b622af0e2feea058dce13146aa1aebc415b72c72af9181900360b40190a1565b828054600181600116156101000203166002900490600052602060002090601f016020900481019282601f1061074a57805160ff1916838001178555610777565b82800160010185558215610777579182015b8281111561077757825182559160200191906001019061075c565b50610783929150610787565b5090565b61042a91905b80821115610783576000815560010161078d56fea165627a7a72305820bf96e8dee0a846bce17a3ce6f46a0033f3ccfe3dd3d67d2bc0feed9f6b6fc6010029",
  "source": "pragma solidity ^0.5.0;\r\n\r\ncontract Authentication{\r\n    address owner;\r\n    uint public deviceCount = 0;\r\n    uint public userCount = 0;\r\n\r\n    struct Device {\r\n        uint id;\r\n        string name;\r\n        address account;\r\n    }\r\n\r\n    function addDevice(string memory name, address account) public {\r\n        deviceCount ++;\r\n        devices[deviceCount] = Device(deviceCount, name, account);\r\n        emit DeviceAdded(deviceCount, name,account);\r\n    }\r\n\r\n    constructor() public {\r\n        owner = msg.sender;\r\n        addUser(\"Admin User\",owner);\r\n    }\r\n\r\n    event DeviceAdded(uint id,string name,address account);\r\n\r\n    mapping(uint => Device) public devices;\r\n\r\n    struct User {\r\n        uint id;\r\n        string name;\r\n        address account;\r\n    }\r\n\r\n    function addUser(string memory name, address account) public{\r\n        userCount ++;\r\n        users[userCount] = User(userCount, name, account);\r\n        emit UserAdded(userCount, name, account);\r\n    }\r\n\r\n    event UserAdded(uint id,string name,address account);\r\n\r\n    mapping(uint => User) public users;\r\n\r\n\tevent DistributeToken(address sender, bytes32 token);\r\n    bytes32 random_number;\r\n    bytes32 token;\r\n\r\n    // min and max are not needed now, some future work idea\r\n    function rand() public returns (bytes32) {\r\n        uint256 lastBlockNumber = block.number - 1;\r\n        bytes32 hashVal = bytes32(blockhash(lastBlockNumber));\r\n        return bytes32(hashVal);\r\n    }\r\n\r\n    function login_admin() public { \r\n\t\trandom_number = rand();\r\n        token = keccak256(abi.encodePacked(msg.sender, now, random_number));\r\n        emit DistributeToken(msg.sender, token);\r\n    }\r\n}",
  "sourcePath": "C:/Users/Mkay_DaSextja/Documents/BScHons - UJ/Project/Code/block-auth-contract/contracts/Authentication.sol",
  "compiler": {
    "name": "solc",
    "version": "0.5.8+commit.23d335f2.Emscripten.clang"
  },
  "schemaVersion": "3.0.11",
  "updatedAt": "2019-08-09T17:45:26.915Z",
  "devdoc": {
    "methods": {}
  },
  "userdoc": {
    "methods": {}
  }
}