{
  "contractName": "Authentication",
  "abi": [
    {
      "constant": true,
      "inputs": [],
      "name": "userCount",
      "outputs": [
        {
          "name": "",
          "type": "uint256"
        }
      ],
      "payable": false,
      "stateMutability": "view",
      "type": "function"
    },
    {
      "constant": true,
      "inputs": [
        {
          "name": "",
          "type": "uint256"
        }
      ],
      "name": "devices",
      "outputs": [
        {
          "name": "id",
          "type": "uint256"
        },
        {
          "name": "name",
          "type": "string"
        },
        {
          "name": "account",
          "type": "address"
        },
        {
          "name": "ip",
          "type": "string"
        }
      ],
      "payable": false,
      "stateMutability": "view",
      "type": "function"
    },
    {
      "constant": true,
      "inputs": [
        {
          "name": "",
          "type": "uint256"
        }
      ],
      "name": "users",
      "outputs": [
        {
          "name": "id",
          "type": "uint256"
        },
        {
          "name": "name",
          "type": "string"
        },
        {
          "name": "account",
          "type": "address"
        }
      ],
      "payable": false,
      "stateMutability": "view",
      "type": "function"
    },
    {
      "constant": true,
      "inputs": [],
      "name": "deviceCount",
      "outputs": [
        {
          "name": "",
          "type": "uint256"
        }
      ],
      "payable": false,
      "stateMutability": "view",
      "type": "function"
    },
    {
      "anonymous": false,
      "inputs": [
        {
          "indexed": false,
          "name": "id",
          "type": "uint256"
        },
        {
          "indexed": false,
          "name": "name",
          "type": "string"
        },
        {
          "indexed": false,
          "name": "account",
          "type": "address"
        },
        {
          "indexed": false,
          "name": "ip",
          "type": "string"
        }
      ],
      "name": "DeviceAdded",
      "type": "event"
    },
    {
      "anonymous": false,
      "inputs": [
        {
          "indexed": false,
          "name": "id",
          "type": "uint256"
        },
        {
          "indexed": false,
          "name": "name",
          "type": "string"
        },
        {
          "indexed": false,
          "name": "account",
          "type": "address"
        }
      ],
      "name": "UserAdded",
      "type": "event"
    },
    {
      "anonymous": false,
      "inputs": [
        {
          "indexed": false,
          "name": "sender",
          "type": "address"
        },
        {
          "indexed": false,
          "name": "token",
          "type": "bytes32"
        }
      ],
      "name": "DistributeToken",
      "type": "event"
    },
    {
      "constant": false,
      "inputs": [
        {
          "name": "name",
          "type": "string"
        },
        {
          "name": "account",
          "type": "address"
        },
        {
          "name": "ip",
          "type": "string"
        }
      ],
      "name": "addDevice",
      "outputs": [],
      "payable": false,
      "stateMutability": "nonpayable",
      "type": "function"
    },
    {
      "constant": false,
      "inputs": [
        {
          "name": "n",
          "type": "uint256"
        }
      ],
      "name": "getNthDevice",
      "outputs": [
        {
          "components": [
            {
              "name": "id",
              "type": "uint256"
            },
            {
              "name": "name",
              "type": "string"
            },
            {
              "name": "account",
              "type": "address"
            },
            {
              "name": "ip",
              "type": "string"
            }
          ],
          "name": "",
          "type": "tuple"
        }
      ],
      "payable": false,
      "stateMutability": "nonpayable",
      "type": "function"
    },
    {
      "constant": false,
      "inputs": [
        {
          "name": "n",
          "type": "uint256"
        }
      ],
      "name": "getNthUser",
      "outputs": [
        {
          "components": [
            {
              "name": "id",
              "type": "uint256"
            },
            {
              "name": "name",
              "type": "string"
            },
            {
              "name": "account",
              "type": "address"
            }
          ],
          "name": "",
          "type": "tuple"
        }
      ],
      "payable": false,
      "stateMutability": "nonpayable",
      "type": "function"
    },
    {
      "constant": false,
      "inputs": [
        {
          "name": "name",
          "type": "string"
        },
        {
          "name": "account",
          "type": "address"
        }
      ],
      "name": "addUser",
      "outputs": [],
      "payable": false,
      "stateMutability": "nonpayable",
      "type": "function"
    },
    {
      "constant": false,
      "inputs": [],
      "name": "rand",
      "outputs": [
        {
          "name": "",
          "type": "bytes32"
        }
      ],
      "payable": false,
      "stateMutability": "nonpayable",
      "type": "function"
    },
    {
      "constant": false,
      "inputs": [],
      "name": "login_admin",
      "outputs": [],
      "payable": false,
      "stateMutability": "nonpayable",
      "type": "function"
    }
  ],
  "bytecode": "0x608060405260008055600060015534801561001957600080fd5b50610dd6806100296000396000f3fe608060405234801561001057600080fd5b506004361061009e5760003560e01c8063535bca9a11610066578063535bca9a1461012357806356d3b9531461012b578063864a0d0a1461014b578063b1246e621461015e578063f262c49f1461017e5761009e565b806307973ccf146100a35780630caac484146100c157806310ff8e31146100d6578063365b98b2146100f95780633b3dca761461011b575b600080fd5b6100ab610186565b6040516100b89190610bf7565b60405180910390f35b6100d46100cf3660046109d6565b61018c565b005b6100e96100e4366004610a52565b610273565b6040516100b89493929190610c56565b61010c610107366004610a52565b6103ba565b6040516100b893929190610c27565b6100ab610470565b6100ab61047a565b61013e610139366004610a52565b610480565b6040516100b89190610c05565b6100d4610159366004610985565b610601565b61017161016c366004610a52565b6106bf565b6040516100b89190610c16565b6100d46107ac565b60015481565b6000805460019081018083556040805160808101825282815260208082018981526001600160a01b03891683850152606083018890529386526002815291909420845181559151805192936101e993908501929190910190610822565b5060408201516002820180546001600160a01b0319166001600160a01b039092169190911790556060820151805161022b916003840191602090910190610822565b509050507f84e46a5724a02038c94e8cd77f98803e7f2fa0998f768589e77ad9f578dd995e6000548484846040516102669493929190610c56565b60405180910390a1505050565b60026020818152600092835260409283902080546001808301805487519281161561010002600019011695909504601f810185900485028201850190965285815290949193909290919083018282801561030e5780601f106102e35761010080835404028352916020019161030e565b820191906000526020600020905b8154815290600101906020018083116102f157829003601f168201915b505050506002838101546003850180546040805160206101006001851615026000190190931695909504601f810183900483028601830190915280855295966001600160a01b03909316959294509091908301828280156103b05780601f10610385576101008083540402835291602001916103b0565b820191906000526020600020905b81548152906001019060200180831161039357829003601f168201915b5050505050905084565b6003602090815260009182526040918290208054600180830180548651600293821615610100026000190190911692909204601f8101869004860283018601909652858252919492939092908301828280156104575780601f1061042c57610100808354040283529160200191610457565b820191906000526020600020905b81548152906001019060200180831161043a57829003601f168201915b505050600290930154919250506001600160a01b031683565b6000194301405b90565b60005481565b6104886108a0565b6002600083815260200190815260200160002060405180608001604052908160008201548152602001600182018054600181600116156101000203166002900480601f0160208091040260200160405190810160405280929190818152602001828054600181600116156101000203166002900480156105495780601f1061051e57610100808354040283529160200191610549565b820191906000526020600020905b81548152906001019060200180831161052c57829003601f168201915b50505091835250506002828101546001600160a01b031660208084019190915260038401805460408051601f600019600185161561010002019093169590950491820184900484028501840181528185529094019390918301828280156105f15780601f106105c6576101008083540402835291602001916105f1565b820191906000526020600020905b8154815290600101906020018083116105d457829003601f168201915b5050505050815250509050919050565b6001805481018082556040805160608101825282815260208082018781526001600160a01b038716838501526000948552600382529290932081518155915180519194929361065593850192910190610822565b5060409182015160029190910180546001600160a01b0319166001600160a01b0390921691909117905560015490517f514af2a82370fd69109ef67206736f3880c4f9c15d2f2acd798b782ae37fdc5a916106b39185908590610c27565b60405180910390a15050565b6106c76108d1565b6003600083815260200190815260200160002060405180606001604052908160008201548152602001600182018054600181600116156101000203166002900480601f0160208091040260200160405190810160405280929190818152602001828054600181600116156101000203166002900480156107885780601f1061075d57610100808354040283529160200191610788565b820191906000526020600020905b81548152906001019060200180831161076b57829003601f168201915b5050509183525050600291909101546001600160a01b031660209091015292915050565b6107b4610470565b60048190556040516107cd913391429190602001610b9e565b60408051601f1981840301815290829052805160209091012060058190557f86d5fe05f5fdd717661032b622af0e2feea058dce13146aa1aebc415b72c72af91610818913391610bd5565b60405180910390a1565b828054600181600116156101000203166002900490600052602060002090601f016020900481019282601f1061086357805160ff1916838001178555610890565b82800160010185558215610890579182015b82811115610890578251825591602001919060010190610875565b5061089c9291506108fb565b5090565b6040518060800160405280600081526020016060815260200160006001600160a01b03168152602001606081525090565b6040518060600160405280600081526020016060815260200160006001600160a01b031681525090565b61047791905b8082111561089c5760008155600101610901565b803561092081610d7c565b92915050565b600082601f83011261093757600080fd5b813561094a61094582610cc8565b610ca1565b9150808252602083016020830185838301111561096657600080fd5b610971838284610d1f565b50505092915050565b803561092081610d93565b6000806040838503121561099857600080fd5b823567ffffffffffffffff8111156109af57600080fd5b6109bb85828601610926565b92505060206109cc85828601610915565b9150509250929050565b6000806000606084860312156109eb57600080fd5b833567ffffffffffffffff811115610a0257600080fd5b610a0e86828701610926565b9350506020610a1f86828701610915565b925050604084013567ffffffffffffffff811115610a3c57600080fd5b610a4886828701610926565b9150509250925092565b600060208284031215610a6457600080fd5b6000610a70848461097a565b949350505050565b610a8181610d0e565b82525050565b610a81610a9382610cfd565b610d5b565b610a8181610cfd565b610a8181610477565b610a81610ab682610477565b610477565b6000610ac682610cf0565b610ad08185610cf4565b9350610ae0818560208601610d2b565b610ae981610d6c565b9093019392505050565b80516000906080840190610b078582610aa1565b5060208301518482036020860152610b1f8282610abb565b9150506040830151610b346040860182610a98565b5060608301518482036060860152610b4c8282610abb565b95945050505050565b80516000906060840190610b698582610aa1565b5060208301518482036020860152610b818282610abb565b9150506040830151610b966040860182610a98565b509392505050565b6000610baa8286610a87565b601482019150610bba8285610aaa565b602082019150610bca8284610aaa565b506020019392505050565b60408101610be38285610a78565b610bf06020830184610aa1565b9392505050565b602081016109208284610aa1565b60208082528101610bf08184610af3565b60208082528101610bf08184610b55565b60608101610c358286610aa1565b8181036020830152610c478185610abb565b9050610a706040830184610a98565b60808101610c648287610aa1565b8181036020830152610c768186610abb565b9050610c856040830185610a98565b8181036060830152610c978184610abb565b9695505050505050565b60405181810167ffffffffffffffff81118282101715610cc057600080fd5b604052919050565b600067ffffffffffffffff821115610cdf57600080fd5b506020601f91909101601f19160190565b5190565b90815260200190565b60006001600160a01b038216610920565b600061092082600061092082610cfd565b82818337506000910152565b60005b83811015610d46578181015183820152602001610d2e565b83811115610d55576000848401525b50505050565b600061092082600061092082610d76565b601f01601f191690565b60601b90565b610d8581610cfd565b8114610d9057600080fd5b50565b610d858161047756fea265627a7a72305820a9cc4c11b1a2e331a292ed87f771107f4c83b21f368c06e29ee622eba29f63f56c6578706572696d656e74616cf50037",
  "source": "pragma solidity ^0.5.0;\r\npragma experimental ABIEncoderV2;\r\n\r\ncontract Authentication{\r\n    uint public deviceCount = 0;\r\n    uint public userCount = 0;\r\n\r\n    struct Device {\r\n        uint id;\r\n        string name;\r\n        address account;\r\n        string ip;\r\n    }\r\n\r\n    function addDevice(string memory name, address account,string memory ip) public {\r\n        deviceCount ++;\r\n        devices[deviceCount] = Device(deviceCount, name, account,ip);\r\n        emit DeviceAdded(deviceCount, name,account,ip);\r\n    }\r\n\r\n    event DeviceAdded(uint id,string name,address account,string ip);\r\n\r\n    mapping(uint => Device) public devices;\r\n\r\n    struct User {\r\n        uint id;\r\n        string name;\r\n        address account;\r\n    }\r\n\t\r\n\tfunction getNthDevice(uint n) public returns (Device memory) {\r\n\t\treturn devices[n];\r\n\t}\r\n\t\r\n\tfunction getNthUser(uint n) public returns (User memory) {\r\n\t\treturn users[n];\r\n\t}\r\n\r\n    function addUser(string memory name, address account) public{\r\n        userCount ++;\r\n        users[userCount] = User(userCount, name, account);\r\n        emit UserAdded(userCount, name, account);\r\n    }\r\n\r\n    event UserAdded(uint id,string name,address account);\r\n\r\n    mapping(uint => User) public users;\r\n\r\n\tevent DistributeToken(address sender, bytes32 token);\r\n    bytes32 random_number;\r\n    bytes32 token;\r\n\r\n    // min and max are not needed now, some future work idea\r\n    function rand() public returns (bytes32) {\r\n        uint256 lastBlockNumber = block.number - 1;\r\n        bytes32 hashVal = bytes32(blockhash(lastBlockNumber));\r\n        return bytes32(hashVal);\r\n    }\r\n\r\n    function login_admin() public { \r\n\t\trandom_number = rand();\r\n        token = keccak256(abi.encodePacked(msg.sender, now, random_number));\r\n        emit DistributeToken(msg.sender, token);\r\n    }\r\n}",
  "sourcePath": "C:/Users/Mkhululi Mtshemla/Documents/BScHons Computer Science/First Semester/Project/D4 Prototype/block-auth-contract/contracts/Authentication.sol",
  "compiler": {
    "name": "solc",
    "version": "0.5.8+commit.23d335f2.Emscripten.clang"
  },
  "schemaVersion": "3.0.11",
  "updatedAt": "2019-08-11T17:58:14.082Z",
  "devdoc": {
    "methods": {}
  },
  "userdoc": {
    "methods": {}
  }
}