{
  "contractName": "Authentication",
  "abi": [
    {
      "constant": true,
      "inputs": [],
      "name": "hash",
      "outputs": [
        {
          "name": "",
          "type": "bytes32"
        }
      ],
      "payable": false,
      "stateMutability": "view",
      "type": "function"
    },
    {
      "inputs": [],
      "payable": false,
      "stateMutability": "nonpayable",
      "type": "constructor"
    },
    {
      "anonymous": false,
      "inputs": [
        {
          "indexed": false,
          "name": "username",
          "type": "address"
        },
        {
          "indexed": false,
          "name": "password",
          "type": "bytes32"
        }
      ],
      "name": "LoggedIn",
      "type": "event"
    },
    {
      "constant": false,
      "inputs": [],
      "name": "rand",
      "outputs": [
        {
          "name": "",
          "type": "bytes32"
        }
      ],
      "payable": false,
      "stateMutability": "nonpayable",
      "type": "function"
    },
    {
      "constant": false,
      "inputs": [],
      "name": "Login",
      "outputs": [],
      "payable": false,
      "stateMutability": "nonpayable",
      "type": "function"
    }
  ],
  "bytecode": "0x608060405234801561001057600080fd5b50600180546001600160a01b03191633179055610126806100326000396000f3fe6080604052348015600f57600080fd5b5060043610603c5760003560e01c806309bd5a601460415780633b3dca76146059578063f00ac1da14605f575b600080fd5b60476067565b60408051918252519081900360200190f35b6047606d565b60656076565b005b60025481565b60001943014090565b607c606d565b60008190556040805133606081901b602080840191909152426034840152605480840195909552835180840390950185526074830180855285519590910194909420600281905593526094810192909252517f41aef8183964a2812ac89ffb7a998d625983a19b88633aca08d09afe9acdadbe9181900360b40190a156fea165627a7a723058208087925c5374b7084980bef6c34e061b8d002cd20ac611590f6a68e4ca7a76340029",
  "source": "pragma solidity ^0.5.0;\r\n\r\ncontract Authentication{\r\n\t//global vars\r\n\tbytes32 random_number;\r\n\taddress owner;\r\n\tbytes32 public hash;\r\n\r\n\t// This is the constructor which registers the\r\n    // creator and the assigned name.\r\n    constructor() public {\r\n        owner = msg.sender;\r\n    }\r\n\t\r\n\t//events\r\n\tevent LoggedIn(address username,bytes32 password);\r\n\r\n\t//functions\r\n\tfunction rand() public returns (bytes32){\r\n        uint256 lastBlockNumber = block.number - 1;\r\n        bytes32 hashVal = bytes32(blockhash(lastBlockNumber));\r\n        return bytes32(hashVal);\r\n    }\r\n\r\n\tfunction Login() public {\r\n\t\trandom_number = rand();\r\n        hash = keccak256(abi.encodePacked(msg.sender,now,random_number));\r\n\t\temit LoggedIn(msg.sender,hash);\r\n\t}\r\n\t\r\n}",
  "sourcePath": "C:/Users/Mkay_DaSextja/Documents/BScHons - UJ/Project/block-auth-contract/contracts/Authentication.sol",
  "compiler": {
    "name": "solc",
    "version": "0.5.8+commit.23d335f2.Emscripten.clang"
  },
  "schemaVersion": "3.0.11",
  "updatedAt": "2019-07-28T14:10:47.489Z",
  "devdoc": {
    "methods": {}
  },
  "userdoc": {
    "methods": {}
  }
}