{
  "contractName": "BlockAuth",
  "abi": [
    {
      "constant": true,
      "inputs": [],
      "name": "userCount",
      "outputs": [
        {
          "name": "",
          "type": "uint256"
        }
      ],
      "payable": false,
      "stateMutability": "view",
      "type": "function"
    },
    {
      "constant": true,
      "inputs": [],
      "name": "deviceCount",
      "outputs": [
        {
          "name": "",
          "type": "uint256"
        }
      ],
      "payable": false,
      "stateMutability": "view",
      "type": "function"
    },
    {
      "constant": true,
      "inputs": [
        {
          "name": "",
          "type": "bytes32"
        },
        {
          "name": "",
          "type": "uint256"
        }
      ],
      "name": "documents",
      "outputs": [
        {
          "name": "name",
          "type": "string"
        },
        {
          "name": "description",
          "type": "string"
        },
        {
          "name": "sender",
          "type": "address"
        }
      ],
      "payable": false,
      "stateMutability": "view",
      "type": "function"
    },
    {
      "constant": true,
      "inputs": [
        {
          "name": "",
          "type": "uint256"
        },
        {
          "name": "",
          "type": "uint256"
        }
      ],
      "name": "devices",
      "outputs": [
        {
          "name": "id",
          "type": "uint256"
        },
        {
          "name": "name",
          "type": "string"
        },
        {
          "name": "account",
          "type": "address"
        },
        {
          "name": "ip",
          "type": "string"
        }
      ],
      "payable": false,
      "stateMutability": "view",
      "type": "function"
    },
    {
      "constant": true,
      "inputs": [
        {
          "name": "",
          "type": "uint256"
        },
        {
          "name": "",
          "type": "uint256"
        }
      ],
      "name": "users",
      "outputs": [
        {
          "name": "id",
          "type": "uint256"
        },
        {
          "name": "name",
          "type": "string"
        },
        {
          "name": "account",
          "type": "address"
        }
      ],
      "payable": false,
      "stateMutability": "view",
      "type": "function"
    },
    {
      "inputs": [],
      "payable": false,
      "stateMutability": "nonpayable",
      "type": "constructor"
    },
    {
      "anonymous": false,
      "inputs": [
        {
          "indexed": false,
          "name": "id",
          "type": "uint256"
        },
        {
          "indexed": false,
          "name": "name",
          "type": "string"
        },
        {
          "indexed": false,
          "name": "account",
          "type": "address"
        },
        {
          "indexed": false,
          "name": "ip",
          "type": "string"
        }
      ],
      "name": "DeviceAdded",
      "type": "event"
    },
    {
      "anonymous": false,
      "inputs": [
        {
          "indexed": false,
          "name": "id",
          "type": "uint256"
        },
        {
          "indexed": false,
          "name": "name",
          "type": "string"
        },
        {
          "indexed": false,
          "name": "account",
          "type": "address"
        }
      ],
      "name": "UserAdded",
      "type": "event"
    },
    {
      "anonymous": false,
      "inputs": [
        {
          "indexed": false,
          "name": "sender",
          "type": "address"
        },
        {
          "indexed": false,
          "name": "token",
          "type": "bytes32"
        }
      ],
      "name": "DistributeToken",
      "type": "event"
    },
    {
      "constant": false,
      "inputs": [
        {
          "name": "name",
          "type": "string"
        },
        {
          "name": "account",
          "type": "address"
        },
        {
          "name": "ip",
          "type": "string"
        }
      ],
      "name": "addDevice",
      "outputs": [],
      "payable": false,
      "stateMutability": "nonpayable",
      "type": "function"
    },
    {
      "constant": false,
      "inputs": [
        {
          "name": "name",
          "type": "string"
        },
        {
          "name": "account",
          "type": "address"
        }
      ],
      "name": "addUser",
      "outputs": [],
      "payable": false,
      "stateMutability": "nonpayable",
      "type": "function"
    },
    {
      "constant": false,
      "inputs": [
        {
          "name": "key",
          "type": "uint256"
        },
        {
          "name": "name",
          "type": "string"
        },
        {
          "name": "description",
          "type": "string"
        }
      ],
      "name": "StoreDocument",
      "outputs": [
        {
          "name": "success",
          "type": "bool"
        }
      ],
      "payable": false,
      "stateMutability": "nonpayable",
      "type": "function"
    },
    {
      "constant": true,
      "inputs": [],
      "name": "rand",
      "outputs": [
        {
          "name": "",
          "type": "bytes32"
        }
      ],
      "payable": false,
      "stateMutability": "view",
      "type": "function"
    },
    {
      "constant": false,
      "inputs": [],
      "name": "login_admin",
      "outputs": [],
      "payable": false,
      "stateMutability": "nonpayable",
      "type": "function"
    }
  ],
  "bytecode": "0x60806040526000805560006001553480156200001a57600080fd5b50620000626040518060400160405280600a81526020017f41646d696e205573657200000000000000000000000000000000000000000000815250336200006860201b60201c565b62000304565b60018054810190556200007a62000235565b506040805160608101825260018054825260208083018681526001600160a01b0386169484019490945260038082527fa15bc60c955c405d20d9149c709e2460f1c2d9a497496a7f46004d1772c3054c80549384018082556000919091528451939091027f2c644dcf44e265ba93879b2da89e1b16ab48fc5eb8e31bc16b0612d6da8463f1810193845594518051949591948694936200013f937f2c644dcf44e265ba93879b2da89e1b16ab48fc5eb8e31bc16b0612d6da8463f2019201906200025f565b5060408201518160020160006101000a8154816001600160a01b0302191690836001600160a01b031602179055505050507f514af2a82370fd69109ef67206736f3880c4f9c15d2f2acd798b782ae37fdc5a60015484846040518084815260200180602001836001600160a01b03166001600160a01b03168152602001828103825284818151815260200191508051906020019080838360005b83811015620001f3578181015183820152602001620001d9565b50505050905090810190601f168015620002215780820380516001836020036101000a031916815260200191505b5094505050505060405180910390a1505050565b6040518060600160405280600081526020016060815260200160006001600160a01b031681525090565b828054600181600116156101000203166002900490600052602060002090601f016020900481019282601f10620002a257805160ff1916838001178555620002d2565b82800160010185558215620002d2579182015b82811115620002d2578251825591602001919060010190620002b5565b50620002e0929150620002e4565b5090565b6200030191905b80821115620002e05760008155600101620002eb565b90565b6110ff80620003146000396000f3fe608060405234801561001057600080fd5b506004361061009e5760003560e01c80637a685499116100665780637a68549914610323578063864a0d0a1461046757806399b7182914610516578063cd600ba914610637578063f262c49f146106f25761009e565b806307973ccf146100a35780630caac484146100bd5780633b3dca76146101f9578063535bca9a1461020157806379c17cc514610209575b600080fd5b6100ab6106fa565b60408051918252519081900360200190f35b6101f7600480360360608110156100d357600080fd5b810190602081018135600160201b8111156100ed57600080fd5b8201836020820111156100ff57600080fd5b803590602001918460018302840111600160201b8311171561012057600080fd5b91908080601f01602080910402602001604051908101604052809392919081815260200183838082843760009201919091525092956001600160a01b03853516959094909350604081019250602001359050600160201b81111561018357600080fd5b82018360208201111561019557600080fd5b803590602001918460018302840111600160201b831117156101b657600080fd5b91908080601f016020809104026020016040519081016040528093929190818152602001838380828437600092019190915250929550610700945050505050565b005b6100ab61094a565b6100ab610954565b61022c6004803603604081101561021f57600080fd5b508035906020013561095a565b604051808060200180602001846001600160a01b03166001600160a01b03168152602001838103835286818151815260200191508051906020019080838360005b8381101561028557818101518382015260200161026d565b50505050905090810190601f1680156102b25780820380516001836020036101000a031916815260200191505b50838103825285518152855160209182019187019080838360005b838110156102e55781810151838201526020016102cd565b50505050905090810190601f1680156103125780820380516001836020036101000a031916815260200191505b509550505050505060405180910390f35b6104536004803603606081101561033957600080fd5b81359190810190604081016020820135600160201b81111561035a57600080fd5b82018360208201111561036c57600080fd5b803590602001918460018302840111600160201b8311171561038d57600080fd5b91908080601f0160208091040260200160405190810160405280939291908181526020018383808284376000920191909152509295949360208101935035915050600160201b8111156103df57600080fd5b8201836020820111156103f157600080fd5b803590602001918460018302840111600160201b8311171561041257600080fd5b91908080601f016020809104026020016040519081016040528093929190818152602001838380828437600092019190915250929550610ac3945050505050565b604080519115158252519081900360200190f35b6101f76004803603604081101561047d57600080fd5b810190602081018135600160201b81111561049757600080fd5b8201836020820111156104a957600080fd5b803590602001918460018302840111600160201b831117156104ca57600080fd5b91908080601f016020809104026020016040519081016040528093929190818152602001838380828437600092019190915250929550505090356001600160a01b03169150610ba19050565b6105396004803603604081101561052c57600080fd5b5080359060200135610d67565b6040518085815260200180602001846001600160a01b03166001600160a01b0316815260200180602001838103835286818151815260200191508051906020019080838360005b83811015610598578181015183820152602001610580565b50505050905090810190601f1680156105c55780820380516001836020036101000a031916815260200191505b50838103825284518152845160209182019186019080838360005b838110156105f85781810151838201526020016105e0565b50505050905090810190601f1680156106255780820380516001836020036101000a031916815260200191505b50965050505050505060405180910390f35b61065a6004803603604081101561064d57600080fd5b5080359060200135610ecc565b6040518084815260200180602001836001600160a01b03166001600160a01b03168152602001828103825284818151815260200191508051906020019080838360005b838110156106b557818101518382015260200161069d565b50505050905090810190601f1680156106e25780820380516001836020036101000a031916815260200191505b5094505050505060405180910390f35b6101f7610f5a565b60015481565b600080546001019055610711610fe0565b506040805160808101825260008054825260208083018781526001600160a01b0387169484019490945260608301859052600281527fe90b7bceb6e7df5418fb78d8ee546e97c83a08bbccc01a0644d599ccd2a7c2e080546001810180835591909352835160049093027f7fef4bf8f63cf9dd467136c679c02b5c17fcf6322d9562512bf5eb952cf7cc53810193845594518051949591948694936107da937f7fef4bf8f63cf9dd467136c679c02b5c17fcf6322d9562512bf5eb952cf7cc5401920190611011565b5060408201516002820180546001600160a01b0319166001600160a01b039092169190911790556060820151805161081c916003840191602090910190611011565b505050507f84e46a5724a02038c94e8cd77f98803e7f2fa0998f768589e77ad9f578dd995e6000548585856040518085815260200180602001846001600160a01b03166001600160a01b0316815260200180602001838103835286818151815260200191508051906020019080838360005b838110156108a657818101518382015260200161088e565b50505050905090810190601f1680156108d35780820380516001836020036101000a031916815260200191505b50838103825284518152845160209182019186019080838360005b838110156109065781810151838201526020016108ee565b50505050905090810190601f1680156109335780820380516001836020036101000a031916815260200191505b50965050505050505060405180910390a150505050565b6000194301405b90565b60005481565b6004602052816000526040600020818154811061097357fe5b60009182526020918290206003919091020180546040805160026001841615610100026000190190931692909204601f810185900485028301850190915280825291945092508391830182828015610a0c5780601f106109e157610100808354040283529160200191610a0c565b820191906000526020600020905b8154815290600101906020018083116109ef57829003601f168201915b505050505090806001018054600181600116156101000203166002900480601f016020809104026020016040519081016040528092919081815260200182805460018160011615610100020316600290048015610aaa5780601f10610a7f57610100808354040283529160200191610aaa565b820191906000526020600020905b815481529060010190602001808311610a8d57829003601f168201915b505050600290930154919250506001600160a01b031683565b6000610acd610fe0565b506040805160808101825260018082526020808301878152338486015284518086018652600b8152600160a81b6a31302e3130302e31302e31028184015260608501526000898152600283529485208054808501808355918752958390208551600490970201958655905180519495919486949293610b50938501920190611011565b5060408201516002820180546001600160a01b0319166001600160a01b0390921691909117905560608201518051610b92916003840191602090910190611011565b50600198975050505050505050565b6001805481019055610bb161108f565b506040805160608101825260018054825260208083018681526001600160a01b0386169484019490945260038082527fa15bc60c955c405d20d9149c709e2460f1c2d9a497496a7f46004d1772c3054c80549384018082556000919091528451939091027f2c644dcf44e265ba93879b2da89e1b16ab48fc5eb8e31bc16b0612d6da8463f181019384559451805194959194869493610c74937f2c644dcf44e265ba93879b2da89e1b16ab48fc5eb8e31bc16b0612d6da8463f201920190611011565b5060408201518160020160006101000a8154816001600160a01b0302191690836001600160a01b031602179055505050507f514af2a82370fd69109ef67206736f3880c4f9c15d2f2acd798b782ae37fdc5a60015484846040518084815260200180602001836001600160a01b03166001600160a01b03168152602001828103825284818151815260200191508051906020019080838360005b83811015610d26578181015183820152602001610d0e565b50505050905090810190601f168015610d535780820380516001836020036101000a031916815260200191505b5094505050505060405180910390a1505050565b60026020528160005260406000208181548110610d8057fe5b60009182526020918290206004919091020180546001808301805460408051600294831615610100026000190190921693909304601f81018790048702820187019093528281529296509294509092830182828015610e205780601f10610df557610100808354040283529160200191610e20565b820191906000526020600020905b815481529060010190602001808311610e0357829003601f168201915b505050506002838101546003850180546040805160206101006001851615026000190190931695909504601f810183900483028601830190915280855295966001600160a01b0390931695929450909190830182828015610ec25780601f10610e9757610100808354040283529160200191610ec2565b820191906000526020600020905b815481529060010190602001808311610ea557829003601f168201915b5050505050905084565b60036020528160005260406000208181548110610ee557fe5b60009182526020918290206003919091020180546001808301805460408051600294831615610100026000190190921693909304601f81018790048702820187019093528281529296509294509092830182828015610aaa5780601f10610a7f57610100808354040283529160200191610aaa565b610f6261094a565b60058190556040805133606081901b602080840191909152426034840152605480840195909552835180840390950185526074830180855285519590910194909420600681905593526094810192909252517f86d5fe05f5fdd717661032b622af0e2feea058dce13146aa1aebc415b72c72af9181900360b40190a1565b6040518060800160405280600081526020016060815260200160006001600160a01b03168152602001606081525090565b828054600181600116156101000203166002900490600052602060002090601f016020900481019282601f1061105257805160ff191683800117855561107f565b8280016001018555821561107f579182015b8281111561107f578251825591602001919060010190611064565b5061108b9291506110b9565b5090565b6040518060600160405280600081526020016060815260200160006001600160a01b031681525090565b61095191905b8082111561108b57600081556001016110bf56fea165627a7a723058208c8201f5999b1cd6cb69b7077534050a3e8af2a07752686d7c89d8395019cfd20029",
  "source": "pragma solidity ^0.5.0;\r\n\r\ncontract BlockAuth{\r\n    uint public deviceCount = 0;\r\n    uint public userCount = 0;\r\n\r\n    mapping(uint => Device[]) public devices;\r\n    mapping(uint => User[]) public users;\r\n\r\n    struct Device {\r\n        uint id;\r\n        string name;\r\n        address account;\r\n        string ip;\r\n    }\r\n\r\n    struct User {\r\n        uint id;\r\n        string name;\r\n        address account;\r\n    }\r\n\r\n    function addDevice(string memory name, address account,string memory ip) public {\r\n        deviceCount ++;\r\n        Device memory device = Device(deviceCount, name, account,ip);\r\n        devices[1].push(device);\r\n        emit DeviceAdded(deviceCount, name,account,ip);\r\n    }\r\n\r\n    constructor() public {\r\n        addUser(\"Admin User\",msg.sender);\r\n    }\r\n\r\n    event DeviceAdded(uint id,string name,address account,string ip);\r\n\r\n    function addUser(string memory name, address account) public{\r\n        userCount ++;\r\n        User memory user = User(userCount, name, account);\r\n        users[1].push(user);\r\n        emit UserAdded(userCount, name, account);\r\n    }\r\n\r\n    mapping (bytes32=>Document[]) public documents;\r\n\r\n    struct Document{\r\n        string name;\r\n        string description;\r\n        address sender;\r\n    }\r\n\r\n    function StoreDocument(uint key, string memory name, string memory description) public returns (bool success) {\r\n       Device memory dev = Device(1,name, msg.sender,\"10.100.10.1\");\r\n       devices[key].push(dev);\r\n       return true;\r\n    }\r\n\r\n    event UserAdded(uint id,string name,address account);\r\n\r\n\tevent DistributeToken(address sender, bytes32 token);\r\n    bytes32 random_number;\r\n    bytes32 token;\r\n\r\n    // min and max are not needed now, some future work idea\r\n    function rand() public view returns (bytes32) {\r\n        uint256 lastBlockNumber = block.number - 1;\r\n        bytes32 hashVal = bytes32(blockhash(lastBlockNumber));\r\n        return bytes32(hashVal);\r\n    }\r\n\r\n    function login_admin() public { \r\n\t\trandom_number = rand();\r\n        token = keccak256(abi.encodePacked(msg.sender, now, random_number));\r\n        emit DistributeToken(msg.sender, token);\r\n    }\r\n}",
  "sourcePath": "C:/Users/Mkay_DaSextja/Documents/BScHons - UJ/Project/Code/block-auth-contract/contracts/BlockAuth.sol",
  "compiler": {
    "name": "solc",
    "version": "0.5.8+commit.23d335f2.Emscripten.clang"
  },
  "schemaVersion": "3.0.11",
  "updatedAt": "2019-08-13T00:10:38.804Z",
  "devdoc": {
    "methods": {}
  },
  "userdoc": {
    "methods": {}
  }
}