{
  "contractName": "BlockAuth",
  "abi": [
    {
      "constant": true,
      "inputs": [],
      "name": "userCount",
      "outputs": [
        {
          "name": "",
          "type": "uint256"
        }
      ],
      "payable": false,
      "stateMutability": "view",
      "type": "function"
    },
    {
      "constant": true,
      "inputs": [],
      "name": "deviceCount",
      "outputs": [
        {
          "name": "",
          "type": "uint256"
        }
      ],
      "payable": false,
      "stateMutability": "view",
      "type": "function"
    },
    {
      "constant": true,
      "inputs": [
        {
          "name": "",
          "type": "uint256"
        },
        {
          "name": "",
          "type": "uint256"
        }
      ],
      "name": "devices",
      "outputs": [
        {
          "name": "id",
          "type": "uint256"
        },
        {
          "name": "name",
          "type": "string"
        },
        {
          "name": "account",
          "type": "address"
        },
        {
          "name": "ip",
          "type": "string"
        }
      ],
      "payable": false,
      "stateMutability": "view",
      "type": "function"
    },
    {
      "constant": true,
      "inputs": [
        {
          "name": "",
          "type": "uint256"
        },
        {
          "name": "",
          "type": "uint256"
        }
      ],
      "name": "users",
      "outputs": [
        {
          "name": "id",
          "type": "uint256"
        },
        {
          "name": "name",
          "type": "string"
        },
        {
          "name": "account",
          "type": "address"
        }
      ],
      "payable": false,
      "stateMutability": "view",
      "type": "function"
    },
    {
      "inputs": [],
      "payable": false,
      "stateMutability": "nonpayable",
      "type": "constructor"
    },
    {
      "anonymous": false,
      "inputs": [
        {
          "indexed": false,
          "name": "id",
          "type": "uint256"
        },
        {
          "indexed": false,
          "name": "name",
          "type": "string"
        },
        {
          "indexed": false,
          "name": "account",
          "type": "address"
        },
        {
          "indexed": false,
          "name": "ip",
          "type": "string"
        }
      ],
      "name": "DeviceAdded",
      "type": "event"
    },
    {
      "anonymous": false,
      "inputs": [
        {
          "indexed": false,
          "name": "id",
          "type": "uint256"
        },
        {
          "indexed": false,
          "name": "name",
          "type": "string"
        },
        {
          "indexed": false,
          "name": "account",
          "type": "address"
        }
      ],
      "name": "UserAdded",
      "type": "event"
    },
    {
      "anonymous": false,
      "inputs": [
        {
          "indexed": false,
          "name": "sender",
          "type": "address"
        },
        {
          "indexed": false,
          "name": "token",
          "type": "bytes32"
        }
      ],
      "name": "DistributeToken",
      "type": "event"
    },
    {
      "constant": false,
      "inputs": [
        {
          "name": "name",
          "type": "string"
        },
        {
          "name": "account",
          "type": "address"
        },
        {
          "name": "ip",
          "type": "string"
        }
      ],
      "name": "addDevice",
      "outputs": [],
      "payable": false,
      "stateMutability": "nonpayable",
      "type": "function"
    },
    {
      "constant": false,
      "inputs": [
        {
          "name": "name",
          "type": "string"
        },
        {
          "name": "account",
          "type": "address"
        }
      ],
      "name": "addUser",
      "outputs": [],
      "payable": false,
      "stateMutability": "nonpayable",
      "type": "function"
    },
    {
      "constant": true,
      "inputs": [],
      "name": "rand",
      "outputs": [
        {
          "name": "",
          "type": "bytes32"
        }
      ],
      "payable": false,
      "stateMutability": "view",
      "type": "function"
    },
    {
      "constant": false,
      "inputs": [],
      "name": "login_admin",
      "outputs": [],
      "payable": false,
      "stateMutability": "nonpayable",
      "type": "function"
    }
  ],
  "bytecode": "0x60806040526000805560006001553480156200001a57600080fd5b50620000626040518060400160405280600a81526020017f41646d696e205573657200000000000000000000000000000000000000000000815250336200006860201b60201c565b62000304565b60018054810190556200007a62000235565b506040805160608101825260018054825260208083018681526001600160a01b0386169484019490945260038082527fa15bc60c955c405d20d9149c709e2460f1c2d9a497496a7f46004d1772c3054c80549384018082556000919091528451939091027f2c644dcf44e265ba93879b2da89e1b16ab48fc5eb8e31bc16b0612d6da8463f1810193845594518051949591948694936200013f937f2c644dcf44e265ba93879b2da89e1b16ab48fc5eb8e31bc16b0612d6da8463f2019201906200025f565b5060408201518160020160006101000a8154816001600160a01b0302191690836001600160a01b031602179055505050507f514af2a82370fd69109ef67206736f3880c4f9c15d2f2acd798b782ae37fdc5a60015484846040518084815260200180602001836001600160a01b03166001600160a01b03168152602001828103825284818151815260200191508051906020019080838360005b83811015620001f3578181015183820152602001620001d9565b50505050905090810190601f168015620002215780820380516001836020036101000a031916815260200191505b5094505050505060405180910390a1505050565b6040518060600160405280600081526020016060815260200160006001600160a01b031681525090565b828054600181600116156101000203166002900490600052602060002090601f016020900481019282601f10620002a257805160ff1916838001178555620002d2565b82800160010185558215620002d2579182015b82811115620002d2578251825591602001919060010190620002b5565b50620002e0929150620002e4565b5090565b6200030191905b80821115620002e05760008155600101620002eb565b90565b610c8e80620003146000396000f3fe608060405234801561001057600080fd5b50600436106100885760003560e01c8063864a0d0a1161005b578063864a0d0a146101f757806399b71829146102a8578063cd600ba9146103c9578063f262c49f1461048457610088565b806307973ccf1461008d5780630caac484146100a75780633b3dca76146101e7578063535bca9a146101ef575b600080fd5b61009561048c565b60408051918252519081900360200190f35b6101e5600480360360608110156100bd57600080fd5b8101906020810181356401000000008111156100d857600080fd5b8201836020820111156100ea57600080fd5b8035906020019184600183028401116401000000008311171561010c57600080fd5b91908080601f01602080910402602001604051908101604052809392919081815260200183838082843760009201919091525092956001600160a01b0385351695909490935060408101925060200135905064010000000081111561017057600080fd5b82018360208201111561018257600080fd5b803590602001918460018302840111640100000000831117156101a457600080fd5b91908080601f016020809104026020016040519081016040528093929190818152602001838380828437600092019190915250929550610492945050505050565b005b6100956106dc565b6100956106e6565b6101e56004803603604081101561020d57600080fd5b81019060208101813564010000000081111561022857600080fd5b82018360208201111561023a57600080fd5b8035906020019184600183028401116401000000008311171561025c57600080fd5b91908080601f016020809104026020016040519081016040528093929190818152602001838380828437600092019190915250929550505090356001600160a01b031691506106ec9050565b6102cb600480360360408110156102be57600080fd5b50803590602001356108b2565b6040518085815260200180602001846001600160a01b03166001600160a01b0316815260200180602001838103835286818151815260200191508051906020019080838360005b8381101561032a578181015183820152602001610312565b50505050905090810190601f1680156103575780820380516001836020036101000a031916815260200191505b50838103825284518152845160209182019186019080838360005b8381101561038a578181015183820152602001610372565b50505050905090810190601f1680156103b75780820380516001836020036101000a031916815260200191505b50965050505050505060405180910390f35b6103ec600480360360408110156103df57600080fd5b5080359060200135610a17565b6040518084815260200180602001836001600160a01b03166001600160a01b03168152602001828103825284818151815260200191508051906020019080838360005b8381101561044757818101518382015260200161042f565b50505050905090810190601f1680156104745780820380516001836020036101000a031916815260200191505b5094505050505060405180910390f35b6101e5610ae9565b60015481565b6000805460010190556104a3610b6f565b506040805160808101825260008054825260208083018781526001600160a01b0387169484019490945260608301859052600281527fe90b7bceb6e7df5418fb78d8ee546e97c83a08bbccc01a0644d599ccd2a7c2e080546001810180835591909352835160049093027f7fef4bf8f63cf9dd467136c679c02b5c17fcf6322d9562512bf5eb952cf7cc538101938455945180519495919486949361056c937f7fef4bf8f63cf9dd467136c679c02b5c17fcf6322d9562512bf5eb952cf7cc5401920190610ba0565b5060408201516002820180546001600160a01b0319166001600160a01b03909216919091179055606082015180516105ae916003840191602090910190610ba0565b505050507f84e46a5724a02038c94e8cd77f98803e7f2fa0998f768589e77ad9f578dd995e6000548585856040518085815260200180602001846001600160a01b03166001600160a01b0316815260200180602001838103835286818151815260200191508051906020019080838360005b83811015610638578181015183820152602001610620565b50505050905090810190601f1680156106655780820380516001836020036101000a031916815260200191505b50838103825284518152845160209182019186019080838360005b83811015610698578181015183820152602001610680565b50505050905090810190601f1680156106c55780820380516001836020036101000a031916815260200191505b50965050505050505060405180910390a150505050565b6000194301405b90565b60005481565b60018054810190556106fc610c1e565b506040805160608101825260018054825260208083018681526001600160a01b0386169484019490945260038082527fa15bc60c955c405d20d9149c709e2460f1c2d9a497496a7f46004d1772c3054c80549384018082556000919091528451939091027f2c644dcf44e265ba93879b2da89e1b16ab48fc5eb8e31bc16b0612d6da8463f1810193845594518051949591948694936107bf937f2c644dcf44e265ba93879b2da89e1b16ab48fc5eb8e31bc16b0612d6da8463f201920190610ba0565b5060408201518160020160006101000a8154816001600160a01b0302191690836001600160a01b031602179055505050507f514af2a82370fd69109ef67206736f3880c4f9c15d2f2acd798b782ae37fdc5a60015484846040518084815260200180602001836001600160a01b03166001600160a01b03168152602001828103825284818151815260200191508051906020019080838360005b83811015610871578181015183820152602001610859565b50505050905090810190601f16801561089e5780820380516001836020036101000a031916815260200191505b5094505050505060405180910390a1505050565b600260205281600052604060002081815481106108cb57fe5b60009182526020918290206004919091020180546001808301805460408051600294831615610100026000190190921693909304601f8101879004870282018701909352828152929650929450909283018282801561096b5780601f106109405761010080835404028352916020019161096b565b820191906000526020600020905b81548152906001019060200180831161094e57829003601f168201915b505050506002838101546003850180546040805160206101006001851615026000190190931695909504601f810183900483028601830190915280855295966001600160a01b0390931695929450909190830182828015610a0d5780601f106109e257610100808354040283529160200191610a0d565b820191906000526020600020905b8154815290600101906020018083116109f057829003601f168201915b5050505050905084565b60036020528160005260406000208181548110610a3057fe5b60009182526020918290206003919091020180546001808301805460408051600294831615610100026000190190921693909304601f81018790048702820187019093528281529296509294509092830182828015610ad05780601f10610aa557610100808354040283529160200191610ad0565b820191906000526020600020905b815481529060010190602001808311610ab357829003601f168201915b505050600290930154919250506001600160a01b031683565b610af16106dc565b60048190556040805133606081901b602080840191909152426034840152605480840195909552835180840390950185526074830180855285519590910194909420600581905593526094810192909252517f86d5fe05f5fdd717661032b622af0e2feea058dce13146aa1aebc415b72c72af9181900360b40190a1565b6040518060800160405280600081526020016060815260200160006001600160a01b03168152602001606081525090565b828054600181600116156101000203166002900490600052602060002090601f016020900481019282601f10610be157805160ff1916838001178555610c0e565b82800160010185558215610c0e579182015b82811115610c0e578251825591602001919060010190610bf3565b50610c1a929150610c48565b5090565b6040518060600160405280600081526020016060815260200160006001600160a01b031681525090565b6106e391905b80821115610c1a5760008155600101610c4e56fea165627a7a72305820eb04ecc388967e42457504156582b2ed500949a955c4941604421061af04e5850029",
  "source": "pragma solidity ^0.5.0;\r\n\r\ncontract BlockAuth{\r\n    uint public deviceCount = 0;\r\n    uint public userCount = 0;\r\n\r\n    struct Device {\r\n        uint id;\r\n        string name;\r\n        address account;\r\n        string ip;\r\n    }\r\n\r\n    struct User {\r\n        uint id;\r\n        string name;\r\n        address account;\r\n    }\r\n\r\n    function addDevice(string memory name, address account,string memory ip) public {\r\n        deviceCount ++;\r\n        Device memory device = Device(deviceCount, name, account,ip);\r\n        devices[1].push(device);\r\n        emit DeviceAdded(deviceCount, name,account,ip);\r\n    }\r\n\r\n    constructor() public {\r\n        addUser(\"Admin User\",msg.sender);\r\n    }\r\n\r\n    event DeviceAdded(uint id,string name,address account,string ip);\r\n\r\n    mapping(uint => Device[]) public devices;\r\n    mapping(uint => User[]) public users;\r\n    \r\n    function addUser(string memory name, address account) public{\r\n        userCount ++;\r\n        User memory user = User(userCount, name, account);\r\n        users[1].push(user);\r\n        emit UserAdded(userCount, name, account);\r\n    }\r\n\r\n    event UserAdded(uint id,string name,address account);\r\n\r\n\tevent DistributeToken(address sender, bytes32 token);\r\n    bytes32 random_number;\r\n    bytes32 token;\r\n\r\n    // min and max are not needed now, some future work idea\r\n    function rand() public view returns (bytes32) {\r\n        uint256 lastBlockNumber = block.number - 1;\r\n        bytes32 hashVal = bytes32(blockhash(lastBlockNumber));\r\n        return bytes32(hashVal);\r\n    }\r\n\r\n    function login_admin() public { \r\n\t\trandom_number = rand();\r\n        token = keccak256(abi.encodePacked(msg.sender, now, random_number));\r\n        emit DistributeToken(msg.sender, token);\r\n    }\r\n}",
  "sourcePath": "C:/Users/Mkay_DaSextja/Documents/BScHons - UJ/Project/Code/block-auth-contract/contracts/BlockAuth.sol",
  "compiler": {
    "name": "solc",
    "version": "0.5.8+commit.23d335f2.Emscripten.clang"
  },
  "schemaVersion": "3.0.11",
  "updatedAt": "2019-08-12T22:45:34.594Z",
  "devdoc": {
    "methods": {}
  },
  "userdoc": {
    "methods": {}
  }
}