{
  "contractName": "BlockAuth",
  "abi": [
    {
      "constant": true,
      "inputs": [],
      "name": "userCount",
      "outputs": [
        {
          "name": "",
          "type": "uint256"
        }
      ],
      "payable": false,
      "stateMutability": "view",
      "type": "function"
    },
    {
      "constant": true,
      "inputs": [
        {
          "name": "",
          "type": "bytes32"
        },
        {
          "name": "",
          "type": "uint256"
        }
      ],
      "name": "devices",
      "outputs": [
        {
          "name": "id",
          "type": "uint256"
        },
        {
          "name": "name",
          "type": "string"
        },
        {
          "name": "account",
          "type": "address"
        },
        {
          "name": "ip",
          "type": "string"
        }
      ],
      "payable": false,
      "stateMutability": "view",
      "type": "function"
    },
    {
      "constant": true,
      "inputs": [],
      "name": "deviceCount",
      "outputs": [
        {
          "name": "",
          "type": "uint256"
        }
      ],
      "payable": false,
      "stateMutability": "view",
      "type": "function"
    },
    {
      "constant": true,
      "inputs": [
        {
          "name": "",
          "type": "bytes32"
        },
        {
          "name": "",
          "type": "uint256"
        }
      ],
      "name": "documents",
      "outputs": [
        {
          "name": "name",
          "type": "string"
        },
        {
          "name": "description",
          "type": "string"
        },
        {
          "name": "sender",
          "type": "address"
        }
      ],
      "payable": false,
      "stateMutability": "view",
      "type": "function"
    },
    {
      "constant": true,
      "inputs": [
        {
          "name": "",
          "type": "uint256"
        },
        {
          "name": "",
          "type": "uint256"
        }
      ],
      "name": "users",
      "outputs": [
        {
          "name": "id",
          "type": "uint256"
        },
        {
          "name": "name",
          "type": "string"
        },
        {
          "name": "account",
          "type": "address"
        }
      ],
      "payable": false,
      "stateMutability": "view",
      "type": "function"
    },
    {
      "inputs": [],
      "payable": false,
      "stateMutability": "nonpayable",
      "type": "constructor"
    },
    {
      "anonymous": false,
      "inputs": [
        {
          "indexed": false,
          "name": "id",
          "type": "uint256"
        },
        {
          "indexed": false,
          "name": "name",
          "type": "string"
        },
        {
          "indexed": false,
          "name": "account",
          "type": "address"
        },
        {
          "indexed": false,
          "name": "ip",
          "type": "string"
        }
      ],
      "name": "DeviceAdded",
      "type": "event"
    },
    {
      "anonymous": false,
      "inputs": [
        {
          "indexed": false,
          "name": "id",
          "type": "uint256"
        },
        {
          "indexed": false,
          "name": "name",
          "type": "string"
        },
        {
          "indexed": false,
          "name": "account",
          "type": "address"
        }
      ],
      "name": "UserAdded",
      "type": "event"
    },
    {
      "anonymous": false,
      "inputs": [
        {
          "indexed": false,
          "name": "sender",
          "type": "address"
        },
        {
          "indexed": false,
          "name": "token",
          "type": "bytes32"
        }
      ],
      "name": "DistributeToken",
      "type": "event"
    },
    {
      "constant": false,
      "inputs": [
        {
          "name": "name",
          "type": "string"
        },
        {
          "name": "account",
          "type": "address"
        },
        {
          "name": "ip",
          "type": "string"
        }
      ],
      "name": "addDevice",
      "outputs": [],
      "payable": false,
      "stateMutability": "nonpayable",
      "type": "function"
    },
    {
      "constant": false,
      "inputs": [
        {
          "name": "name",
          "type": "string"
        },
        {
          "name": "account",
          "type": "address"
        }
      ],
      "name": "addUser",
      "outputs": [],
      "payable": false,
      "stateMutability": "nonpayable",
      "type": "function"
    },
    {
      "constant": false,
      "inputs": [
        {
          "name": "key",
          "type": "bytes32"
        },
        {
          "name": "name",
          "type": "string"
        },
        {
          "name": "description",
          "type": "string"
        }
      ],
      "name": "StoreDocument",
      "outputs": [
        {
          "name": "success",
          "type": "bool"
        }
      ],
      "payable": false,
      "stateMutability": "nonpayable",
      "type": "function"
    },
    {
      "constant": true,
      "inputs": [],
      "name": "rand",
      "outputs": [
        {
          "name": "",
          "type": "bytes32"
        }
      ],
      "payable": false,
      "stateMutability": "view",
      "type": "function"
    },
    {
      "constant": false,
      "inputs": [],
      "name": "login_admin",
      "outputs": [],
      "payable": false,
      "stateMutability": "nonpayable",
      "type": "function"
    }
  ],
  "bytecode": "0x60806040526000805560006001553480156200001a57600080fd5b50620000626040518060400160405280600a81526020017f41646d696e205573657200000000000000000000000000000000000000000000815250336200006860201b60201c565b62000304565b60018054810190556200007a62000235565b506040805160608101825260018054825260208083018681526001600160a01b0386169484019490945260038082527fa15bc60c955c405d20d9149c709e2460f1c2d9a497496a7f46004d1772c3054c80549384018082556000919091528451939091027f2c644dcf44e265ba93879b2da89e1b16ab48fc5eb8e31bc16b0612d6da8463f1810193845594518051949591948694936200013f937f2c644dcf44e265ba93879b2da89e1b16ab48fc5eb8e31bc16b0612d6da8463f2019201906200025f565b5060408201518160020160006101000a8154816001600160a01b0302191690836001600160a01b031602179055505050507f514af2a82370fd69109ef67206736f3880c4f9c15d2f2acd798b782ae37fdc5a60015484846040518084815260200180602001836001600160a01b03166001600160a01b03168152602001828103825284818151815260200191508051906020019080838360005b83811015620001f3578181015183820152602001620001d9565b50505050905090810190601f168015620002215780820380516001836020036101000a031916815260200191505b5094505050505060405180910390a1505050565b6040518060600160405280600081526020016060815260200160006001600160a01b031681525090565b828054600181600116156101000203166002900490600052602060002090601f016020900481019282601f10620002a257805160ff1916838001178555620002d2565b82800160010185558215620002d2579182015b82811115620002d2578251825591602001919060010190620002b5565b50620002e0929150620002e4565b5090565b6200030191905b80821115620002e05760008155600101620002eb565b90565b61100780620003146000396000f3fe608060405234801561001057600080fd5b506004361061009e5760003560e01c8063535bca9a11610066578063535bca9a1461046657806379c17cc51461046e578063864a0d0a14610588578063cd600ba914610637578063f262c49f146106f25761009e565b806307973ccf146100a35780630caac484146100bd5780633b3dca76146101f95780634a75c0ff146102015780634dad222514610345575b600080fd5b6100ab6106fa565b60408051918252519081900360200190f35b6101f7600480360360608110156100d357600080fd5b810190602081018135600160201b8111156100ed57600080fd5b8201836020820111156100ff57600080fd5b803590602001918460018302840111600160201b8311171561012057600080fd5b91908080601f01602080910402602001604051908101604052809392919081815260200183838082843760009201919091525092956001600160a01b03853516959094909350604081019250602001359050600160201b81111561018357600080fd5b82018360208201111561019557600080fd5b803590602001918460018302840111600160201b831117156101b657600080fd5b91908080601f016020809104026020016040519081016040528093929190818152602001838380828437600092019190915250929550610700945050505050565b005b6100ab610869565b6103316004803603606081101561021757600080fd5b81359190810190604081016020820135600160201b81111561023857600080fd5b82018360208201111561024a57600080fd5b803590602001918460018302840111600160201b8311171561026b57600080fd5b91908080601f0160208091040260200160405190810160405280939291908181526020018383808284376000920191909152509295949360208101935035915050600160201b8111156102bd57600080fd5b8201836020820111156102cf57600080fd5b803590602001918460018302840111600160201b831117156102f057600080fd5b91908080601f016020809104026020016040519081016040528093929190818152602001838380828437600092019190915250929550610873945050505050565b604080519115158252519081900360200190f35b6103686004803603604081101561035b57600080fd5b508035906020013561093a565b6040518085815260200180602001846001600160a01b03166001600160a01b0316815260200180602001838103835286818151815260200191508051906020019080838360005b838110156103c75781810151838201526020016103af565b50505050905090810190601f1680156103f45780820380516001836020036101000a031916815260200191505b50838103825284518152845160209182019186019080838360005b8381101561042757818101518382015260200161040f565b50505050905090810190601f1680156104545780820380516001836020036101000a031916815260200191505b50965050505050505060405180910390f35b6100ab610a9f565b6104916004803603604081101561048457600080fd5b5080359060200135610aa5565b604051808060200180602001846001600160a01b03166001600160a01b03168152602001838103835286818151815260200191508051906020019080838360005b838110156104ea5781810151838201526020016104d2565b50505050905090810190601f1680156105175780820380516001836020036101000a031916815260200191505b50838103825285518152855160209182019187019080838360005b8381101561054a578181015183820152602001610532565b50505050905090810190601f1680156105775780820380516001836020036101000a031916815260200191505b509550505050505060405180910390f35b6101f76004803603604081101561059e57600080fd5b810190602081018135600160201b8111156105b857600080fd5b8201836020820111156105ca57600080fd5b803590602001918460018302840111600160201b831117156105eb57600080fd5b91908080601f016020809104026020016040519081016040528093929190818152602001838380828437600092019190915250929550505090356001600160a01b03169150610c0e9050565b61065a6004803603604081101561064d57600080fd5b5080359060200135610dd4565b6040518084815260200180602001836001600160a01b03166001600160a01b03168152602001828103825284818151815260200191508051906020019080838360005b838110156106b557818101518382015260200161069d565b50505050905090810190601f1680156106e25780820380516001836020036101000a031916815260200191505b5094505050505060405180910390f35b6101f7610e62565b60015481565b600080546001019055610711610ee8565b60405180608001604052806000548152602001858152602001846001600160a01b031681526020018381525090507f84e46a5724a02038c94e8cd77f98803e7f2fa0998f768589e77ad9f578dd995e6000548585856040518085815260200180602001846001600160a01b03166001600160a01b0316815260200180602001838103835286818151815260200191508051906020019080838360005b838110156107c55781810151838201526020016107ad565b50505050905090810190601f1680156107f25780820380516001836020036101000a031916815260200191505b50838103825284518152845160209182019186019080838360005b8381101561082557818101518382015260200161080d565b50505050905090810190601f1680156108525780820380516001836020036101000a031916815260200191505b50965050505050505060405180910390a150505050565b6000194301405b90565b600080546001018155610884610ee8565b5060408051608081018252600080548252602080830187815233848601526060840187905288835260028252938220805460018181018084559285529383902085516004909202019081559451805194959194869492936108e9938501920190610f19565b5060408201516002820180546001600160a01b0319166001600160a01b039092169190911790556060820151805161092b916003840191602090910190610f19565b50600198975050505050505050565b6002602052816000526040600020818154811061095357fe5b60009182526020918290206004919091020180546001808301805460408051600294831615610100026000190190921693909304601f810187900487028201870190935282815292965092945090928301828280156109f35780601f106109c8576101008083540402835291602001916109f3565b820191906000526020600020905b8154815290600101906020018083116109d657829003601f168201915b505050506002838101546003850180546040805160206101006001851615026000190190931695909504601f810183900483028601830190915280855295966001600160a01b0390931695929450909190830182828015610a955780601f10610a6a57610100808354040283529160200191610a95565b820191906000526020600020905b815481529060010190602001808311610a7857829003601f168201915b5050505050905084565b60005481565b60046020528160005260406000208181548110610abe57fe5b60009182526020918290206003919091020180546040805160026001841615610100026000190190931692909204601f810185900485028301850190915280825291945092508391830182828015610b575780601f10610b2c57610100808354040283529160200191610b57565b820191906000526020600020905b815481529060010190602001808311610b3a57829003601f168201915b505050505090806001018054600181600116156101000203166002900480601f016020809104026020016040519081016040528092919081815260200182805460018160011615610100020316600290048015610bf55780601f10610bca57610100808354040283529160200191610bf5565b820191906000526020600020905b815481529060010190602001808311610bd857829003601f168201915b505050600290930154919250506001600160a01b031683565b6001805481019055610c1e610f97565b506040805160608101825260018054825260208083018681526001600160a01b0386169484019490945260038082527fa15bc60c955c405d20d9149c709e2460f1c2d9a497496a7f46004d1772c3054c80549384018082556000919091528451939091027f2c644dcf44e265ba93879b2da89e1b16ab48fc5eb8e31bc16b0612d6da8463f181019384559451805194959194869493610ce1937f2c644dcf44e265ba93879b2da89e1b16ab48fc5eb8e31bc16b0612d6da8463f201920190610f19565b5060408201518160020160006101000a8154816001600160a01b0302191690836001600160a01b031602179055505050507f514af2a82370fd69109ef67206736f3880c4f9c15d2f2acd798b782ae37fdc5a60015484846040518084815260200180602001836001600160a01b03166001600160a01b03168152602001828103825284818151815260200191508051906020019080838360005b83811015610d93578181015183820152602001610d7b565b50505050905090810190601f168015610dc05780820380516001836020036101000a031916815260200191505b5094505050505060405180910390a1505050565b60036020528160005260406000208181548110610ded57fe5b60009182526020918290206003919091020180546001808301805460408051600294831615610100026000190190921693909304601f81018790048702820187019093528281529296509294509092830182828015610bf55780601f10610bca57610100808354040283529160200191610bf5565b610e6a610869565b60058190556040805133606081901b602080840191909152426034840152605480840195909552835180840390950185526074830180855285519590910194909420600681905593526094810192909252517f86d5fe05f5fdd717661032b622af0e2feea058dce13146aa1aebc415b72c72af9181900360b40190a1565b6040518060800160405280600081526020016060815260200160006001600160a01b03168152602001606081525090565b828054600181600116156101000203166002900490600052602060002090601f016020900481019282601f10610f5a57805160ff1916838001178555610f87565b82800160010185558215610f87579182015b82811115610f87578251825591602001919060010190610f6c565b50610f93929150610fc1565b5090565b6040518060600160405280600081526020016060815260200160006001600160a01b031681525090565b61087091905b80821115610f935760008155600101610fc756fea165627a7a72305820041abb17343321b487734ce687081a2b84f167891f7e6d49bc9767f3fa44844c0029",
  "source": "pragma solidity ^0.5.0;\r\n\r\ncontract BlockAuth{\r\n    uint public deviceCount = 0;\r\n    uint public userCount = 0;\r\n\r\n    mapping(bytes32 => Device[]) public devices;\r\n    mapping(uint => User[]) public users;\r\n\r\n    struct Device {\r\n        uint id;\r\n        string name;\r\n        address account;\r\n        string ip;\r\n    }\r\n\r\n    struct User {\r\n        uint id;\r\n        string name;\r\n        address account;\r\n    }\r\n\r\n    function addDevice(string memory name, address account,string memory ip) public {\r\n        deviceCount ++;\r\n        Device memory device = Device(deviceCount, name, account,ip);\r\n        //devices[1].push(device);\r\n        emit DeviceAdded(deviceCount, name,account,ip);\r\n    }\r\n\r\n    constructor() public {\r\n        addUser(\"Admin User\",msg.sender);\r\n    }\r\n\r\n    event DeviceAdded(uint id,string name,address account,string ip);\r\n\r\n    function addUser(string memory name, address account) public{\r\n        userCount ++;\r\n        User memory user = User(userCount, name, account);\r\n        users[1].push(user);\r\n        emit UserAdded(userCount, name, account);\r\n    }\r\n\r\n    mapping (bytes32=>Document[]) public documents;\r\n\r\n    struct Document{\r\n        string name;\r\n        string description;\r\n        address sender;\r\n    }\r\n\r\n    function StoreDocument(bytes32 key, string memory name, string memory description) public returns (bool success) {\r\n       deviceCount ++;\r\n       Device memory dev = Device(deviceCount, name, msg.sender, description);\r\n       devices[key].push(dev);\r\n       return true;\r\n    }\r\n\r\n    event UserAdded(uint id,string name,address account);\r\n\r\n\tevent DistributeToken(address sender, bytes32 token);\r\n    bytes32 random_number;\r\n    bytes32 token;\r\n\r\n    // min and max are not needed now, some future work idea\r\n    function rand() public view returns (bytes32) {\r\n        uint256 lastBlockNumber = block.number - 1;\r\n        bytes32 hashVal = bytes32(blockhash(lastBlockNumber));\r\n        return bytes32(hashVal);\r\n    }\r\n\r\n    function login_admin() public { \r\n\t\trandom_number = rand();\r\n        token = keccak256(abi.encodePacked(msg.sender, now, random_number));\r\n        emit DistributeToken(msg.sender, token);\r\n    }\r\n}",
  "sourcePath": "C:/Users/Mkay_DaSextja/Documents/BScHons - UJ/Project/Code/block-auth-contract/contracts/BlockAuth.sol",
  "compiler": {
    "name": "solc",
    "version": "0.5.8+commit.23d335f2.Emscripten.clang"
  },
  "schemaVersion": "3.0.11",
  "updatedAt": "2019-08-13T01:43:14.302Z",
  "devdoc": {
    "methods": {}
  },
  "userdoc": {
    "methods": {}
  }
}