{
  "contractName": "BlockAuth",
  "abi": [
    {
      "constant": true,
      "inputs": [],
      "name": "userCount",
      "outputs": [
        {
          "name": "",
          "type": "uint256"
        }
      ],
      "payable": false,
      "stateMutability": "view",
      "type": "function"
    },
    {
      "constant": true,
      "inputs": [],
      "name": "deviceCount",
      "outputs": [
        {
          "name": "",
          "type": "uint256"
        }
      ],
      "payable": false,
      "stateMutability": "view",
      "type": "function"
    },
    {
      "constant": true,
      "inputs": [
        {
          "name": "",
          "type": "uint256"
        },
        {
          "name": "",
          "type": "uint256"
        }
      ],
      "name": "devices",
      "outputs": [
        {
          "name": "name",
          "type": "string"
        },
        {
          "name": "ip",
          "type": "string"
        },
        {
          "name": "account",
          "type": "address"
        }
      ],
      "payable": false,
      "stateMutability": "view",
      "type": "function"
    },
    {
      "constant": true,
      "inputs": [
        {
          "name": "",
          "type": "uint256"
        },
        {
          "name": "",
          "type": "uint256"
        }
      ],
      "name": "users",
      "outputs": [
        {
          "name": "username",
          "type": "string"
        },
        {
          "name": "account",
          "type": "address"
        },
        {
          "name": "password",
          "type": "string"
        },
        {
          "name": "role",
          "type": "string"
        }
      ],
      "payable": false,
      "stateMutability": "view",
      "type": "function"
    },
    {
      "inputs": [],
      "payable": false,
      "stateMutability": "nonpayable",
      "type": "constructor"
    },
    {
      "anonymous": false,
      "inputs": [
        {
          "indexed": false,
          "name": "id",
          "type": "uint256"
        },
        {
          "indexed": false,
          "name": "name",
          "type": "string"
        },
        {
          "indexed": false,
          "name": "account",
          "type": "address"
        },
        {
          "indexed": false,
          "name": "ip",
          "type": "string"
        }
      ],
      "name": "DeviceAdded",
      "type": "event"
    },
    {
      "anonymous": false,
      "inputs": [
        {
          "indexed": false,
          "name": "id",
          "type": "uint256"
        },
        {
          "indexed": false,
          "name": "name",
          "type": "string"
        },
        {
          "indexed": false,
          "name": "account",
          "type": "address"
        }
      ],
      "name": "UserAdded",
      "type": "event"
    },
    {
      "anonymous": false,
      "inputs": [
        {
          "indexed": false,
          "name": "user",
          "type": "address"
        },
        {
          "indexed": false,
          "name": "device",
          "type": "address"
        },
        {
          "indexed": false,
          "name": "token",
          "type": "bytes32"
        }
      ],
      "name": "DistributeToken",
      "type": "event"
    },
    {
      "constant": false,
      "inputs": [
        {
          "name": "name",
          "type": "string"
        },
        {
          "name": "ip",
          "type": "string"
        },
        {
          "name": "account",
          "type": "address"
        }
      ],
      "name": "addDevice",
      "outputs": [],
      "payable": false,
      "stateMutability": "nonpayable",
      "type": "function"
    },
    {
      "constant": false,
      "inputs": [
        {
          "name": "username",
          "type": "string"
        },
        {
          "name": "account",
          "type": "address"
        },
        {
          "name": "password",
          "type": "string"
        },
        {
          "name": "role",
          "type": "string"
        }
      ],
      "name": "addUser",
      "outputs": [],
      "payable": false,
      "stateMutability": "nonpayable",
      "type": "function"
    },
    {
      "constant": true,
      "inputs": [],
      "name": "rand",
      "outputs": [
        {
          "name": "",
          "type": "bytes32"
        }
      ],
      "payable": false,
      "stateMutability": "view",
      "type": "function"
    },
    {
      "constant": false,
      "inputs": [
        {
          "name": "device",
          "type": "address"
        }
      ],
      "name": "login_admin",
      "outputs": [],
      "payable": false,
      "stateMutability": "nonpayable",
      "type": "function"
    }
  ],
  "bytecode": "0x60806040526000805560006001553480156200001a57600080fd5b50620000ce6040518060400160405280600581526020017f61646d696e000000000000000000000000000000000000000000000000000000815250336040518060400160405280600881526020017f70617373776f72640000000000000000000000000000000000000000000000008152506040518060400160405280600581526020017f61646d696e000000000000000000000000000000000000000000000000000000815250620000d460201b60201c565b6200038a565b6001805481019055620000e6620002b4565b50604080516080810182528581526001600160a01b03851660208083019190915291810184905260608101839052600382527fa15bc60c955c405d20d9149c709e2460f1c2d9a497496a7f46004d1772c3054c8054600181018083556000929092528251805193949293859360049093027f2c644dcf44e265ba93879b2da89e1b16ab48fc5eb8e31bc16b0612d6da8463f101926200018a928492910190620002e5565b506020828101516001830180546001600160a01b0319166001600160a01b0390921691909117905560408301518051620001cb9260028501920190620002e5565b5060608201518051620001e9916003840191602090910190620002e5565b505050507f514af2a82370fd69109ef67206736f3880c4f9c15d2f2acd798b782ae37fdc5a60005486866040518084815260200180602001836001600160a01b03166001600160a01b03168152602001828103825284818151815260200191508051906020019080838360005b838110156200027057818101518382015260200162000256565b50505050905090810190601f1680156200029e5780820380516001836020036101000a031916815260200191505b5094505050505060405180910390a15050505050565b60405180608001604052806060815260200160006001600160a01b0316815260200160608152602001606081525090565b828054600181600116156101000203166002900490600052602060002090601f016020900481019282601f106200032857805160ff191683800117855562000358565b8280016001018555821562000358579182015b82811115620003585782518255916020019190600101906200033b565b50620003669291506200036a565b5090565b6200038791905b8082111562000366576000815560010162000371565b90565b610f85806200039a6000396000f3fe608060405234801561001057600080fd5b50600436106100885760003560e01c806399b718291161005b57806399b7182914610278578063cd600ba914610392578063d639e24014610512578063ff4104d11461064657610088565b806307973ccf1461008d5780631e888b16146100a75780633b3dca7614610268578063535bca9a14610270575b600080fd5b61009561066c565b60408051918252519081900360200190f35b610266600480360360808110156100bd57600080fd5b810190602081018135600160201b8111156100d757600080fd5b8201836020820111156100e957600080fd5b803590602001918460018302840111600160201b8311171561010a57600080fd5b91908080601f01602080910402602001604051908101604052809392919081815260200183838082843760009201919091525092956001600160a01b03853516959094909350604081019250602001359050600160201b81111561016d57600080fd5b82018360208201111561017f57600080fd5b803590602001918460018302840111600160201b831117156101a057600080fd5b91908080601f0160208091040260200160405190810160405280939291908181526020018383808284376000920191909152509295949360208101935035915050600160201b8111156101f257600080fd5b82018360208201111561020457600080fd5b803590602001918460018302840111600160201b8311171561022557600080fd5b91908080601f016020809104026020016040519081016040528093929190818152602001838380828437600092019190915250929550610672945050505050565b005b610095610847565b610095610851565b61029b6004803603604081101561028e57600080fd5b5080359060200135610857565b604051808060200180602001846001600160a01b03166001600160a01b03168152602001838103835286818151815260200191508051906020019080838360005b838110156102f45781810151838201526020016102dc565b50505050905090810190601f1680156103215780820380516001836020036101000a031916815260200191505b50838103825285518152855160209182019187019080838360005b8381101561035457818101518382015260200161033c565b50505050905090810190601f1680156103815780820380516001836020036101000a031916815260200191505b509550505050505060405180910390f35b6103b5600480360360408110156103a857600080fd5b50803590602001356109c0565b6040518080602001856001600160a01b03166001600160a01b031681526020018060200180602001848103845288818151815260200191508051906020019080838360005b838110156104125781810151838201526020016103fa565b50505050905090810190601f16801561043f5780820380516001836020036101000a031916815260200191505b50848103835286518152865160209182019188019080838360005b8381101561047257818101518382015260200161045a565b50505050905090810190601f16801561049f5780820380516001836020036101000a031916815260200191505b50848103825285518152855160209182019187019080838360005b838110156104d25781810151838201526020016104ba565b50505050905090810190601f1680156104ff5780820380516001836020036101000a031916815260200191505b5097505050505050505060405180910390f35b6102666004803603606081101561052857600080fd5b810190602081018135600160201b81111561054257600080fd5b82018360208201111561055457600080fd5b803590602001918460018302840111600160201b8311171561057557600080fd5b91908080601f0160208091040260200160405190810160405280939291908181526020018383808284376000920191909152509295949360208101935035915050600160201b8111156105c757600080fd5b8201836020820111156105d957600080fd5b803590602001918460018302840111600160201b831117156105fa57600080fd5b91908080601f016020809104026020016040519081016040528093929190818152602001838380828437600092019190915250929550505090356001600160a01b03169150610bb09050565b6102666004803603602081101561065c57600080fd5b50356001600160a01b0316610dd0565b60015481565b6001805481019055610682610e66565b50604080516080810182528581526001600160a01b03851660208083019190915291810184905260608101839052600382527fa15bc60c955c405d20d9149c709e2460f1c2d9a497496a7f46004d1772c3054c8054600181018083556000929092528251805193949293859360049093027f2c644dcf44e265ba93879b2da89e1b16ab48fc5eb8e31bc16b0612d6da8463f10192610724928492910190610e97565b506020828101516001830180546001600160a01b0319166001600160a01b03909216919091179055604083015180516107639260028501920190610e97565b506060820151805161077f916003840191602090910190610e97565b505050507f514af2a82370fd69109ef67206736f3880c4f9c15d2f2acd798b782ae37fdc5a60005486866040518084815260200180602001836001600160a01b03166001600160a01b03168152602001828103825284818151815260200191508051906020019080838360005b838110156108045781810151838201526020016107ec565b50505050905090810190601f1680156108315780820380516001836020036101000a031916815260200191505b5094505050505060405180910390a15050505050565b6000194301405b90565b60005481565b6002602052816000526040600020818154811061087057fe5b60009182526020918290206003919091020180546040805160026001841615610100026000190190931692909204601f8101859004850283018501909152808252919450925083918301828280156109095780601f106108de57610100808354040283529160200191610909565b820191906000526020600020905b8154815290600101906020018083116108ec57829003601f168201915b505050505090806001018054600181600116156101000203166002900480601f0160208091040260200160405190810160405280929190818152602001828054600181600116156101000203166002900480156109a75780601f1061097c576101008083540402835291602001916109a7565b820191906000526020600020905b81548152906001019060200180831161098a57829003601f168201915b505050600290930154919250506001600160a01b031683565b600360205281600052604060002081815481106109d957fe5b60009182526020918290206004919091020180546040805160026001841615610100026000190190931692909204601f810185900485028301850190915280825291945092508391830182828015610a725780601f10610a4757610100808354040283529160200191610a72565b820191906000526020600020905b815481529060010190602001808311610a5557829003601f168201915b505050506001838101546002808601805460408051602061010097841615979097026000190190921693909304601f810186900486028201860190935282815295966001600160a01b03909316959294509192830182828015610b165780601f10610aeb57610100808354040283529160200191610b16565b820191906000526020600020905b815481529060010190602001808311610af957829003601f168201915b5050505060038301805460408051602060026001851615610100026000190190941693909304601f8101849004840282018401909252818152949594935090830182828015610ba65780601f10610b7b57610100808354040283529160200191610ba6565b820191906000526020600020905b815481529060010190602001808311610b8957829003601f168201915b5050505050905084565b600080546001019055610bc1610f15565b506040805160608101825284815260208082018590526001600160a01b03841692820192909252600282527fe90b7bceb6e7df5418fb78d8ee546e97c83a08bbccc01a0644d599ccd2a7c2e08054600181018083556000929092528251805193949293859360039093027f7fef4bf8f63cf9dd467136c679c02b5c17fcf6322d9562512bf5eb952cf7cc530192610c5c928492910190610e97565b506020828101518051610c759260018501920190610e97565b5060408201518160020160006101000a8154816001600160a01b0302191690836001600160a01b031602179055505050507f84e46a5724a02038c94e8cd77f98803e7f2fa0998f768589e77ad9f578dd995e6000548584866040518085815260200180602001846001600160a01b03166001600160a01b0316815260200180602001838103835286818151815260200191508051906020019080838360005b83811015610d2c578181015183820152602001610d14565b50505050905090810190601f168015610d595780820380516001836020036101000a031916815260200191505b50838103825284518152845160209182019186019080838360005b83811015610d8c578181015183820152602001610d74565b50505050905090810190601f168015610db95780820380516001836020036101000a031916815260200191505b50965050505050505060405180910390a150505050565b610dd8610847565b60048190556040805133606081901b602080840191909152426034840152605480840195909552835180840390950185526074830180855285519590910194909420600581905593526001600160a01b038416609482015260b4810192909252517f6ec35815b92f13559d84e495582482886c3a9c00d535b3ef80b43d27dfa744ea9181900360d40190a150565b60405180608001604052806060815260200160006001600160a01b0316815260200160608152602001606081525090565b828054600181600116156101000203166002900490600052602060002090601f016020900481019282601f10610ed857805160ff1916838001178555610f05565b82800160010185558215610f05579182015b82811115610f05578251825591602001919060010190610eea565b50610f11929150610f3f565b5090565b6040518060600160405280606081526020016060815260200160006001600160a01b031681525090565b61084e91905b80821115610f115760008155600101610f4556fea165627a7a72305820fa4cd78de0611aca08cd26e982b168938de19f3cdfbafcfabe24f0225a83eadf0029",
  "source": "pragma solidity ^0.5.0;\r\n\r\ncontract BlockAuth{\r\n    uint public deviceCount = 0;\r\n    uint public userCount = 0;\r\n\r\n    mapping(uint=>Device[]) public devices;\r\n    mapping(uint=>User[]) public users;\r\n\r\n    struct Device{\r\n        string name;\r\n        string ip;\r\n        address account;\r\n    }\r\n\r\n    struct User{\r\n        string username;\r\n        address account;\r\n        string password;\r\n        string role;\r\n    }\r\n\r\n\r\n    function addDevice(string memory name, string memory ip, address account) public {\r\n        deviceCount ++;\r\n        Device memory device = Device(name, ip,account);\r\n        devices[1].push(device);\r\n        emit DeviceAdded(deviceCount, name,account,ip);\r\n    }\r\n\r\n    function addUser(string memory username, address account,string memory password,string memory role) public {\r\n        userCount ++;\r\n        User memory user = User(username, account, password, role);\r\n        users[1].push(user);\r\n        emit UserAdded(deviceCount, username, account);\r\n    }\r\n\r\n    constructor() public {\r\n        addUser(\"admin\",msg.sender,\"password\",\"admin\");\r\n    }\r\n\r\n    event DeviceAdded(uint id,string name,address account,string ip);\r\n    event UserAdded(uint id,string name,address account);\r\n\r\n\tevent DistributeToken(address user,address device, bytes32 token);\r\n    bytes32 random_number;\r\n    bytes32 token;\r\n\r\n    // min and max are not needed now, some future work idea\r\n    function rand() public view returns (bytes32) {\r\n        uint256 lastBlockNumber = block.number - 1;\r\n        bytes32 hashVal = bytes32(blockhash(lastBlockNumber));\r\n        return bytes32(hashVal);\r\n    }\r\n\r\n    function login_admin(address device) public {\r\n\t\trandom_number = rand();\r\n        token = keccak256(abi.encodePacked(msg.sender, now, random_number));\r\n        emit DistributeToken(msg.sender,device, token);\r\n    }\r\n}",
  "sourcePath": "C:/Users/Mkhululi Mtshemla/Documents/BScHons Computer Science/First Semester/Project/D4 Prototype/block-auth-contract/contracts/BlockAuth.sol",
  "compiler": {
    "name": "solc",
    "version": "0.5.8+commit.23d335f2.Emscripten.clang"
  },
  "schemaVersion": "3.0.11",
  "updatedAt": "2019-10-29T20:12:50.893Z",
  "devdoc": {
    "methods": {}
  },
  "userdoc": {
    "methods": {}
  }
}