{
  "contractName": "BlockAuth",
  "abi": [
    {
      "constant": true,
      "inputs": [],
      "name": "userCount",
      "outputs": [
        {
          "name": "",
          "type": "uint256"
        }
      ],
      "payable": false,
      "stateMutability": "view",
      "type": "function"
    },
    {
      "constant": true,
      "inputs": [],
      "name": "deviceCount",
      "outputs": [
        {
          "name": "",
          "type": "uint256"
        }
      ],
      "payable": false,
      "stateMutability": "view",
      "type": "function"
    },
    {
      "constant": true,
      "inputs": [
        {
          "name": "",
          "type": "uint256"
        },
        {
          "name": "",
          "type": "uint256"
        }
      ],
      "name": "devices",
      "outputs": [
        {
          "name": "name",
          "type": "string"
        },
        {
          "name": "ip",
          "type": "string"
        },
        {
          "name": "account",
          "type": "address"
        }
      ],
      "payable": false,
      "stateMutability": "view",
      "type": "function"
    },
    {
      "constant": true,
      "inputs": [
        {
          "name": "",
          "type": "uint256"
        },
        {
          "name": "",
          "type": "uint256"
        }
      ],
      "name": "users",
      "outputs": [
        {
          "name": "username",
          "type": "string"
        },
        {
          "name": "account",
          "type": "address"
        },
        {
          "name": "password",
          "type": "string"
        }
      ],
      "payable": false,
      "stateMutability": "view",
      "type": "function"
    },
    {
      "inputs": [],
      "payable": false,
      "stateMutability": "nonpayable",
      "type": "constructor"
    },
    {
      "anonymous": false,
      "inputs": [
        {
          "indexed": false,
          "name": "id",
          "type": "uint256"
        },
        {
          "indexed": false,
          "name": "name",
          "type": "string"
        },
        {
          "indexed": false,
          "name": "account",
          "type": "address"
        },
        {
          "indexed": false,
          "name": "ip",
          "type": "string"
        }
      ],
      "name": "DeviceAdded",
      "type": "event"
    },
    {
      "anonymous": false,
      "inputs": [
        {
          "indexed": false,
          "name": "id",
          "type": "uint256"
        },
        {
          "indexed": false,
          "name": "name",
          "type": "string"
        },
        {
          "indexed": false,
          "name": "account",
          "type": "address"
        }
      ],
      "name": "UserAdded",
      "type": "event"
    },
    {
      "anonymous": false,
      "inputs": [
        {
          "indexed": false,
          "name": "user",
          "type": "address"
        },
        {
          "indexed": false,
          "name": "device",
          "type": "address"
        },
        {
          "indexed": false,
          "name": "token",
          "type": "bytes32"
        }
      ],
      "name": "DistributeToken",
      "type": "event"
    },
    {
      "constant": false,
      "inputs": [
        {
          "name": "name",
          "type": "string"
        },
        {
          "name": "ip",
          "type": "string"
        },
        {
          "name": "account",
          "type": "address"
        }
      ],
      "name": "addDevice",
      "outputs": [],
      "payable": false,
      "stateMutability": "nonpayable",
      "type": "function"
    },
    {
      "constant": false,
      "inputs": [
        {
          "name": "username",
          "type": "string"
        },
        {
          "name": "account",
          "type": "address"
        },
        {
          "name": "password",
          "type": "string"
        }
      ],
      "name": "addUser",
      "outputs": [],
      "payable": false,
      "stateMutability": "nonpayable",
      "type": "function"
    },
    {
      "constant": true,
      "inputs": [],
      "name": "rand",
      "outputs": [
        {
          "name": "",
          "type": "bytes32"
        }
      ],
      "payable": false,
      "stateMutability": "view",
      "type": "function"
    },
    {
      "constant": false,
      "inputs": [
        {
          "name": "device",
          "type": "address"
        }
      ],
      "name": "login_admin",
      "outputs": [],
      "payable": false,
      "stateMutability": "nonpayable",
      "type": "function"
    }
  ],
  "bytecode": "0x60806040526000805560006001553480156200001a57600080fd5b50620000986040518060400160405280600581526020017f41646d696e000000000000000000000000000000000000000000000000000000815250336040518060400160405280600881526020017f70617373776f72640000000000000000000000000000000000000000000000008152506200009e60201b60201c565b62000328565b6001805481019055620000b062000259565b50604080516060810182528481526001600160a01b03841660208083019190915291810183905260038083527fa15bc60c955c405d20d9149c709e2460f1c2d9a497496a7f46004d1772c3054c80546001810180835560009290925283518051949592948694929092027f2c644dcf44e265ba93879b2da89e1b16ab48fc5eb8e31bc16b0612d6da8463f101926200014e9284929091019062000283565b506020828101516001830180546001600160a01b0319166001600160a01b03909216919091179055604083015180516200018f926002850192019062000283565b505050507f514af2a82370fd69109ef67206736f3880c4f9c15d2f2acd798b782ae37fdc5a60005485856040518084815260200180602001836001600160a01b03166001600160a01b03168152602001828103825284818151815260200191508051906020019080838360005b8381101562000216578181015183820152602001620001fc565b50505050905090810190601f168015620002445780820380516001836020036101000a031916815260200191505b5094505050505060405180910390a150505050565b60405180606001604052806060815260200160006001600160a01b03168152602001606081525090565b828054600181600116156101000203166002900490600052602060002090601f016020900481019282601f10620002c657805160ff1916838001178555620002f6565b82800160010185558215620002f6579182015b82811115620002f6578251825591602001919060010190620002d9565b506200030492915062000308565b5090565b6200032591905b808211156200030457600081556001016200030f565b90565b610d9f80620003386000396000f3fe608060405234801561001057600080fd5b50600436106100885760003560e01c8063cd600ba91161005b578063cd600ba9146101d1578063d4b31731146102aa578063d639e240146103e6578063ff4104d11461051a57610088565b806307973ccf1461008d5780633b3dca76146100a7578063535bca9a146100af57806399b71829146100b7575b600080fd5b610095610540565b60408051918252519081900360200190f35b610095610546565b610095610550565b6100da600480360360408110156100cd57600080fd5b5080359060200135610556565b604051808060200180602001846001600160a01b03166001600160a01b03168152602001838103835286818151815260200191508051906020019080838360005b8381101561013357818101518382015260200161011b565b50505050905090810190601f1680156101605780820380516001836020036101000a031916815260200191505b50838103825285518152855160209182019187019080838360005b8381101561019357818101518382015260200161017b565b50505050905090810190601f1680156101c05780820380516001836020036101000a031916815260200191505b509550505050505060405180910390f35b6101f4600480360360408110156101e757600080fd5b50803590602001356106bf565b6040518080602001846001600160a01b03166001600160a01b0316815260200180602001838103835286818151815260200191508051906020019080838360005b8381101561024d578181015183820152602001610235565b50505050905090810190601f16801561027a5780820380516001836020036101000a031916815260200191505b5083810382528451815284516020918201918601908083836000831561019357818101518382015260200161017b565b6103e4600480360360608110156102c057600080fd5b810190602081018135600160201b8111156102da57600080fd5b8201836020820111156102ec57600080fd5b803590602001918460018302840111600160201b8311171561030d57600080fd5b91908080601f01602080910402602001604051908101604052809392919081815260200183838082843760009201919091525092956001600160a01b03853516959094909350604081019250602001359050600160201b81111561037057600080fd5b82018360208201111561038257600080fd5b803590602001918460018302840111600160201b831117156103a357600080fd5b91908080601f01602080910402602001604051908101604052809392919081815260200183838082843760009201919091525092955061081f945050505050565b005b6103e4600480360360608110156103fc57600080fd5b810190602081018135600160201b81111561041657600080fd5b82018360208201111561042857600080fd5b803590602001918460018302840111600160201b8311171561044957600080fd5b91908080601f0160208091040260200160405190810160405280939291908181526020018383808284376000920191909152509295949360208101935035915050600160201b81111561049b57600080fd5b8201836020820111156104ad57600080fd5b803590602001918460018302840111600160201b831117156104ce57600080fd5b91908080601f016020809104026020016040519081016040528093929190818152602001838380828437600092019190915250929550505090356001600160a01b031691506109d19050565b6103e46004803603602081101561053057600080fd5b50356001600160a01b0316610bf1565b60015481565b6000194301405b90565b60005481565b6002602052816000526040600020818154811061056f57fe5b60009182526020918290206003919091020180546040805160026001841615610100026000190190931692909204601f8101859004850283018501909152808252919450925083918301828280156106085780601f106105dd57610100808354040283529160200191610608565b820191906000526020600020905b8154815290600101906020018083116105eb57829003601f168201915b505050505090806001018054600181600116156101000203166002900480601f0160208091040260200160405190810160405280929190818152602001828054600181600116156101000203166002900480156106a65780601f1061067b576101008083540402835291602001916106a6565b820191906000526020600020905b81548152906001019060200180831161068957829003601f168201915b505050600290930154919250506001600160a01b031683565b600360205281600052604060002081815481106106d857fe5b60009182526020918290206003919091020180546040805160026001841615610100026000190190931692909204601f8101859004850283018501909152808252919450925083918301828280156107715780601f1061074657610100808354040283529160200191610771565b820191906000526020600020905b81548152906001019060200180831161075457829003601f168201915b505050506001838101546002808601805460408051602061010097841615979097026000190190921693909304601f810186900486028201860190935282815295966001600160a01b039093169592945091928301828280156108155780601f106107ea57610100808354040283529160200191610815565b820191906000526020600020905b8154815290600101906020018083116107f857829003601f168201915b5050505050905083565b600180548101905561082f610c87565b50604080516060810182528481526001600160a01b03841660208083019190915291810183905260038083527fa15bc60c955c405d20d9149c709e2460f1c2d9a497496a7f46004d1772c3054c80546001810180835560009290925283518051949592948694929092027f2c644dcf44e265ba93879b2da89e1b16ab48fc5eb8e31bc16b0612d6da8463f101926108cb92849290910190610cb1565b506020828101516001830180546001600160a01b0319166001600160a01b039092169190911790556040830151805161090a9260028501920190610cb1565b505050507f514af2a82370fd69109ef67206736f3880c4f9c15d2f2acd798b782ae37fdc5a60005485856040518084815260200180602001836001600160a01b03166001600160a01b03168152602001828103825284818151815260200191508051906020019080838360005b8381101561098f578181015183820152602001610977565b50505050905090810190601f1680156109bc5780820380516001836020036101000a031916815260200191505b5094505050505060405180910390a150505050565b6000805460010190556109e2610d2f565b506040805160608101825284815260208082018590526001600160a01b03841692820192909252600282527fe90b7bceb6e7df5418fb78d8ee546e97c83a08bbccc01a0644d599ccd2a7c2e08054600181018083556000929092528251805193949293859360039093027f7fef4bf8f63cf9dd467136c679c02b5c17fcf6322d9562512bf5eb952cf7cc530192610a7d928492910190610cb1565b506020828101518051610a969260018501920190610cb1565b5060408201518160020160006101000a8154816001600160a01b0302191690836001600160a01b031602179055505050507f84e46a5724a02038c94e8cd77f98803e7f2fa0998f768589e77ad9f578dd995e6000548584866040518085815260200180602001846001600160a01b03166001600160a01b0316815260200180602001838103835286818151815260200191508051906020019080838360005b83811015610b4d578181015183820152602001610b35565b50505050905090810190601f168015610b7a5780820380516001836020036101000a031916815260200191505b50838103825284518152845160209182019186019080838360005b83811015610bad578181015183820152602001610b95565b50505050905090810190601f168015610bda5780820380516001836020036101000a031916815260200191505b50965050505050505060405180910390a150505050565b610bf9610546565b60048190556040805133606081901b602080840191909152426034840152605480840195909552835180840390950185526074830180855285519590910194909420600581905593526001600160a01b038416609482015260b4810192909252517f6ec35815b92f13559d84e495582482886c3a9c00d535b3ef80b43d27dfa744ea9181900360d40190a150565b60405180606001604052806060815260200160006001600160a01b03168152602001606081525090565b828054600181600116156101000203166002900490600052602060002090601f016020900481019282601f10610cf257805160ff1916838001178555610d1f565b82800160010185558215610d1f579182015b82811115610d1f578251825591602001919060010190610d04565b50610d2b929150610d59565b5090565b6040518060600160405280606081526020016060815260200160006001600160a01b031681525090565b61054d91905b80821115610d2b5760008155600101610d5f56fea165627a7a72305820b28bff2279bbd9be4c96424d20ba8c6ceb8000caca01c3cf82a6f97ea83abd1d0029",
  "source": "pragma solidity ^0.5.0;\r\n\r\ncontract BlockAuth{\r\n    uint public deviceCount = 0;\r\n    uint public userCount = 0;\r\n\r\n    mapping(uint=>Device[]) public devices;\r\n    mapping(uint=>User[]) public users;\r\n\r\n    struct Device{\r\n        string name;\r\n        string ip;\r\n        address account;\r\n    }\r\n\r\n    struct User{\r\n        string username;\r\n        address account;\r\n        string password;\r\n    }\r\n\r\n    function addDevice(string memory name, string memory ip, address account) public {\r\n        deviceCount ++;\r\n        Device memory device = Device(name, ip,account);\r\n        devices[1].push(device);\r\n        emit DeviceAdded(deviceCount, name,account,ip);\r\n    }\r\n\r\n    function addUser(string memory username, address account,string memory password) public {\r\n        userCount ++;\r\n        User memory user = User(username, account, password);\r\n        users[1].push(user);\r\n        emit UserAdded(deviceCount, username,account);\r\n    }\r\n\r\n    constructor() public {\r\n        addUser(\"Admin\",msg.sender,\"password\");\r\n    }\r\n\r\n    event DeviceAdded(uint id,string name,address account,string ip);\r\n    event UserAdded(uint id,string name,address account);\r\n\r\n\tevent DistributeToken(address user,address device, bytes32 token);\r\n    bytes32 random_number;\r\n    bytes32 token;\r\n\r\n    // min and max are not needed now, some future work idea\r\n    function rand() public view returns (bytes32) {\r\n        uint256 lastBlockNumber = block.number - 1;\r\n        bytes32 hashVal = bytes32(blockhash(lastBlockNumber));\r\n        return bytes32(hashVal);\r\n    }\r\n\r\n    function login_admin(address device) public {\r\n\t\trandom_number = rand();\r\n        token = keccak256(abi.encodePacked(msg.sender, now, random_number));\r\n        emit DistributeToken(msg.sender,device, token);\r\n    }\r\n}",
  "sourcePath": "C:/Users/Mkay_DaSextja/Documents/BScHons - UJ/Project/Code/block-auth-contract/contracts/BlockAuth.sol",
  "compiler": {
    "name": "solc",
    "version": "0.5.8+commit.23d335f2.Emscripten.clang"
  },
  "schemaVersion": "3.0.11",
  "updatedAt": "2019-08-23T17:46:59.763Z",
  "devdoc": {
    "methods": {}
  },
  "userdoc": {
    "methods": {}
  }
}