{
  "contractName": "DeviceAuth",
  "abi": [
    {
      "constant": true,
      "inputs": [
        {
          "name": "",
          "type": "uint256"
        }
      ],
      "name": "devices",
      "outputs": [
        {
          "name": "id",
          "type": "uint256"
        },
        {
          "name": "name",
          "type": "string"
        },
        {
          "name": "ip",
          "type": "string"
        },
        {
          "name": "status",
          "type": "string"
        },
        {
          "name": "role",
          "type": "string"
        }
      ],
      "payable": false,
      "stateMutability": "view",
      "type": "function"
    },
    {
      "constant": true,
      "inputs": [],
      "name": "deviceCount",
      "outputs": [
        {
          "name": "",
          "type": "uint256"
        }
      ],
      "payable": false,
      "stateMutability": "view",
      "type": "function"
    },
    {
      "inputs": [],
      "payable": false,
      "stateMutability": "nonpayable",
      "type": "constructor"
    },
    {
      "anonymous": false,
      "inputs": [
        {
          "indexed": false,
          "name": "id",
          "type": "uint256"
        },
        {
          "indexed": false,
          "name": "name",
          "type": "string"
        },
        {
          "indexed": false,
          "name": "ip",
          "type": "string"
        },
        {
          "indexed": false,
          "name": "role",
          "type": "string"
        }
      ],
      "name": "DeviceAdded",
      "type": "event"
    },
    {
      "anonymous": false,
      "inputs": [
        {
          "indexed": false,
          "name": "id",
          "type": "uint256"
        },
        {
          "indexed": false,
          "name": "name",
          "type": "string"
        },
        {
          "indexed": false,
          "name": "ip",
          "type": "string"
        },
        {
          "indexed": false,
          "name": "role",
          "type": "string"
        }
      ],
      "name": "DeviceUpdated",
      "type": "event"
    },
    {
      "anonymous": false,
      "inputs": [
        {
          "indexed": false,
          "name": "user",
          "type": "address"
        },
        {
          "indexed": false,
          "name": "ip",
          "type": "string"
        },
        {
          "indexed": false,
          "name": "token",
          "type": "bytes32"
        },
        {
          "indexed": false,
          "name": "role",
          "type": "string"
        }
      ],
      "name": "DistributeToken",
      "type": "event"
    },
    {
      "constant": false,
      "inputs": [
        {
          "name": "name",
          "type": "string"
        },
        {
          "name": "ip",
          "type": "string"
        },
        {
          "name": "role",
          "type": "string"
        }
      ],
      "name": "addDevice",
      "outputs": [],
      "payable": false,
      "stateMutability": "nonpayable",
      "type": "function"
    },
    {
      "constant": false,
      "inputs": [
        {
          "name": "_id",
          "type": "uint256"
        },
        {
          "name": "name",
          "type": "string"
        },
        {
          "name": "ip",
          "type": "string"
        },
        {
          "name": "role",
          "type": "string"
        }
      ],
      "name": "updateDevice",
      "outputs": [],
      "payable": false,
      "stateMutability": "nonpayable",
      "type": "function"
    },
    {
      "constant": true,
      "inputs": [],
      "name": "rand",
      "outputs": [
        {
          "name": "",
          "type": "bytes32"
        }
      ],
      "payable": false,
      "stateMutability": "view",
      "type": "function"
    },
    {
      "constant": false,
      "inputs": [
        {
          "name": "ip",
          "type": "string"
        },
        {
          "name": "role",
          "type": "string"
        }
      ],
      "name": "login_admin",
      "outputs": [],
      "payable": false,
      "stateMutability": "nonpayable",
      "type": "function"
    }
  ],
  "bytecode": "0x6080604052600080553480156200001557600080fd5b50620000c86040518060400160405280600681526020017f6c696768747300000000000000000000000000000000000000000000000000008152506040518060400160405280601281526020017f3139322e3136382e382e3138363a3830383100000000000000000000000000008152506040518060400160405280600581526020017f6f776e6572000000000000000000000000000000000000000000000000000000815250620000ce60201b60201c565b620003db565b6000805460019081018083556040805160a081018252828152602080820189815282840189905283518085018552600781527f6f66666c696e6500000000000000000000000000000000000000000000000000818401526060840152608083018890529386528481529190942084518155915180519293620001599390850192919091019062000336565b50604082015180516200017791600284019160209091019062000336565b50606082015180516200019591600384019160209091019062000336565b5060808201518051620001b391600484019160209091019062000336565b509050507f7b32515d7a7ff9a2b89bc050e59175a476de670bb7a3925f5232d6fa94b11b6e60005484848460405180858152602001806020018060200180602001848103845287818151815260200191508051906020019080838360005b838110156200022b57818101518382015260200162000211565b50505050905090810190601f168015620002595780820380516001836020036101000a031916815260200191505b50848103835286518152865160209182019188019080838360005b838110156200028e57818101518382015260200162000274565b50505050905090810190601f168015620002bc5780820380516001836020036101000a031916815260200191505b50848103825285518152855160209182019187019080838360005b83811015620002f1578181015183820152602001620002d7565b50505050905090810190601f1680156200031f5780820380516001836020036101000a031916815260200191505b5097505050505050505060405180910390a1505050565b828054600181600116156101000203166002900490600052602060002090601f016020900481019282601f106200037957805160ff1916838001178555620003a9565b82800160010185558215620003a9579182015b82811115620003a95782518255916020019190600101906200038c565b50620003b7929150620003bb565b5090565b620003d891905b80821115620003b75760008155600101620003c2565b90565b61127b80620003eb6000396000f3fe608060405234801561001057600080fd5b50600436106100625760003560e01c8063028197501461006757806310ff8e311461021e5780633449fc60146103ec5780633b3dca761461059a578063535bca9a146105b4578063a6f73fa3146105bc575b600080fd5b61021c6004803603608081101561007d57600080fd5b81359190810190604081016020820135600160201b81111561009e57600080fd5b8201836020820111156100b057600080fd5b803590602001918460018302840111600160201b831117156100d157600080fd5b91908080601f0160208091040260200160405190810160405280939291908181526020018383808284376000920191909152509295949360208101935035915050600160201b81111561012357600080fd5b82018360208201111561013557600080fd5b803590602001918460018302840111600160201b8311171561015657600080fd5b91908080601f0160208091040260200160405190810160405280939291908181526020018383808284376000920191909152509295949360208101935035915050600160201b8111156101a857600080fd5b8201836020820111156101ba57600080fd5b803590602001918460018302840111600160201b831117156101db57600080fd5b91908080601f0160208091040260200160405190810160405280939291908181526020018383808284376000920191909152509295506106e5945050505050565b005b61023b6004803603602081101561023457600080fd5b5035610b77565b6040518086815260200180602001806020018060200180602001858103855289818151815260200191508051906020019080838360005b8381101561028a578181015183820152602001610272565b50505050905090810190601f1680156102b75780820380516001836020036101000a031916815260200191505b5085810384528851815288516020918201918a019080838360005b838110156102ea5781810151838201526020016102d2565b50505050905090810190601f1680156103175780820380516001836020036101000a031916815260200191505b50858103835287518152875160209182019189019080838360005b8381101561034a578181015183820152602001610332565b50505050905090810190601f1680156103775780820380516001836020036101000a031916815260200191505b50858103825286518152865160209182019188019080838360005b838110156103aa578181015183820152602001610392565b50505050905090810190601f1680156103d75780820380516001836020036101000a031916815260200191505b50995050505050505050505060405180910390f35b61021c6004803603606081101561040257600080fd5b810190602081018135600160201b81111561041c57600080fd5b82018360208201111561042e57600080fd5b803590602001918460018302840111600160201b8311171561044f57600080fd5b91908080601f0160208091040260200160405190810160405280939291908181526020018383808284376000920191909152509295949360208101935035915050600160201b8111156104a157600080fd5b8201836020820111156104b357600080fd5b803590602001918460018302840111600160201b831117156104d457600080fd5b91908080601f0160208091040260200160405190810160405280939291908181526020018383808284376000920191909152509295949360208101935035915050600160201b81111561052657600080fd5b82018360208201111561053857600080fd5b803590602001918460018302840111600160201b8311171561055957600080fd5b91908080601f016020809104026020016040519081016040528093929190818152602001838380828437600092019190915250929550610dcf945050505050565b6105a2611013565b60408051918252519081900360200190f35b6105a261101d565b61021c600480360360408110156105d257600080fd5b810190602081018135600160201b8111156105ec57600080fd5b8201836020820111156105fe57600080fd5b803590602001918460018302840111600160201b8311171561061f57600080fd5b91908080601f0160208091040260200160405190810160405280939291908181526020018383808284376000920191909152509295949360208101935035915050600160201b81111561067157600080fd5b82018360208201111561068357600080fd5b803590602001918460018302840111600160201b831117156106a457600080fd5b91908080601f016020809104026020016040519081016040528093929190818152602001838380828437600092019190915250929550611023945050505050565b6106ed611188565b600085815260016020818152604092839020835160a0810185528154815281840180548651600296821615610100026000190190911695909504601f810185900485028601850190965285855290949193858401939092908301828280156107965780601f1061076b57610100808354040283529160200191610796565b820191906000526020600020905b81548152906001019060200180831161077957829003601f168201915b5050509183525050600282810180546040805160206001841615610100026000190190931694909404601f810183900483028501830190915280845293810193908301828280156108285780601f106107fd57610100808354040283529160200191610828565b820191906000526020600020905b81548152906001019060200180831161080b57829003601f168201915b505050918352505060038201805460408051602060026001851615610100026000190190941693909304601f81018490048402820184019092528181529382019392918301828280156108bc5780601f10610891576101008083540402835291602001916108bc565b820191906000526020600020905b81548152906001019060200180831161089f57829003601f168201915b505050918352505060048201805460408051602060026001851615610100026000190190941693909304601f81018490048402820184019092528181529382019392918301828280156109505780601f1061092557610100808354040283529160200191610950565b820191906000526020600020905b81548152906001019060200180831161093357829003601f168201915b5050509190925250505060208082018681526040808401879052608084018690526000898152600180855291902084518155915180519495508594929361099d93928501929101906111b7565b50604082015180516109b99160028401916020909101906111b7565b50606082015180516109d59160038401916020909101906111b7565b50608082015180516109f19160048401916020909101906111b7565b509050507f60b49f98faa0e832053307167f94170c6e0cd321eef849317eed8094f25432168582602001518360400151846080015160405180858152602001806020018060200180602001848103845287818151815260200191508051906020019080838360005b83811015610a71578181015183820152602001610a59565b50505050905090810190601f168015610a9e5780820380516001836020036101000a031916815260200191505b50848103835286518152865160209182019188019080838360005b83811015610ad1578181015183820152602001610ab9565b50505050905090810190601f168015610afe5780820380516001836020036101000a031916815260200191505b50848103825285518152855160209182019187019080838360005b83811015610b31578181015183820152602001610b19565b50505050905090810190601f168015610b5e5780820380516001836020036101000a031916815260200191505b5097505050505050505060405180910390a15050505050565b600160208181526000928352604092839020805481840180548651600296821615610100026000190190911695909504601f81018590048502860185019096528585529094919392909190830182828015610c135780601f10610be857610100808354040283529160200191610c13565b820191906000526020600020905b815481529060010190602001808311610bf657829003601f168201915b50505060028085018054604080516020601f6000196101006001871615020190941695909504928301859004850281018501909152818152959695945090925090830182828015610ca55780601f10610c7a57610100808354040283529160200191610ca5565b820191906000526020600020905b815481529060010190602001808311610c8857829003601f168201915b5050505060038301805460408051602060026001851615610100026000190190941693909304601f8101849004840282018401909252818152949594935090830182828015610d355780601f10610d0a57610100808354040283529160200191610d35565b820191906000526020600020905b815481529060010190602001808311610d1857829003601f168201915b5050505060048301805460408051602060026001851615610100026000190190941693909304601f8101849004840282018401909252818152949594935090830182828015610dc55780601f10610d9a57610100808354040283529160200191610dc5565b820191906000526020600020905b815481529060010190602001808311610da857829003601f168201915b5050505050905085565b6000805460019081018083556040805160a08101825282815260208082018981528284018990528351808501855260078152600160c81b666f66666c696e6502818401526060840152608083018890529386528481529190942084518155915180519293610e45939085019291909101906111b7565b5060408201518051610e619160028401916020909101906111b7565b5060608201518051610e7d9160038401916020909101906111b7565b5060808201518051610e999160048401916020909101906111b7565b509050507f7b32515d7a7ff9a2b89bc050e59175a476de670bb7a3925f5232d6fa94b11b6e60005484848460405180858152602001806020018060200180602001848103845287818151815260200191508051906020019080838360005b83811015610f0f578181015183820152602001610ef7565b50505050905090810190601f168015610f3c5780820380516001836020036101000a031916815260200191505b50848103835286518152865160209182019188019080838360005b83811015610f6f578181015183820152602001610f57565b50505050905090810190601f168015610f9c5780820380516001836020036101000a031916815260200191505b50848103825285518152855160209182019187019080838360005b83811015610fcf578181015183820152602001610fb7565b50505050905090810190601f168015610ffc5780820380516001836020036101000a031916815260200191505b5097505050505050505060405180910390a1505050565b6000194301405b90565b60005481565b61102b611013565b60028190556040805133606081901b602080840191909152426034840152605480840195909552835180840390950185526074830193849052845194810194909420600381905581845260b48301819052608060948401908152875160f485015287517f8b8dc1fa020811d76f29a139c40b08ffc8fdb6014c4b4f3354732e0d7789933e96939589959394899491939260d4830192610114019188019080838360005b838110156110e65781810151838201526020016110ce565b50505050905090810190601f1680156111135780820380516001836020036101000a031916815260200191505b50838103825284518152845160209182019186019080838360005b8381101561114657818101518382015260200161112e565b50505050905090810190601f1680156111735780820380516001836020036101000a031916815260200191505b50965050505050505060405180910390a15050565b6040518060a0016040528060008152602001606081526020016060815260200160608152602001606081525090565b828054600181600116156101000203166002900490600052602060002090601f016020900481019282601f106111f857805160ff1916838001178555611225565b82800160010185558215611225579182015b8281111561122557825182559160200191906001019061120a565b50611231929150611235565b5090565b61101a91905b80821115611231576000815560010161123b56fea165627a7a72305820e9befc75f6bff18713955a5520995f5212311d9972ebc19d67e1f355c6f556670029",
  "source": "pragma solidity ^0.5.0;\r\n\r\ncontract DeviceAuth{\r\n    uint public deviceCount = 0;\r\n\r\n    mapping(uint=> Device) public devices;\r\n\r\n    struct Device{\r\n        uint id;\r\n        string name;\r\n        string ip;\r\n        string status;\r\n        string role;\r\n    }\r\n\r\n    function addDevice(string memory name, string memory ip, string memory role) public {\r\n        deviceCount ++;\r\n        devices[deviceCount] = Device(deviceCount, name, ip, \"offline\", role);\r\n        emit DeviceAdded(deviceCount, name, ip, role);\r\n    }\r\n\r\n    function updateDevice(uint _id,string memory name,string memory ip, string memory role) public {\r\n        Device memory _device = devices[_id];\r\n        _device.name = name;\r\n        _device.ip = ip;\r\n        _device.role = role;\r\n        devices[_id] = _device;\r\n        emit DeviceUpdated(_id, _device.name, _device.ip, _device.role);\r\n    }\r\n\r\n    constructor() public {\r\n        addDevice(\"lights\", \"192.168.8.186:8081\",\"owner\");\r\n    }\r\n\r\n    event DeviceAdded(uint id, string name, string ip, string role);\r\n    \r\n    event DeviceUpdated(uint id, string name, string ip, string role);\r\n\r\n\tevent DistributeToken(address user,string ip, bytes32 token, string role);\r\n    \r\n    bytes32 random_number;\r\n    bytes32 token;\r\n\r\n    // min and max are not needed now, some future work idea\r\n    function rand() public view returns (bytes32) {\r\n        uint256 lastBlockNumber = block.number - 1;\r\n        bytes32 hashVal = bytes32(blockhash(lastBlockNumber));\r\n        return bytes32(hashVal);\r\n    }\r\n\r\n    function login_admin(string memory ip, string memory role) public {\r\n\t\trandom_number = rand();\r\n        token = keccak256(abi.encodePacked(msg.sender, now, random_number));\r\n        emit DistributeToken(msg.sender, ip, token, role);\r\n    }\r\n}",
  "sourcePath": "C:/Users/Mkhululi Mtshemla/Documents/BScHons Computer Science/First Semester/Project/D4 Prototype/block-auth-contract/contracts/DeviceAuth.sol",
  "compiler": {
    "name": "solc",
    "version": "0.5.8+commit.23d335f2.Emscripten.clang"
  },
  "schemaVersion": "3.0.11",
  "updatedAt": "2019-11-02T11:29:45.256Z",
  "devdoc": {
    "methods": {}
  },
  "userdoc": {
    "methods": {}
  }
}