{
  "contractName": "DeviceAuth",
  "abi": [
    {
      "constant": true,
      "inputs": [],
      "name": "deviceCount",
      "outputs": [
        {
          "name": "",
          "type": "uint256"
        }
      ],
      "payable": false,
      "stateMutability": "view",
      "type": "function"
    },
    {
      "constant": true,
      "inputs": [
        {
          "name": "",
          "type": "uint256"
        },
        {
          "name": "",
          "type": "uint256"
        }
      ],
      "name": "devices",
      "outputs": [
        {
          "name": "name",
          "type": "string"
        },
        {
          "name": "ip",
          "type": "string"
        }
      ],
      "payable": false,
      "stateMutability": "view",
      "type": "function"
    },
    {
      "inputs": [],
      "payable": false,
      "stateMutability": "nonpayable",
      "type": "constructor"
    },
    {
      "anonymous": false,
      "inputs": [
        {
          "indexed": false,
          "name": "id",
          "type": "uint256"
        },
        {
          "indexed": false,
          "name": "name",
          "type": "string"
        },
        {
          "indexed": false,
          "name": "ip",
          "type": "string"
        }
      ],
      "name": "DeviceAdded",
      "type": "event"
    },
    {
      "anonymous": false,
      "inputs": [
        {
          "indexed": false,
          "name": "user",
          "type": "address"
        },
        {
          "indexed": false,
          "name": "ip",
          "type": "string"
        },
        {
          "indexed": false,
          "name": "token",
          "type": "bytes32"
        }
      ],
      "name": "DistributeToken",
      "type": "event"
    },
    {
      "constant": false,
      "inputs": [
        {
          "name": "name",
          "type": "string"
        },
        {
          "name": "ip",
          "type": "string"
        }
      ],
      "name": "addDevice",
      "outputs": [],
      "payable": false,
      "stateMutability": "nonpayable",
      "type": "function"
    },
    {
      "constant": true,
      "inputs": [],
      "name": "rand",
      "outputs": [
        {
          "name": "",
          "type": "bytes32"
        }
      ],
      "payable": false,
      "stateMutability": "view",
      "type": "function"
    },
    {
      "constant": false,
      "inputs": [
        {
          "name": "sender",
          "type": "address"
        },
        {
          "name": "ip",
          "type": "string"
        }
      ],
      "name": "login_admin",
      "outputs": [],
      "payable": false,
      "stateMutability": "nonpayable",
      "type": "function"
    }
  ],
  "bytecode": "0x60806040526000805534801561001457600080fd5b5061008f6040518060400160405280600681526020017f6c696768747300000000000000000000000000000000000000000000000000008152506040518060400160405280601281526020017f3139322e3136382e382e3138363a38303831000000000000000000000000000081525061009460201b60201c565b61030b565b6000805460010190556100a5610256565b5060408051808201909152828152602080820183905260018082527fcc69885fda6bcc1a4ace058b4a62bf5e179ea78fd58a1ccd71c22cc9b688792f805491820180825560009190915283518051919385936002027f66b32740ad8041bcc3b909c72d7e1afe60094ec55e3cde329b4b3a28501d826c019261012a9284920190610270565b5060208281015180516101439260018501920190610270565b505050507fb89dae6f79ce740c8f64a816f7060781c54c0c5ad24df7fc163a842d30daa4976000548484604051808481526020018060200180602001838103835285818151815260200191508051906020019080838360005b838110156101b457818101518382015260200161019c565b50505050905090810190601f1680156101e15780820380516001836020036101000a031916815260200191505b50838103825284518152845160209182019186019080838360005b838110156102145781810151838201526020016101fc565b50505050905090810190601f1680156102415780820380516001836020036101000a031916815260200191505b509550505050505060405180910390a1505050565b604051806040016040528060608152602001606081525090565b828054600181600116156101000203166002900490600052602060002090601f016020900481019282601f106102b157805160ff19168380011785556102de565b828001600101855582156102de579182015b828111156102de5782518255916020019190600101906102c3565b506102ea9291506102ee565b5090565b61030891905b808211156102ea57600081556001016102f4565b90565b6108708061031a6000396000f3fe608060405234801561001057600080fd5b50600436106100575760003560e01c80633b3dca761461005c578063535bca9a1461007657806392effc291461007e57806399b7182914610136578063b85d826114610237575b600080fd5b610064610364565b60408051918252519081900360200190f35b61006461036e565b6101346004803603604081101561009457600080fd5b6001600160a01b0382351691908101906040810160208201356401000000008111156100bf57600080fd5b8201836020820111156100d157600080fd5b803590602001918460018302840111640100000000831117156100f357600080fd5b91908080601f016020809104026020016040519081016040528093929190818152602001838380828437600092019190915250929550610374945050505050565b005b6101596004803603604081101561014c57600080fd5b5080359060200135610479565b604051808060200180602001838103835285818151815260200191508051906020019080838360005b8381101561019a578181015183820152602001610182565b50505050905090810190601f1680156101c75780820380516001836020036101000a031916815260200191505b50838103825284518152845160209182019186019080838360005b838110156101fa5781810151838201526020016101e2565b50505050905090810190601f1680156102275780820380516001836020036101000a031916815260200191505b5094505050505060405180910390f35b6101346004803603604081101561024d57600080fd5b81019060208101813564010000000081111561026857600080fd5b82018360208201111561027a57600080fd5b8035906020019184600183028401116401000000008311171561029c57600080fd5b91908080601f01602080910402602001604051908101604052809392919081815260200183838082843760009201919091525092959493602081019350359150506401000000008111156102ef57600080fd5b82018360208201111561030157600080fd5b8035906020019184600183028401116401000000008311171561032357600080fd5b91908080601f0160208091040260200160405190810160405280939291908181526020018383808284376000920191909152509295506105d0945050505050565b6000194301405b90565b60005481565b61037c610364565b60028190556040805133606090811b60208084019190915242603484015260548084019590955283518084039095018552607483019384905284519481019490942060038190556001600160a01b038716845260b4830181905260948301918252855160d484015285517f26e2c15a0acd82d4c558aa950f230b0650c8b837d79957987d1422defd4e802a958895889593949093909260f49091019186019080838360005b83811015610439578181015183820152602001610421565b50505050905090810190601f1680156104665780820380516001836020036101000a031916815260200191505b5094505050505060405180910390a15050565b6001602052816000526040600020818154811061049257fe5b60009182526020918290206002918202018054604080516001831615610100026000190190921693909304601f8101859004850282018501909352828152909450925083918301828280156105285780601f106104fd57610100808354040283529160200191610528565b820191906000526020600020905b81548152906001019060200180831161050b57829003601f168201915b505050505090806001018054600181600116156101000203166002900480601f0160208091040260200160405190810160405280929190818152602001828054600181600116156101000203166002900480156105c65780601f1061059b576101008083540402835291602001916105c6565b820191906000526020600020905b8154815290600101906020018083116105a957829003601f168201915b5050505050905082565b6000805460010190556105e1610792565b5060408051808201909152828152602080820183905260018082527fcc69885fda6bcc1a4ace058b4a62bf5e179ea78fd58a1ccd71c22cc9b688792f805491820180825560009190915283518051919385936002027f66b32740ad8041bcc3b909c72d7e1afe60094ec55e3cde329b4b3a28501d826c019261066692849201906107ac565b50602082810151805161067f92600185019201906107ac565b505050507fb89dae6f79ce740c8f64a816f7060781c54c0c5ad24df7fc163a842d30daa4976000548484604051808481526020018060200180602001838103835285818151815260200191508051906020019080838360005b838110156106f05781810151838201526020016106d8565b50505050905090810190601f16801561071d5780820380516001836020036101000a031916815260200191505b50838103825284518152845160209182019186019080838360005b83811015610750578181015183820152602001610738565b50505050905090810190601f16801561077d5780820380516001836020036101000a031916815260200191505b509550505050505060405180910390a1505050565b604051806040016040528060608152602001606081525090565b828054600181600116156101000203166002900490600052602060002090601f016020900481019282601f106107ed57805160ff191683800117855561081a565b8280016001018555821561081a579182015b8281111561081a5782518255916020019190600101906107ff565b5061082692915061082a565b5090565b61036b91905b80821115610826576000815560010161083056fea165627a7a723058208101e99262bd1599123d5e836a7cd419a857954b5ca68f9b96acf41ebab4df400029",
  "source": "pragma solidity ^0.5.0;\r\n\r\ncontract DeviceAuth{\r\n    uint public deviceCount = 0;\r\n    \r\n    mapping(uint=>Device[]) public devices;\r\n   \r\n    struct Device{\r\n        string name;\r\n        string ip;\r\n    }\r\n\r\n    function addDevice(string memory name, string memory ip) public {\r\n        deviceCount ++;\r\n        Device memory device = Device(name, ip);\r\n        devices[1].push(device);\r\n        emit DeviceAdded(deviceCount, name, ip);\r\n    }\r\n\r\n    constructor() public {\r\n        addDevice(\"lights\", \"192.168.8.186:8081\");\r\n    }\r\n\r\n    event DeviceAdded(uint id, string name, string ip);\r\n  \r\n\tevent DistributeToken(address user,string ip, bytes32 token);\r\n    bytes32 random_number;\r\n    bytes32 token;\r\n\r\n    // min and max are not needed now, some future work idea\r\n    function rand() public view returns (bytes32) {\r\n        uint256 lastBlockNumber = block.number - 1;\r\n        bytes32 hashVal = bytes32(blockhash(lastBlockNumber));\r\n        return bytes32(hashVal);\r\n    }\r\n\r\n    function login_admin(address sender,string memory ip) public {\r\n\t\trandom_number = rand();\r\n        token = keccak256(abi.encodePacked(msg.sender, now, random_number));\r\n        emit DistributeToken(sender, ip, token);\r\n    }\r\n}",
  "sourcePath": "C:/Users/Mkay_DaSextja/Documents/BScHons - UJ/Project/Code/block-auth-contract/contracts/DeviceAuth.sol",
  "compiler": {
    "name": "solc",
    "version": "0.5.8+commit.23d335f2.Emscripten.clang"
  },
  "schemaVersion": "3.0.11",
  "updatedAt": "2019-09-08T16:39:52.905Z",
  "devdoc": {
    "methods": {}
  },
  "userdoc": {
    "methods": {}
  }
}