{
  "contractName": "DeviceAuth",
  "abi": [
    {
      "constant": true,
      "inputs": [
        {
          "name": "",
          "type": "uint256"
        }
      ],
      "name": "devices",
      "outputs": [
        {
          "name": "id",
          "type": "uint256"
        },
        {
          "name": "name",
          "type": "string"
        },
        {
          "name": "ip",
          "type": "string"
        },
        {
          "name": "role",
          "type": "string"
        }
      ],
      "payable": false,
      "stateMutability": "view",
      "type": "function"
    },
    {
      "constant": true,
      "inputs": [],
      "name": "deviceCount",
      "outputs": [
        {
          "name": "",
          "type": "uint256"
        }
      ],
      "payable": false,
      "stateMutability": "view",
      "type": "function"
    },
    {
      "inputs": [],
      "payable": false,
      "stateMutability": "nonpayable",
      "type": "constructor"
    },
    {
      "anonymous": false,
      "inputs": [
        {
          "indexed": false,
          "name": "id",
          "type": "uint256"
        },
        {
          "indexed": false,
          "name": "name",
          "type": "string"
        },
        {
          "indexed": false,
          "name": "ip",
          "type": "string"
        },
        {
          "indexed": false,
          "name": "role",
          "type": "string"
        }
      ],
      "name": "DeviceAdded",
      "type": "event"
    },
    {
      "anonymous": false,
      "inputs": [
        {
          "indexed": false,
          "name": "id",
          "type": "uint256"
        },
        {
          "indexed": false,
          "name": "name",
          "type": "string"
        },
        {
          "indexed": false,
          "name": "ip",
          "type": "string"
        },
        {
          "indexed": false,
          "name": "role",
          "type": "string"
        }
      ],
      "name": "DeviceUpdated",
      "type": "event"
    },
    {
      "anonymous": false,
      "inputs": [
        {
          "indexed": false,
          "name": "user",
          "type": "address"
        },
        {
          "indexed": false,
          "name": "ip",
          "type": "string"
        },
        {
          "indexed": false,
          "name": "token",
          "type": "bytes32"
        },
        {
          "indexed": false,
          "name": "role",
          "type": "string"
        }
      ],
      "name": "DistributeToken",
      "type": "event"
    },
    {
      "constant": false,
      "inputs": [
        {
          "name": "name",
          "type": "string"
        },
        {
          "name": "ip",
          "type": "string"
        },
        {
          "name": "role",
          "type": "string"
        }
      ],
      "name": "addDevice",
      "outputs": [],
      "payable": false,
      "stateMutability": "nonpayable",
      "type": "function"
    },
    {
      "constant": false,
      "inputs": [
        {
          "name": "_id",
          "type": "uint256"
        },
        {
          "name": "name",
          "type": "string"
        },
        {
          "name": "ip",
          "type": "string"
        },
        {
          "name": "role",
          "type": "string"
        }
      ],
      "name": "updateDevice",
      "outputs": [],
      "payable": false,
      "stateMutability": "nonpayable",
      "type": "function"
    },
    {
      "constant": true,
      "inputs": [],
      "name": "rand",
      "outputs": [
        {
          "name": "",
          "type": "bytes32"
        }
      ],
      "payable": false,
      "stateMutability": "view",
      "type": "function"
    },
    {
      "constant": false,
      "inputs": [
        {
          "name": "ip",
          "type": "string"
        },
        {
          "name": "role",
          "type": "string"
        }
      ],
      "name": "login_admin",
      "outputs": [],
      "payable": false,
      "stateMutability": "nonpayable",
      "type": "function"
    }
  ],
  "bytecode": "0x6080604052600080553480156200001557600080fd5b50620000c86040518060400160405280600681526020017f6c696768747300000000000000000000000000000000000000000000000000008152506040518060400160405280601281526020017f3139322e3136382e382e3138363a3830383100000000000000000000000000008152506040518060400160405280600581526020017f6f776e6572000000000000000000000000000000000000000000000000000000815250620000ce60201b60201c565b62000388565b6000805460019081018083556040805160808101825282815260208082018981528284018990526060830188905293865284815291909420845181559151805192936200012493908501929190910190620002e3565b506040820151805162000142916002840191602090910190620002e3565b506060820151805162000160916003840191602090910190620002e3565b509050507f7b32515d7a7ff9a2b89bc050e59175a476de670bb7a3925f5232d6fa94b11b6e60005484848460405180858152602001806020018060200180602001848103845287818151815260200191508051906020019080838360005b83811015620001d8578181015183820152602001620001be565b50505050905090810190601f168015620002065780820380516001836020036101000a031916815260200191505b50848103835286518152865160209182019188019080838360005b838110156200023b57818101518382015260200162000221565b50505050905090810190601f168015620002695780820380516001836020036101000a031916815260200191505b50848103825285518152855160209182019187019080838360005b838110156200029e57818101518382015260200162000284565b50505050905090810190601f168015620002cc5780820380516001836020036101000a031916815260200191505b5097505050505050505060405180910390a1505050565b828054600181600116156101000203166002900490600052602060002090601f016020900481019282601f106200032657805160ff191683800117855562000356565b8280016001018555821562000356579182015b828111156200035657825182559160200191906001019062000339565b506200036492915062000368565b5090565b6200038591905b808211156200036457600081556001016200036f565b90565b61109080620003986000396000f3fe608060405234801561001057600080fd5b50600436106100625760003560e01c8063028197501461006757806310ff8e311461021e5780633449fc60146103865780633b3dca7614610534578063535bca9a1461054e578063a6f73fa314610556575b600080fd5b61021c6004803603608081101561007d57600080fd5b81359190810190604081016020820135600160201b81111561009e57600080fd5b8201836020820111156100b057600080fd5b803590602001918460018302840111600160201b831117156100d157600080fd5b91908080601f0160208091040260200160405190810160405280939291908181526020018383808284376000920191909152509295949360208101935035915050600160201b81111561012357600080fd5b82018360208201111561013557600080fd5b803590602001918460018302840111600160201b8311171561015657600080fd5b91908080601f0160208091040260200160405190810160405280939291908181526020018383808284376000920191909152509295949360208101935035915050600160201b8111156101a857600080fd5b8201836020820111156101ba57600080fd5b803590602001918460018302840111600160201b831117156101db57600080fd5b91908080601f01602080910402602001604051908101604052809392919081815260200183838082843760009201919091525092955061067f945050505050565b005b61023b6004803603602081101561023457600080fd5b5035610a61565b60405180858152602001806020018060200180602001848103845287818151815260200191508051906020019080838360005b8381101561028657818101518382015260200161026e565b50505050905090810190601f1680156102b35780820380516001836020036101000a031916815260200191505b50848103835286518152865160209182019188019080838360005b838110156102e65781810151838201526020016102ce565b50505050905090810190601f1680156103135780820380516001836020036101000a031916815260200191505b50848103825285518152855160209182019187019080838360005b8381101561034657818101518382015260200161032e565b50505050905090810190601f1680156103735780820380516001836020036101000a031916815260200191505b5097505050505050505060405180910390f35b61021c6004803603606081101561039c57600080fd5b810190602081018135600160201b8111156103b657600080fd5b8201836020820111156103c857600080fd5b803590602001918460018302840111600160201b831117156103e957600080fd5b91908080601f0160208091040260200160405190810160405280939291908181526020018383808284376000920191909152509295949360208101935035915050600160201b81111561043b57600080fd5b82018360208201111561044d57600080fd5b803590602001918460018302840111600160201b8311171561046e57600080fd5b91908080601f0160208091040260200160405190810160405280939291908181526020018383808284376000920191909152509295949360208101935035915050600160201b8111156104c057600080fd5b8201836020820111156104d257600080fd5b803590602001918460018302840111600160201b831117156104f357600080fd5b91908080601f016020809104026020016040519081016040528093929190818152602001838380828437600092019190915250929550610c29945050505050565b61053c610e2f565b60408051918252519081900360200190f35b61053c610e39565b61021c6004803603604081101561056c57600080fd5b810190602081018135600160201b81111561058657600080fd5b82018360208201111561059857600080fd5b803590602001918460018302840111600160201b831117156105b957600080fd5b91908080601f0160208091040260200160405190810160405280939291908181526020018383808284376000920191909152509295949360208101935035915050600160201b81111561060b57600080fd5b82018360208201111561061d57600080fd5b803590602001918460018302840111600160201b8311171561063e57600080fd5b91908080601f016020809104026020016040519081016040528093929190818152602001838380828437600092019190915250929550610e3f945050505050565b610687610fa4565b60008581526001602081815260409283902083516080810185528154815281840180548651600296821615610100026000190190911695909504601f810185900485028601850190965285855290949193858401939092908301828280156107305780601f1061070557610100808354040283529160200191610730565b820191906000526020600020905b81548152906001019060200180831161071357829003601f168201915b5050509183525050600282810180546040805160206001841615610100026000190190931694909404601f810183900483028501830190915280845293810193908301828280156107c25780601f10610797576101008083540402835291602001916107c2565b820191906000526020600020905b8154815290600101906020018083116107a557829003601f168201915b505050918352505060038201805460408051602060026001851615610100026000190190941693909304601f81018490048402820184019092528181529382019392918301828280156108565780601f1061082b57610100808354040283529160200191610856565b820191906000526020600020905b81548152906001019060200180831161083957829003601f168201915b505050919092525050506020808201868152604080840187905260608401869052600089815260018085529190208451815591518051949550859492936108a39392850192910190610fcc565b50604082015180516108bf916002840191602090910190610fcc565b50606082015180516108db916003840191602090910190610fcc565b509050507f60b49f98faa0e832053307167f94170c6e0cd321eef849317eed8094f25432168582602001518360400151846060015160405180858152602001806020018060200180602001848103845287818151815260200191508051906020019080838360005b8381101561095b578181015183820152602001610943565b50505050905090810190601f1680156109885780820380516001836020036101000a031916815260200191505b50848103835286518152865160209182019188019080838360005b838110156109bb5781810151838201526020016109a3565b50505050905090810190601f1680156109e85780820380516001836020036101000a031916815260200191505b50848103825285518152855160209182019187019080838360005b83811015610a1b578181015183820152602001610a03565b50505050905090810190601f168015610a485780820380516001836020036101000a031916815260200191505b5097505050505050505060405180910390a15050505050565b600160208181526000928352604092839020805481840180548651600296821615610100026000190190911695909504601f81018590048502860185019096528585529094919392909190830182828015610afd5780601f10610ad257610100808354040283529160200191610afd565b820191906000526020600020905b815481529060010190602001808311610ae057829003601f168201915b50505060028085018054604080516020601f6000196101006001871615020190941695909504928301859004850281018501909152818152959695945090925090830182828015610b8f5780601f10610b6457610100808354040283529160200191610b8f565b820191906000526020600020905b815481529060010190602001808311610b7257829003601f168201915b5050505060038301805460408051602060026001851615610100026000190190941693909304601f8101849004840282018401909252818152949594935090830182828015610c1f5780601f10610bf457610100808354040283529160200191610c1f565b820191906000526020600020905b815481529060010190602001808311610c0257829003601f168201915b5050505050905084565b600080546001908101808355604080516080810182528281526020808201898152828401899052606083018890529386528481529190942084518155915180519293610c7d93908501929190910190610fcc565b5060408201518051610c99916002840191602090910190610fcc565b5060608201518051610cb5916003840191602090910190610fcc565b509050507f7b32515d7a7ff9a2b89bc050e59175a476de670bb7a3925f5232d6fa94b11b6e60005484848460405180858152602001806020018060200180602001848103845287818151815260200191508051906020019080838360005b83811015610d2b578181015183820152602001610d13565b50505050905090810190601f168015610d585780820380516001836020036101000a031916815260200191505b50848103835286518152865160209182019188019080838360005b83811015610d8b578181015183820152602001610d73565b50505050905090810190601f168015610db85780820380516001836020036101000a031916815260200191505b50848103825285518152855160209182019187019080838360005b83811015610deb578181015183820152602001610dd3565b50505050905090810190601f168015610e185780820380516001836020036101000a031916815260200191505b5097505050505050505060405180910390a1505050565b6000194301405b90565b60005481565b610e47610e2f565b60028190556040805133606081901b602080840191909152426034840152605480840195909552835180840390950185526074830193849052845194810194909420600381905581845260b48301819052608060948401908152875160f485015287517f8b8dc1fa020811d76f29a139c40b08ffc8fdb6014c4b4f3354732e0d7789933e96939589959394899491939260d4830192610114019188019080838360005b83811015610f02578181015183820152602001610eea565b50505050905090810190601f168015610f2f5780820380516001836020036101000a031916815260200191505b50838103825284518152845160209182019186019080838360005b83811015610f62578181015183820152602001610f4a565b50505050905090810190601f168015610f8f5780820380516001836020036101000a031916815260200191505b50965050505050505060405180910390a15050565b6040518060800160405280600081526020016060815260200160608152602001606081525090565b828054600181600116156101000203166002900490600052602060002090601f016020900481019282601f1061100d57805160ff191683800117855561103a565b8280016001018555821561103a579182015b8281111561103a57825182559160200191906001019061101f565b5061104692915061104a565b5090565b610e3691905b80821115611046576000815560010161105056fea165627a7a72305820d9215f5cf38196459aa938c8ad894cccf1d8bf66ae73f80ebc229bffb13781110029",
  "source": "pragma solidity ^0.5.0;\r\n\r\ncontract DeviceAuth{\r\n    uint public deviceCount = 0;\r\n    \r\n    mapping(uint=> Device) public devices;\r\n   \r\n    struct Device{\r\n        uint id;\r\n        string name;\r\n        string ip;\r\n        string role;\r\n    }\r\n\r\n    function addDevice(string memory name, string memory ip, string memory role) public {\r\n        deviceCount ++;\r\n        devices[deviceCount] = Device(deviceCount, name, ip, role);\r\n        emit DeviceAdded(deviceCount, name, ip, role);\r\n    }\r\n\r\n    function updateDevice(uint _id,string memory name,string memory ip, string memory role) public {\r\n        Device memory _device = devices[_id];\r\n        _device.name = name;\r\n        _device.ip = ip;\r\n        _device.role = role;\r\n        devices[_id] = _device;\r\n        emit DeviceUpdated(_id, _device.name, _device.ip, _device.role);\r\n    }\r\n\r\n    constructor() public {\r\n        addDevice(\"lights\", \"192.168.8.186:8081\", \"owner\");\r\n    }\r\n\r\n    event DeviceAdded(uint id, string name, string ip, string role);\r\n    \r\n    event DeviceUpdated(uint id, string name, string ip, string role);\r\n\r\n\tevent DistributeToken(address user,string ip, bytes32 token, string role);\r\n    \r\n    bytes32 random_number;\r\n    bytes32 token;\r\n\r\n    // min and max are not needed now, some future work idea\r\n    function rand() public view returns (bytes32) {\r\n        uint256 lastBlockNumber = block.number - 1;\r\n        bytes32 hashVal = bytes32(blockhash(lastBlockNumber));\r\n        return bytes32(hashVal);\r\n    }\r\n\r\n    function login_admin(string memory ip, string memory role) public {\r\n\t\trandom_number = rand();\r\n        token = keccak256(abi.encodePacked(msg.sender, now, random_number));\r\n        emit DistributeToken(msg.sender, ip, token, role);\r\n    }\r\n}",
  "sourcePath": "C:/Users/Mkay_DaSextja/Documents/BScHons - UJ/Project/Code/block-auth-contract/contracts/DeviceAuth.sol",
  "compiler": {
    "name": "solc",
    "version": "0.5.8+commit.23d335f2.Emscripten.clang"
  },
  "schemaVersion": "3.0.11",
  "updatedAt": "2019-09-19T00:20:21.553Z",
  "devdoc": {
    "methods": {}
  },
  "userdoc": {
    "methods": {}
  }
}