{
  "contractName": "DeviceAuth",
  "abi": [
    {
      "constant": true,
      "inputs": [],
      "name": "deviceCount",
      "outputs": [
        {
          "name": "",
          "type": "uint256"
        }
      ],
      "payable": false,
      "stateMutability": "view",
      "type": "function"
    },
    {
      "constant": true,
      "inputs": [
        {
          "name": "",
          "type": "uint256"
        },
        {
          "name": "",
          "type": "uint256"
        }
      ],
      "name": "devices",
      "outputs": [
        {
          "name": "name",
          "type": "string"
        },
        {
          "name": "ip",
          "type": "string"
        }
      ],
      "payable": false,
      "stateMutability": "view",
      "type": "function"
    },
    {
      "inputs": [],
      "payable": false,
      "stateMutability": "nonpayable",
      "type": "constructor"
    },
    {
      "anonymous": false,
      "inputs": [
        {
          "indexed": false,
          "name": "id",
          "type": "uint256"
        },
        {
          "indexed": false,
          "name": "name",
          "type": "string"
        },
        {
          "indexed": false,
          "name": "ip",
          "type": "string"
        }
      ],
      "name": "DeviceAdded",
      "type": "event"
    },
    {
      "anonymous": false,
      "inputs": [
        {
          "indexed": false,
          "name": "user",
          "type": "address"
        },
        {
          "indexed": false,
          "name": "token",
          "type": "bytes32"
        }
      ],
      "name": "DistributeToken",
      "type": "event"
    },
    {
      "constant": false,
      "inputs": [
        {
          "name": "name",
          "type": "string"
        },
        {
          "name": "ip",
          "type": "string"
        }
      ],
      "name": "addDevice",
      "outputs": [],
      "payable": false,
      "stateMutability": "nonpayable",
      "type": "function"
    },
    {
      "constant": true,
      "inputs": [],
      "name": "rand",
      "outputs": [
        {
          "name": "",
          "type": "bytes32"
        }
      ],
      "payable": false,
      "stateMutability": "view",
      "type": "function"
    },
    {
      "constant": false,
      "inputs": [],
      "name": "login_admin",
      "outputs": [],
      "payable": false,
      "stateMutability": "nonpayable",
      "type": "function"
    }
  ],
  "bytecode": "0x60806040526000805534801561001457600080fd5b5061008f6040518060400160405280600681526020017f6c696768747300000000000000000000000000000000000000000000000000008152506040518060400160405280601281526020017f3139322e3136382e382e3138363a38303831000000000000000000000000000081525061009460201b60201c565b61030b565b6000805460010190556100a5610256565b5060408051808201909152828152602080820183905260018082527fcc69885fda6bcc1a4ace058b4a62bf5e179ea78fd58a1ccd71c22cc9b688792f805491820180825560009190915283518051919385936002027f66b32740ad8041bcc3b909c72d7e1afe60094ec55e3cde329b4b3a28501d826c019261012a9284920190610270565b5060208281015180516101439260018501920190610270565b505050507fb89dae6f79ce740c8f64a816f7060781c54c0c5ad24df7fc163a842d30daa4976000548484604051808481526020018060200180602001838103835285818151815260200191508051906020019080838360005b838110156101b457818101518382015260200161019c565b50505050905090810190601f1680156101e15780820380516001836020036101000a031916815260200191505b50838103825284518152845160209182019186019080838360005b838110156102145781810151838201526020016101fc565b50505050905090810190601f1680156102415780820380516001836020036101000a031916815260200191505b509550505050505060405180910390a1505050565b604051806040016040528060608152602001606081525090565b828054600181600116156101000203166002900490600052602060002090601f016020900481019282601f106102b157805160ff19168380011785556102de565b828001600101855582156102de579182015b828111156102de5782518255916020019190600101906102c3565b506102ea9291506102ee565b5090565b61030891905b808211156102ea57600081556001016102f4565b90565b6107438061031a6000396000f3fe608060405234801561001057600080fd5b50600436106100575760003560e01c80633b3dca761461005c578063535bca9a1461007657806399b718291461007e578063b85d82611461017f578063f262c49f146102ae575b600080fd5b6100646102b6565b60408051918252519081900360200190f35b6100646102c0565b6100a16004803603604081101561009457600080fd5b50803590602001356102c6565b604051808060200180602001838103835285818151815260200191508051906020019080838360005b838110156100e25781810151838201526020016100ca565b50505050905090810190601f16801561010f5780820380516001836020036101000a031916815260200191505b50838103825284518152845160209182019186019080838360005b8381101561014257818101518382015260200161012a565b50505050905090810190601f16801561016f5780820380516001836020036101000a031916815260200191505b5094505050505060405180910390f35b6102ac6004803603604081101561019557600080fd5b8101906020810181356401000000008111156101b057600080fd5b8201836020820111156101c257600080fd5b803590602001918460018302840111640100000000831117156101e457600080fd5b91908080601f016020809104026020016040519081016040528093929190818152602001838380828437600092019190915250929594936020810193503591505064010000000081111561023757600080fd5b82018360208201111561024957600080fd5b8035906020019184600183028401116401000000008311171561026b57600080fd5b91908080601f01602080910402602001604051908101604052809392919081815260200183838082843760009201919091525092955061041d945050505050565b005b6102ac6105df565b6000194301405b90565b60005481565b600160205281600052604060002081815481106102df57fe5b60009182526020918290206002918202018054604080516001831615610100026000190190921693909304601f8101859004850282018501909352828152909450925083918301828280156103755780601f1061034a57610100808354040283529160200191610375565b820191906000526020600020905b81548152906001019060200180831161035857829003601f168201915b505050505090806001018054600181600116156101000203166002900480601f0160208091040260200160405190810160405280929190818152602001828054600181600116156101000203166002900480156104135780601f106103e857610100808354040283529160200191610413565b820191906000526020600020905b8154815290600101906020018083116103f657829003601f168201915b5050505050905082565b60008054600101905561042e610665565b5060408051808201909152828152602080820183905260018082527fcc69885fda6bcc1a4ace058b4a62bf5e179ea78fd58a1ccd71c22cc9b688792f805491820180825560009190915283518051919385936002027f66b32740ad8041bcc3b909c72d7e1afe60094ec55e3cde329b4b3a28501d826c01926104b3928492019061067f565b5060208281015180516104cc926001850192019061067f565b505050507fb89dae6f79ce740c8f64a816f7060781c54c0c5ad24df7fc163a842d30daa4976000548484604051808481526020018060200180602001838103835285818151815260200191508051906020019080838360005b8381101561053d578181015183820152602001610525565b50505050905090810190601f16801561056a5780820380516001836020036101000a031916815260200191505b50838103825284518152845160209182019186019080838360005b8381101561059d578181015183820152602001610585565b50505050905090810190601f1680156105ca5780820380516001836020036101000a031916815260200191505b509550505050505060405180910390a1505050565b6105e76102b6565b60028190556040805133606081901b602080840191909152426034840152605480840195909552835180840390950185526074830180855285519590910194909420600381905593526094810192909252517f86d5fe05f5fdd717661032b622af0e2feea058dce13146aa1aebc415b72c72af9181900360b40190a1565b604051806040016040528060608152602001606081525090565b828054600181600116156101000203166002900490600052602060002090601f016020900481019282601f106106c057805160ff19168380011785556106ed565b828001600101855582156106ed579182015b828111156106ed5782518255916020019190600101906106d2565b506106f99291506106fd565b5090565b6102bd91905b808211156106f9576000815560010161070356fea165627a7a7230582082ef8f1249444cdf63d830defd55077b0f6ae00e38a2930067d8de0e986af7520029",
  "source": "pragma solidity ^0.5.0;\r\n\r\ncontract DeviceAuth{\r\n    uint public deviceCount = 0;\r\n    \r\n    mapping(uint=>Device[]) public devices;\r\n   \r\n    struct Device{\r\n        string name;\r\n        string ip;\r\n    }\r\n\r\n    function addDevice(string memory name, string memory ip) public {\r\n        deviceCount ++;\r\n        Device memory device = Device(name, ip);\r\n        devices[1].push(device);\r\n        emit DeviceAdded(deviceCount, name, ip);\r\n    }\r\n\r\n    constructor() public {\r\n        addDevice(\"lights\", \"192.168.8.186:8081\");\r\n    }\r\n\r\n    event DeviceAdded(uint id, string name, string ip);\r\n  \r\n\tevent DistributeToken(address user, bytes32 token);\r\n    bytes32 random_number;\r\n    bytes32 token;\r\n\r\n    // min and max are not needed now, some future work idea\r\n    function rand() public view returns (bytes32) {\r\n        uint256 lastBlockNumber = block.number - 1;\r\n        bytes32 hashVal = bytes32(blockhash(lastBlockNumber));\r\n        return bytes32(hashVal);\r\n    }\r\n\r\n    function login_admin() public {\r\n\t\trandom_number = rand();\r\n        token = keccak256(abi.encodePacked(msg.sender, now, random_number));\r\n        emit DistributeToken(msg.sender, token);\r\n    }\r\n}",
  "sourcePath": "C:/Users/Mkay_DaSextja/Documents/BScHons - UJ/Project/Code/block-auth-contract/contracts/DeviceAuth.sol",
  "compiler": {
    "name": "solc",
    "version": "0.5.8+commit.23d335f2.Emscripten.clang"
  },
  "schemaVersion": "3.0.11",
  "updatedAt": "2019-09-08T13:07:34.497Z",
  "devdoc": {
    "methods": {}
  },
  "userdoc": {
    "methods": {}
  }
}