{
  "contractName": "DeviceAuth",
  "abi": [
    {
      "constant": true,
      "inputs": [
        {
          "name": "",
          "type": "uint256"
        }
      ],
      "name": "devices",
      "outputs": [
        {
          "name": "id",
          "type": "uint256"
        },
        {
          "name": "name",
          "type": "string"
        },
        {
          "name": "ip",
          "type": "string"
        }
      ],
      "payable": false,
      "stateMutability": "view",
      "type": "function"
    },
    {
      "constant": true,
      "inputs": [],
      "name": "deviceCount",
      "outputs": [
        {
          "name": "",
          "type": "uint256"
        }
      ],
      "payable": false,
      "stateMutability": "view",
      "type": "function"
    },
    {
      "inputs": [],
      "payable": false,
      "stateMutability": "nonpayable",
      "type": "constructor"
    },
    {
      "anonymous": false,
      "inputs": [
        {
          "indexed": false,
          "name": "id",
          "type": "uint256"
        },
        {
          "indexed": false,
          "name": "name",
          "type": "string"
        },
        {
          "indexed": false,
          "name": "ip",
          "type": "string"
        }
      ],
      "name": "DeviceAdded",
      "type": "event"
    },
    {
      "anonymous": false,
      "inputs": [
        {
          "indexed": false,
          "name": "id",
          "type": "uint256"
        },
        {
          "indexed": false,
          "name": "name",
          "type": "string"
        },
        {
          "indexed": false,
          "name": "ip",
          "type": "string"
        }
      ],
      "name": "DeviceUpdated",
      "type": "event"
    },
    {
      "anonymous": false,
      "inputs": [
        {
          "indexed": false,
          "name": "user",
          "type": "address"
        },
        {
          "indexed": false,
          "name": "ip",
          "type": "string"
        },
        {
          "indexed": false,
          "name": "token",
          "type": "bytes32"
        }
      ],
      "name": "DistributeToken",
      "type": "event"
    },
    {
      "constant": false,
      "inputs": [
        {
          "name": "name",
          "type": "string"
        },
        {
          "name": "ip",
          "type": "string"
        }
      ],
      "name": "addDevice",
      "outputs": [],
      "payable": false,
      "stateMutability": "nonpayable",
      "type": "function"
    },
    {
      "constant": false,
      "inputs": [
        {
          "name": "_id",
          "type": "uint256"
        },
        {
          "name": "name",
          "type": "string"
        },
        {
          "name": "ip",
          "type": "string"
        }
      ],
      "name": "updateDevice",
      "outputs": [],
      "payable": false,
      "stateMutability": "nonpayable",
      "type": "function"
    },
    {
      "constant": true,
      "inputs": [],
      "name": "rand",
      "outputs": [
        {
          "name": "",
          "type": "bytes32"
        }
      ],
      "payable": false,
      "stateMutability": "view",
      "type": "function"
    },
    {
      "constant": false,
      "inputs": [
        {
          "name": "ip",
          "type": "string"
        }
      ],
      "name": "login_admin",
      "outputs": [],
      "payable": false,
      "stateMutability": "nonpayable",
      "type": "function"
    }
  ],
  "bytecode": "0x6080604052600080553480156200001557600080fd5b50620000926040518060400160405280600681526020017f6c696768747300000000000000000000000000000000000000000000000000008152506040518060400160405280601281526020017f3139322e3136382e382e3138363a3830383100000000000000000000000000008152506200009860201b60201c565b620002c2565b6000805460019081018083556040805160608101825282815260208082018881528284018890529386528481529190942084518155915180519293620000e7939085019291909101906200021d565b5060408201518051620001059160028401916020909101906200021d565b509050507fb89dae6f79ce740c8f64a816f7060781c54c0c5ad24df7fc163a842d30daa4976000548383604051808481526020018060200180602001838103835285818151815260200191508051906020019080838360005b83811015620001785781810151838201526020016200015e565b50505050905090810190601f168015620001a65780820380516001836020036101000a031916815260200191505b50838103825284518152845160209182019186019080838360005b83811015620001db578181015183820152602001620001c1565b50505050905090810190601f168015620002095780820380516001836020036101000a031916815260200191505b509550505050505060405180910390a15050565b828054600181600116156101000203166002900490600052602060002090601f016020900481019282601f106200026057805160ff191683800117855562000290565b8280016001018555821562000290579182015b828111156200029057825182559160200191906001019062000273565b506200029e929150620002a2565b5090565b620002bf91905b808211156200029e5760008155600101620002a9565b90565b610bea80620002d26000396000f3fe608060405234801561001057600080fd5b50600436106100625760003560e01c806310ff8e31146100675780633b3dca7614610169578063535bca9a14610183578063b85d82611461018b578063bbd2d746146102b6578063cafbbae7146103e6575b600080fd5b6100846004803603602081101561007d57600080fd5b503561048a565b604051808481526020018060200180602001838103835285818151815260200191508051906020019080838360005b838110156100cb5781810151838201526020016100b3565b50505050905090810190601f1680156100f85780820380516001836020036101000a031916815260200191505b50838103825284518152845160209182019186019080838360005b8381101561012b578181015183820152602001610113565b50505050905090810190601f1680156101585780820380516001836020036101000a031916815260200191505b509550505050505060405180910390f35b6101716105c2565b60408051918252519081900360200190f35b6101716105cc565b6102b4600480360360408110156101a157600080fd5b810190602081018135600160201b8111156101bb57600080fd5b8201836020820111156101cd57600080fd5b803590602001918460018302840111600160201b831117156101ee57600080fd5b91908080601f0160208091040260200160405190810160405280939291908181526020018383808284376000920191909152509295949360208101935035915050600160201b81111561024057600080fd5b82018360208201111561025257600080fd5b803590602001918460018302840111600160201b8311171561027357600080fd5b91908080601f0160208091040260200160405190810160405280939291908181526020018383808284376000920191909152509295506105d2945050505050565b005b6102b4600480360360608110156102cc57600080fd5b81359190810190604081016020820135600160201b8111156102ed57600080fd5b8201836020820111156102ff57600080fd5b803590602001918460018302840111600160201b8311171561032057600080fd5b91908080601f0160208091040260200160405190810160405280939291908181526020018383808284376000920191909152509295949360208101935035915050600160201b81111561037257600080fd5b82018360208201111561038457600080fd5b803590602001918460018302840111600160201b831117156103a557600080fd5b91908080601f01602080910402602001604051908101604052809392919081815260200183838082843760009201919091525092955061074d945050505050565b6102b4600480360360208110156103fc57600080fd5b810190602081018135600160201b81111561041657600080fd5b82018360208201111561042857600080fd5b803590602001918460018302840111600160201b8311171561044957600080fd5b91908080601f016020809104026020016040519081016040528093929190818152602001838380828437600092019190915250929550610a0c945050505050565b600160208181526000928352604092839020805481840180548651600296821615610100026000190190911695909504601f810185900485028601850190965285855290949193929091908301828280156105265780601f106104fb57610100808354040283529160200191610526565b820191906000526020600020905b81548152906001019060200180831161050957829003601f168201915b50505060028085018054604080516020601f60001961010060018716150201909416959095049283018590048502810185019091528181529596959450909250908301828280156105b85780601f1061058d576101008083540402835291602001916105b8565b820191906000526020600020905b81548152906001019060200180831161059b57829003601f168201915b5050505050905083565b6000194301405b90565b60005481565b600080546001908101808355604080516060810182528281526020808201888152828401889052938652848152919094208451815591518051929361061f93908501929190910190610b05565b506040820151805161063b916002840191602090910190610b05565b509050507fb89dae6f79ce740c8f64a816f7060781c54c0c5ad24df7fc163a842d30daa4976000548383604051808481526020018060200180602001838103835285818151815260200191508051906020019080838360005b838110156106ac578181015183820152602001610694565b50505050905090810190601f1680156106d95780820380516001836020036101000a031916815260200191505b50838103825284518152845160209182019186019080838360005b8381101561070c5781810151838201526020016106f4565b50505050905090810190601f1680156107395780820380516001836020036101000a031916815260200191505b509550505050505060405180910390a15050565b610755610b83565b60008481526001602081815260409283902083516060810185528154815281840180548651600296821615610100026000190190911695909504601f810185900485028601850190965285855290949193858401939092908301828280156107fe5780601f106107d3576101008083540402835291602001916107fe565b820191906000526020600020905b8154815290600101906020018083116107e157829003601f168201915b5050509183525050600282810180546040805160206001841615610100026000190190931694909404601f810183900483028501830190915280845293810193908301828280156108905780601f1061086557610100808354040283529160200191610890565b820191906000526020600020905b81548152906001019060200180831161087357829003601f168201915b5050509190925250505060208082018581526040808401869052600088815260018085529190208451815591518051949550859492936108d69392850192910190610b05565b50604082015180516108f2916002840191602090910190610b05565b509050507ff4dd6db40bbc00ddf5242cf6bd768c2ac05d1715d989b6f76ddb4b8192810f5f8482602001518360400151604051808481526020018060200180602001838103835285818151815260200191508051906020019080838360005b83811015610969578181015183820152602001610951565b50505050905090810190601f1680156109965780820380516001836020036101000a031916815260200191505b50838103825284518152845160209182019186019080838360005b838110156109c95781810151838201526020016109b1565b50505050905090810190601f1680156109f65780820380516001836020036101000a031916815260200191505b509550505050505060405180910390a150505050565b610a146105c2565b60028190556040805133606081811b602080850191909152426034850152605480850196909652845180850390960186526074840194859052855195810195909520600381905582855260b4840181905260948401918252865160d485015286517f26e2c15a0acd82d4c558aa950f230b0650c8b837d79957987d1422defd4e802a9693958895929490939260f401919086019080838360005b83811015610ac6578181015183820152602001610aae565b50505050905090810190601f168015610af35780820380516001836020036101000a031916815260200191505b5094505050505060405180910390a150565b828054600181600116156101000203166002900490600052602060002090601f016020900481019282601f10610b4657805160ff1916838001178555610b73565b82800160010185558215610b73579182015b82811115610b73578251825591602001919060010190610b58565b50610b7f929150610ba4565b5090565b60405180606001604052806000815260200160608152602001606081525090565b6105c991905b80821115610b7f5760008155600101610baa56fea165627a7a72305820f0a0a6eb1fe1ab0c8026b1120fb784b0c289208d5e107c0f37ee0469b104069e0029",
  "source": "pragma solidity ^0.5.0;\r\n\r\ncontract DeviceAuth{\r\n    uint public deviceCount = 0;\r\n    \r\n    mapping(uint=>Device) public devices;\r\n   \r\n    struct Device{\r\n        uint id;\r\n        string name;\r\n        string ip;\r\n    }\r\n\r\n    function addDevice(string memory name, string memory ip) public {\r\n        deviceCount ++;\r\n        devices[deviceCount] = Device(deviceCount, name, ip);\r\n        //devices[1].push(device);\r\n        emit DeviceAdded(deviceCount, name, ip);\r\n    }\r\n\r\n    function updateDevice(uint _id,string memory name,string memory ip) public {\r\n        Device memory _device = devices[_id];\r\n        _device.name = name;\r\n        _device.ip = ip;\r\n        devices[_id] = _device;\r\n        emit DeviceUpdated(_id, _device.name, _device.ip);\r\n    }\r\n\r\n    constructor() public {\r\n        addDevice(\"lights\", \"192.168.8.186:8081\");\r\n    }\r\n\r\n    event DeviceAdded(uint id, string name, string ip);\r\n    \r\n    event DeviceUpdated(uint id, string name, string ip);\r\n\r\n\tevent DistributeToken(address user,string ip, bytes32 token);\r\n    \r\n    bytes32 random_number;\r\n    bytes32 token;\r\n\r\n    // min and max are not needed now, some future work idea\r\n    function rand() public view returns (bytes32) {\r\n        uint256 lastBlockNumber = block.number - 1;\r\n        bytes32 hashVal = bytes32(blockhash(lastBlockNumber));\r\n        return bytes32(hashVal);\r\n    }\r\n\r\n    function login_admin(string memory ip) public {\r\n\t\trandom_number = rand();\r\n        token = keccak256(abi.encodePacked(msg.sender, now, random_number));\r\n        emit DistributeToken(msg.sender, ip, token);\r\n    }\r\n}",
  "sourcePath": "C:/Users/Mkay_DaSextja/Documents/BScHons - UJ/Project/Code/block-auth-contract/contracts/DeviceAuth.sol",
  "compiler": {
    "name": "solc",
    "version": "0.5.8+commit.23d335f2.Emscripten.clang"
  },
  "schemaVersion": "3.0.11",
  "updatedAt": "2019-09-16T06:41:57.520Z",
  "devdoc": {
    "methods": {}
  },
  "userdoc": {
    "methods": {}
  }
}