{
  "contractName": "GuestRoleAuth",
  "abi": [
    {
      "constant": true,
      "inputs": [],
      "name": "off",
      "outputs": [
        {
          "name": "",
          "type": "bool"
        }
      ],
      "payable": false,
      "stateMutability": "view",
      "type": "function"
    },
    {
      "constant": true,
      "inputs": [],
      "name": "on",
      "outputs": [
        {
          "name": "",
          "type": "bool"
        }
      ],
      "payable": false,
      "stateMutability": "view",
      "type": "function"
    },
    {
      "inputs": [],
      "payable": false,
      "stateMutability": "nonpayable",
      "type": "constructor"
    },
    {
      "anonymous": false,
      "inputs": [
        {
          "indexed": false,
          "name": "on",
          "type": "bool"
        },
        {
          "indexed": false,
          "name": "off",
          "type": "bool"
        }
      ],
      "name": "GuestRoleUpdated",
      "type": "event"
    },
    {
      "constant": false,
      "inputs": [
        {
          "name": "onCommand",
          "type": "bool"
        },
        {
          "name": "offCommand",
          "type": "bool"
        }
      ],
      "name": "updateGuestRole",
      "outputs": [],
      "payable": false,
      "stateMutability": "nonpayable",
      "type": "function"
    }
  ],
  "bytecode": "0x608060405234801561001057600080fd5b506000805461ff001960ff1990911660011716610100179055610142806100386000396000f3fe608060405234801561001057600080fd5b50600436106100415760003560e01c806307f7227b146100465780636626b26d1461006f57806367b7c0341461008b575b600080fd5b61006d6004803603604081101561005c57600080fd5b508035151590602001351515610093565b005b6100776100ff565b604080519115158252519081900360200190f35b61007761010d565b6000805460ff19168315151761ff001916610100831515810291909117918290556040805160ff80851615158252929093049091161515602083015280517fe64deeb8da62acafa673404a9fc9133e506ffaafb67e7097a2a6b0401b30d6df9281900390910190a15050565b600054610100900460ff1681565b60005460ff168156fea165627a7a723058204ef21511fe566c3b8f5002d17862c7abe76c01180f27d131e466814e05fc53390029",
  "source": "pragma solidity ^0.5.0;\r\n\r\ncontract GuestRoleAuth {\r\n  bool public on;\r\n  bool public off;\r\n\r\n  constructor() public {\r\n      on = true;\r\n      off = true;\r\n  }\r\n\r\n  function updateGuestRole(bool onCommand,bool offCommand) public {\r\n    on = onCommand;\r\n    off = offCommand;\r\n    emit GuestRoleUpdated(on, off);\r\n  }\r\n\r\n  event GuestRoleUpdated(\r\n      bool on,\r\n      bool off\r\n  );\r\n\r\n}",
  "sourcePath": "C:/Users/Mkhululi Mtshemla/Documents/BScHons Computer Science/First Semester/Project/D4 Prototype/block-auth-contract/contracts/GuestRoleAuth.sol",
  "compiler": {
    "name": "solc",
    "version": "0.5.8+commit.23d335f2.Emscripten.clang"
  },
  "schemaVersion": "3.0.11",
  "updatedAt": "2019-11-03T17:24:16.382Z",
  "devdoc": {
    "methods": {}
  },
  "userdoc": {
    "methods": {}
  }
}