{
  "contractName": "Login",
  "abi": [
    {
      "constant": true,
      "inputs": [],
      "name": "hash",
      "outputs": [
        {
          "name": "",
          "type": "bytes32"
        }
      ],
      "payable": false,
      "stateMutability": "view",
      "type": "function"
    },
    {
      "anonymous": false,
      "inputs": [
        {
          "indexed": false,
          "name": "sender",
          "type": "address"
        },
        {
          "indexed": false,
          "name": "token",
          "type": "bytes32"
        }
      ],
      "name": "LoginAttempt",
      "type": "event"
    },
    {
      "constant": false,
      "inputs": [],
      "name": "Login2",
      "outputs": [],
      "payable": false,
      "stateMutability": "nonpayable",
      "type": "function"
    },
    {
      "constant": false,
      "inputs": [],
      "name": "rand",
      "outputs": [
        {
          "name": "",
          "type": "bytes32"
        }
      ],
      "payable": false,
      "stateMutability": "nonpayable",
      "type": "function"
    },
    {
      "constant": false,
      "inputs": [],
      "name": "login_admin",
      "outputs": [],
      "payable": false,
      "stateMutability": "nonpayable",
      "type": "function"
    }
  ],
  "bytecode": "0x608060405234801561001057600080fd5b50610125806100206000396000f3fe6080604052348015600f57600080fd5b506004361060465760003560e01c806309bd5a6014604b578063384e8e911460635780633b3dca7614606b578063f262c49f146071575b600080fd5b60516077565b60408051918252519081900360200190f35b6069607d565b005b60516091565b606960b2565b60015481565b600080546001600160a01b03191633179055565b600080546001600160a01b0316331460a857600080fd5b5060001943014090565b60408051338152600160d81b64313233343502602082015281517f5913a2a1da9e820000b253b31744f5c4b17e184c6d3f19d8e9beaef994d804f8929181900390910190a156fea165627a7a72305820c7784b868684e3fbed604d223a3ee81f2d8606e0bf582c6ad853d85a231dec4d0029",
  "source": "pragma solidity ^0.5.0;\r\n\r\ncontract Login{\r\n\r\n    address owner;\r\n    bytes32 public hash;\r\n    bytes32 random_number;\r\n\r\n\tevent LoginAttempt(address sender, bytes32 token);\r\n    \r\n    function Login2 () public{\r\n        owner = msg.sender;\r\n    }\r\n    \r\n    // min and max are not needed now, some future work idea\r\n    function rand() onlyOwner public returns (bytes32){\r\n        uint256 lastBlockNumber = block.number - 1;\r\n        bytes32 hashVal = bytes32(blockhash(lastBlockNumber));\r\n        return bytes32(hashVal);\r\n    }\r\n    \r\n     function login_admin() public { \r\n\t\t//random_number = rand();\r\n        //hash = keccak256(abi.encodePacked(msg.sender,now,random_number));\r\n        emit LoginAttempt(msg.sender, \"12345\");\r\n    }\r\n\r\n    modifier onlyOwner {\r\n       require(msg.sender == owner);\r\n        _;\r\n    }\r\n}",
  "sourcePath": "C:/Users/Mkay_DaSextja/Documents/BScHons - UJ/Project/Code/block-auth-contract/contracts/Login.sol",
  "compiler": {
    "name": "solc",
    "version": "0.5.8+commit.23d335f2.Emscripten.clang"
  },
  "schemaVersion": "3.0.11",
  "updatedAt": "2019-06-17T19:59:16.178Z",
  "devdoc": {
    "methods": {}
  },
  "userdoc": {
    "methods": {}
  }
}