{
  "contractName": "Login",
  "abi": [
    {
      "constant": true,
      "inputs": [],
      "name": "hash",
      "outputs": [
        {
          "name": "",
          "type": "bytes32"
        }
      ],
      "payable": false,
      "stateMutability": "view",
      "type": "function"
    },
    {
      "anonymous": false,
      "inputs": [
        {
          "indexed": false,
          "name": "sender",
          "type": "address"
        },
        {
          "indexed": false,
          "name": "token",
          "type": "bytes32"
        }
      ],
      "name": "LoginAttempt",
      "type": "event"
    },
    {
      "constant": false,
      "inputs": [],
      "name": "Login2",
      "outputs": [],
      "payable": false,
      "stateMutability": "nonpayable",
      "type": "function"
    },
    {
      "constant": false,
      "inputs": [],
      "name": "rand",
      "outputs": [
        {
          "name": "",
          "type": "bytes32"
        }
      ],
      "payable": false,
      "stateMutability": "nonpayable",
      "type": "function"
    },
    {
      "constant": false,
      "inputs": [],
      "name": "login_admin",
      "outputs": [],
      "payable": false,
      "stateMutability": "nonpayable",
      "type": "function"
    }
  ],
  "bytecode": "0x608060405234801561001057600080fd5b50610173806100206000396000f3fe608060405234801561001057600080fd5b506004361061004c5760003560e01c806309bd5a6014610051578063384e8e911461006b5780633b3dca7614610075578063f262c49f1461007d575b600080fd5b610059610085565b60408051918252519081900360200190f35b61007361008b565b005b61005961009f565b6100736100c1565b60015481565b600080546001600160a01b03191633179055565b600080546001600160a01b031633146100b757600080fd5b5060001943014090565b6100c961009f565b60028190556040805133606081901b602080840191909152426034840152605480840195909552835180840390950185526074830180855285519590910194909420600181905593526094810192909252517f5913a2a1da9e820000b253b31744f5c4b17e184c6d3f19d8e9beaef994d804f89181900360b40190a156fea165627a7a7230582055bd478a71326e33407d8d8e748fbe2d9a634c8c9c813bda048c38f257a889e80029",
  "source": "pragma solidity ^0.5.0;\r\n\r\ncontract Login{\r\n\r\n    address owner;\r\n    bytes32 public hash;\r\n    bytes32 random_number;\r\n\r\n\tevent LoginAttempt(address sender, bytes32 token);\r\n    \r\n    function Login2 () public{\r\n        owner = msg.sender;\r\n    }\r\n    \r\n    // min and max are not needed now, some future work idea\r\n    function rand() onlyOwner public returns (bytes32){\r\n        uint256 lastBlockNumber = block.number - 1;\r\n        bytes32 hashVal = bytes32(blockhash(lastBlockNumber));\r\n        return bytes32(hashVal);\r\n    }\r\n    \r\n     function login_admin() public { \r\n\t\trandom_number = rand();\r\n        hash = keccak256(abi.encodePacked(msg.sender,now,random_number));\r\n        emit LoginAttempt(msg.sender, hash);\r\n    }\r\n\r\n    modifier onlyOwner {\r\n       require(msg.sender == owner);\r\n        _;\r\n    }\r\n}",
  "sourcePath": "C:/Users/Mkhululi Mtshemla/Documents/BScHons Computer Science/First Semester/Project/D4 Prototype/block-auth-contract/contracts/Login.sol",
  "compiler": {
    "name": "solc",
    "version": "0.5.8+commit.23d335f2.Emscripten.clang"
  },
  "schemaVersion": "3.0.11",
  "updatedAt": "2019-07-28T21:30:17.447Z",
  "devdoc": {
    "methods": {}
  },
  "userdoc": {
    "methods": {}
  }
}