{
  "contractName": "Login",
  "abi": [
    {
      "constant": true,
      "inputs": [],
      "name": "userCount",
      "outputs": [
        {
          "name": "",
          "type": "uint256"
        }
      ],
      "payable": false,
      "stateMutability": "view",
      "type": "function",
      "signature": "0x07973ccf"
    },
    {
      "constant": true,
      "inputs": [],
      "name": "hash",
      "outputs": [
        {
          "name": "",
          "type": "bytes32"
        }
      ],
      "payable": false,
      "stateMutability": "view",
      "type": "function",
      "signature": "0x09bd5a60"
    },
    {
      "constant": true,
      "inputs": [
        {
          "name": "",
          "type": "uint256"
        }
      ],
      "name": "devices",
      "outputs": [
        {
          "name": "id",
          "type": "uint256"
        },
        {
          "name": "content",
          "type": "string"
        },
        {
          "name": "completed",
          "type": "bool"
        }
      ],
      "payable": false,
      "stateMutability": "view",
      "type": "function",
      "signature": "0x10ff8e31"
    },
    {
      "constant": true,
      "inputs": [
        {
          "name": "",
          "type": "uint256"
        }
      ],
      "name": "users",
      "outputs": [
        {
          "name": "id",
          "type": "uint256"
        },
        {
          "name": "isAdmin",
          "type": "bool"
        }
      ],
      "payable": false,
      "stateMutability": "view",
      "type": "function",
      "signature": "0x365b98b2"
    },
    {
      "constant": true,
      "inputs": [],
      "name": "deviceCount",
      "outputs": [
        {
          "name": "",
          "type": "uint256"
        }
      ],
      "payable": false,
      "stateMutability": "view",
      "type": "function",
      "signature": "0x535bca9a"
    },
    {
      "anonymous": false,
      "inputs": [
        {
          "indexed": false,
          "name": "id",
          "type": "uint256"
        },
        {
          "indexed": false,
          "name": "ip",
          "type": "string"
        },
        {
          "indexed": false,
          "name": "added",
          "type": "bool"
        }
      ],
      "name": "AddDevice",
      "type": "event",
      "signature": "0x62ef04e8205af6be935fdc710300c195cf64de24309c1ca2b704b08b5d90193b"
    },
    {
      "anonymous": false,
      "inputs": [
        {
          "indexed": false,
          "name": "sender",
          "type": "address"
        },
        {
          "indexed": false,
          "name": "token",
          "type": "bytes32"
        }
      ],
      "name": "LoginAttempt",
      "type": "event",
      "signature": "0x5913a2a1da9e820000b253b31744f5c4b17e184c6d3f19d8e9beaef994d804f8"
    },
    {
      "anonymous": false,
      "inputs": [
        {
          "indexed": false,
          "name": "id",
          "type": "uint256"
        },
        {
          "indexed": false,
          "name": "isAdmin",
          "type": "bool"
        }
      ],
      "name": "AddUser",
      "type": "event",
      "signature": "0xb880ea1def36322e62e5be5ee25e4d8a77edbac176d64039dfcfb97f145b7f9c"
    },
    {
      "constant": false,
      "inputs": [],
      "name": "Login2",
      "outputs": [],
      "payable": false,
      "stateMutability": "nonpayable",
      "type": "function",
      "signature": "0x384e8e91"
    },
    {
      "constant": false,
      "inputs": [
        {
          "name": "ip",
          "type": "string"
        }
      ],
      "name": "addDevice",
      "outputs": [],
      "payable": false,
      "stateMutability": "nonpayable",
      "type": "function",
      "signature": "0xc7eeb96d"
    },
    {
      "constant": false,
      "inputs": [],
      "name": "addUsers",
      "outputs": [],
      "payable": false,
      "stateMutability": "nonpayable",
      "type": "function",
      "signature": "0x3ae8038e"
    },
    {
      "constant": false,
      "inputs": [],
      "name": "rand",
      "outputs": [
        {
          "name": "",
          "type": "bytes32"
        }
      ],
      "payable": false,
      "stateMutability": "nonpayable",
      "type": "function",
      "signature": "0x3b3dca76"
    },
    {
      "constant": false,
      "inputs": [],
      "name": "login_admin",
      "outputs": [],
      "payable": false,
      "stateMutability": "nonpayable",
      "type": "function",
      "signature": "0xf262c49f"
    }
  ],
  "bytecode": "0x608060405260008055600060015534801561001957600080fd5b5061096b806100296000396000f3fe6080604052600436106100a4576000357c0100000000000000000000000000000000000000000000000000000000900463ffffffff16806307973ccf146100a957806309bd5a60146100d457806310ff8e31146100ff578063365b98b2146101c5578063384e8e911461021f5780633ae8038e146102365780633b3dca761461024d578063535bca9a14610278578063c7eeb96d146102a3578063f262c49f1461036b575b600080fd5b3480156100b557600080fd5b506100be610382565b6040518082815260200191505060405180910390f35b3480156100e057600080fd5b506100e9610388565b6040518082815260200191505060405180910390f35b34801561010b57600080fd5b506101386004803603602081101561012257600080fd5b810190808035906020019092919050505061038e565b604051808481526020018060200183151515158152602001828103825284818151815260200191508051906020019080838360005b8381101561018857808201518184015260208101905061016d565b50505050905090810190601f1680156101b55780820380516001836020036101000a031916815260200191505b5094505050505060405180910390f35b3480156101d157600080fd5b506101fe600480360360208110156101e857600080fd5b810190808035906020019092919050505061045d565b60405180838152602001821515151581526020019250505060405180910390f35b34801561022b57600080fd5b5061023461048e565b005b34801561024257600080fd5b5061024b6104d1565b005b34801561025957600080fd5b50610262610587565b6040518082815260200191505060405180910390f35b34801561028457600080fd5b5061028d6105fb565b6040518082815260200191505060405180910390f35b3480156102af57600080fd5b50610369600480360360208110156102c657600080fd5b81019080803590602001906401000000008111156102e357600080fd5b8201836020820111156102f557600080fd5b8035906020019184600183028401116401000000008311171561031757600080fd5b91908080601f016020809104026020016040519081016040528093929190818152602001838380828437600081840152601f19601f820116905080830192505050505050509192919290505050610601565b005b34801561037757600080fd5b50610380610747565b005b60015481565b60035481565b6006602052806000526040600020600091509050806000015490806001018054600181600116156101000203166002900480601f0160208091040260200160405190810160405280929190818152602001828054600181600116156101000203166002900480156104405780601f1061041557610100808354040283529160200191610440565b820191906000526020600020905b81548152906001019060200180831161042357829003601f168201915b5050505050908060020160009054906101000a900460ff16905083565b60076020528060005260406000206000915090508060000154908060010160009054906101000a900460ff16905082565b33600260006101000a81548173ffffffffffffffffffffffffffffffffffffffff021916908373ffffffffffffffffffffffffffffffffffffffff160217905550565b60016000815480929190600101919050555060408051908101604052806001548152602001600015158152506007600060015481526020019081526020016000206000820151816000015560208201518160010160006101000a81548160ff0219169083151502179055509050507fb880ea1def36322e62e5be5ee25e4d8a77edbac176d64039dfcfb97f145b7f9c600154600060405180838152602001821515151581526020019250505060405180910390a1565b6000600260009054906101000a900473ffffffffffffffffffffffffffffffffffffffff1673ffffffffffffffffffffffffffffffffffffffff163373ffffffffffffffffffffffffffffffffffffffff161415156105e557600080fd5b6000600143039050600081409050809250505090565b60005481565b6000808154809291906001019190505550606060405190810160405280600054815260200182815260200160001515815250600660008054815260200190815260200160002060008201518160000155602082015181600101908051906020019061066d92919061089a565b5060408201518160020160006101000a81548160ff0219169083151502179055509050507f62ef04e8205af6be935fdc710300c195cf64de24309c1ca2b704b08b5d90193b600054826000604051808481526020018060200183151515158152602001828103825284818151815260200191508051906020019080838360005b838110156107085780820151818401526020810190506106ed565b50505050905090810190601f1680156107355780820380516001836020036101000a031916815260200191505b5094505050505060405180910390a150565b600260009054906101000a900473ffffffffffffffffffffffffffffffffffffffff1673ffffffffffffffffffffffffffffffffffffffff163373ffffffffffffffffffffffffffffffffffffffff161415156107a357600080fd5b6107ab610587565b6005819055503342600554604051602001808473ffffffffffffffffffffffffffffffffffffffff1673ffffffffffffffffffffffffffffffffffffffff166c010000000000000000000000000281526014018381526020018281526020019350505050604051602081830303815290604052805190602001206003819055507f5913a2a1da9e820000b253b31744f5c4b17e184c6d3f19d8e9beaef994d804f833600354604051808373ffffffffffffffffffffffffffffffffffffffff1673ffffffffffffffffffffffffffffffffffffffff1681526020018281526020019250505060405180910390a1565b828054600181600116156101000203166002900490600052602060002090601f016020900481019282601f106108db57805160ff1916838001178555610909565b82800160010185558215610909579182015b828111156109085782518255916020019190600101906108ed565b5b509050610916919061091a565b5090565b61093c91905b80821115610938576000816000905550600101610920565b5090565b9056fea165627a7a72305820491866f33a0911cb20728a8059cd4507d23deb7134284f333c357ab503a87a7e0029",
  "source": "pragma solidity ^0.5.0;\r\n\r\ncontract Login{\r\n  \r\n\tuint public deviceCount = 0;\r\n\tuint public userCount = 0;\r\n\r\n    address owner;\r\n    bytes32 public hash;\r\n    string token_raw;\r\n    bytes32 random_number;\r\n\r\n\tstruct Device {\r\n\t\tuint id;\r\n\t\tstring content;\r\n\t\tbool completed;\r\n\t}\r\n\t\r\n\tstruct User {\r\n\t\tuint id;\r\n\t\tbool isAdmin;\r\n\t}\r\n\r\n\tevent AddDevice(\r\n\t\tuint id,\r\n\t\tstring ip,\r\n\t\tbool added\r\n\t);\r\n\r\n\tevent LoginAttempt(\r\n\t\taddress sender, \r\n\t\tbytes32 token\r\n\t);\r\n    \r\n\tevent AddUser(\r\n\t\tuint id,\r\n\t\tbool isAdmin\r\n\t);\r\n    \r\n    function Login2 () public{\r\n        owner = msg.sender;\r\n    }\r\n\r\n\tmapping(uint => Device) public devices;\r\n\r\n\tfunction addDevice(string memory ip) public {\r\n\t\tdeviceCount ++;\r\n\t\tdevices[deviceCount] = Device(deviceCount,ip, false);\r\n\t\temit AddDevice(deviceCount,ip, false);\r\n\t}\r\n\t\r\n\tmapping(uint => User) public users;\r\n\r\n\tfunction addUsers() public {\r\n\t\tuserCount ++;\r\n\t\tusers[userCount] = User(userCount, false);\r\n\t\temit AddUser(userCount, false);\r\n\t}\r\n    \r\n    // min and max are not needed now, some future work idea\r\n    function rand() onlyOwner public returns (bytes32){\r\n        uint256 lastBlockNumber = block.number - 1;\r\n        bytes32 hashVal = bytes32(blockhash(lastBlockNumber));\r\n        return bytes32(hashVal);\r\n    }\r\n    \r\n     function login_admin() onlyOwner public { \r\n        random_number = rand();\r\n        hash = keccak256(abi.encodePacked(msg.sender,now,random_number));\r\n        emit LoginAttempt(msg.sender, hash);\r\n    }\r\n\r\n    modifier onlyOwner {\r\n       require(msg.sender == owner);\r\n        _;\r\n    }\r\n}",
  "sourcePath": "C:/Users/Mkhululi Mtshemla/Documents/BScHons Computer Science/First Semester/Project/D4 Prototype/block-auth-contract/contracts/Login.sol",
  "compiler": {
    "name": "solc",
    "version": "0.5.0+commit.1d4f565a.Emscripten.clang"
  },
  "schemaVersion": "3.0.1",
  "updatedAt": "2019-06-04T08:57:11.807Z",
  "devdoc": {
    "methods": {}
  },
  "userdoc": {
    "methods": {}
  }
}