{
  "contractName": "Login",
  "abi": [
    {
      "anonymous": false,
      "inputs": [
        {
          "indexed": false,
          "name": "sender",
          "type": "address"
        },
        {
          "indexed": false,
          "name": "token",
          "type": "bytes32"
        }
      ],
      "name": "LoginAttempt",
      "type": "event"
    },
    {
      "constant": false,
      "inputs": [],
      "name": "rand",
      "outputs": [
        {
          "name": "",
          "type": "bytes32"
        }
      ],
      "payable": false,
      "stateMutability": "nonpayable",
      "type": "function"
    },
    {
      "constant": false,
      "inputs": [],
      "name": "login_admin",
      "outputs": [],
      "payable": false,
      "stateMutability": "nonpayable",
      "type": "function"
    }
  ],
  "bytecode": "0x6080604052348015600f57600080fd5b506101108061001f6000396000f3fe6080604052348015600f57600080fd5b506004361060325760003560e01c80633b3dca76146037578063f262c49f14604f575b600080fd5b603d6057565b60408051918252519081900360200190f35b60556060565b005b60001943014090565b60666057565b60008190556040805133606081901b602080840191909152426034840152605480840195909552835180840390950185526074830180855285519590910194909420600181905593526094810192909252517f5913a2a1da9e820000b253b31744f5c4b17e184c6d3f19d8e9beaef994d804f89181900360b40190a156fea165627a7a72305820d41a2d7561fcee2ec0dc2bcf7a20ef0e41ffa987fda11671aba3c0783fdff0150029",
  "source": "pragma solidity ^0.5.0;\r\n\r\ncontract Login{\r\n\r\n\tevent LoginAttempt(address sender, bytes32 token);\r\n    bytes32 random_number;\r\n    bytes32 token;\r\n\r\n    // min and max are not needed now, some future work idea\r\n    function rand() public returns (bytes32) {\r\n        uint256 lastBlockNumber = block.number - 1;\r\n        bytes32 hashVal = bytes32(blockhash(lastBlockNumber));\r\n        return bytes32(hashVal);\r\n    }\r\n    \r\n    function login_admin() public { \r\n\t\trandom_number = rand();\r\n        token = keccak256(abi.encodePacked(msg.sender,now,random_number));\r\n        emit LoginAttempt(msg.sender, token);\r\n    }\r\n\r\n}",
  "sourcePath": "C:/Users/Mkay_DaSextja/Documents/BScHons - UJ/Project/Code/block-auth-contract/contracts/Login.sol",
  "compiler": {
    "name": "solc",
    "version": "0.5.8+commit.23d335f2.Emscripten.clang"
  },
  "schemaVersion": "3.0.11",
  "updatedAt": "2019-07-30T10:26:28.255Z",
  "devdoc": {
    "methods": {}
  },
  "userdoc": {
    "methods": {}
  }
}