{
  "contractName": "LogsAuth",
  "abi": [
    {
      "constant": true,
      "inputs": [],
      "name": "logsCount",
      "outputs": [
        {
          "name": "",
          "type": "uint256"
        }
      ],
      "payable": false,
      "stateMutability": "view",
      "type": "function"
    },
    {
      "constant": true,
      "inputs": [
        {
          "name": "",
          "type": "uint256"
        }
      ],
      "name": "logs",
      "outputs": [
        {
          "name": "id",
          "type": "uint256"
        },
        {
          "name": "action",
          "type": "string"
        },
        {
          "name": "account",
          "type": "address"
        },
        {
          "name": "role",
          "type": "string"
        }
      ],
      "payable": false,
      "stateMutability": "view",
      "type": "function"
    },
    {
      "anonymous": false,
      "inputs": [
        {
          "indexed": false,
          "name": "id",
          "type": "uint256"
        },
        {
          "indexed": false,
          "name": "action",
          "type": "string"
        },
        {
          "indexed": false,
          "name": "account",
          "type": "address"
        },
        {
          "indexed": false,
          "name": "role",
          "type": "string"
        }
      ],
      "name": "LogAdded",
      "type": "event"
    },
    {
      "constant": false,
      "inputs": [
        {
          "name": "action",
          "type": "string"
        },
        {
          "name": "account",
          "type": "address"
        },
        {
          "name": "role",
          "type": "string"
        }
      ],
      "name": "addLog",
      "outputs": [],
      "payable": false,
      "stateMutability": "nonpayable",
      "type": "function"
    }
  ],
  "bytecode": "0x60806040526000805534801561001457600080fd5b5061069b806100246000396000f3fe608060405234801561001057600080fd5b50600436106100415760003560e01c80636441ddde14610046578063cd1f839314610186578063e79899bd146101a0575b600080fd5b6101846004803603606081101561005c57600080fd5b81019060208101813564010000000081111561007757600080fd5b82018360208201111561008957600080fd5b803590602001918460018302840111640100000000831117156100ab57600080fd5b91908080601f01602080910402602001604051908101604052809392919081815260200183838082843760009201919091525092956001600160a01b0385351695909490935060408101925060200135905064010000000081111561010f57600080fd5b82018360208201111561012157600080fd5b8035906020019184600183028401116401000000008311171561014357600080fd5b91908080601f0160208091040260200160405190810160405280939291908181526020018383808284376000920191909152509295506102bb945050505050565b005b61018e610486565b60408051918252519081900360200190f35b6101bd600480360360208110156101b657600080fd5b503561048c565b6040518085815260200180602001846001600160a01b03166001600160a01b0316815260200180602001838103835286818151815260200191508051906020019080838360005b8381101561021c578181015183820152602001610204565b50505050905090810190601f1680156102495780820380516001836020036101000a031916815260200191505b50838103825284518152845160209182019186019080838360005b8381101561027c578181015183820152602001610264565b50505050905090810190601f1680156102a95780820380516001836020036101000a031916815260200191505b50965050505050505060405180910390f35b6000805460019081018083556040805160808101825282815260208082018981526001600160a01b03891683850152606083018890529386528481529190942084518155915180519293610317939085019291909101906105d4565b5060408201516002820180546001600160a01b0319166001600160a01b03909216919091179055606082015180516103599160038401916020909101906105d4565b509050507f3b803c1c440f8884cc716057f47203dbaf4372ccb47619c0041b7e2584a8bd6e6000548484846040518085815260200180602001846001600160a01b03166001600160a01b0316815260200180602001838103835286818151815260200191508051906020019080838360005b838110156103e35781810151838201526020016103cb565b50505050905090810190601f1680156104105780820380516001836020036101000a031916815260200191505b50838103825284518152845160209182019186019080838360005b8381101561044357818101518382015260200161042b565b50505050905090810190601f1680156104705780820380516001836020036101000a031916815260200191505b50965050505050505060405180910390a1505050565b60005481565b600160208181526000928352604092839020805481840180548651600296821615610100026000190190911695909504601f810185900485028601850190965285855290949193929091908301828280156105285780601f106104fd57610100808354040283529160200191610528565b820191906000526020600020905b81548152906001019060200180831161050b57829003601f168201915b505050506002838101546003850180546040805160206101006001851615026000190190931695909504601f810183900483028601830190915280855295966001600160a01b03909316959294509091908301828280156105ca5780601f1061059f576101008083540402835291602001916105ca565b820191906000526020600020905b8154815290600101906020018083116105ad57829003601f168201915b5050505050905084565b828054600181600116156101000203166002900490600052602060002090601f016020900481019282601f1061061557805160ff1916838001178555610642565b82800160010185558215610642579182015b82811115610642578251825591602001919060010190610627565b5061064e929150610652565b5090565b61066c91905b8082111561064e5760008155600101610658565b9056fea165627a7a723058207cb44b7f960bc7ab38e59eefdb2152427a38886da562965145b8a5b064ed211a0029",
  "source": "pragma solidity ^0.5.0;\r\n\r\ncontract LogsAuth{\r\n    uint public logsCount = 0;\r\n\r\n    mapping(uint => Log) public logs;\r\n\r\n    struct Log{\r\n        uint id;\r\n        string action;\r\n        address account;\r\n        string role;\r\n    }\r\n\r\n    function addLog(string memory action, address account, string memory role) public {\r\n        logsCount ++;\r\n        logs[logsCount] = Log(logsCount,action, account, role);\r\n        emit LogAdded(logsCount, action, account, role);\r\n    }\r\n\r\n    event LogAdded(uint id,string action,address account, string role);\r\n}",
  "sourcePath": "C:/Users/Mkhululi Mtshemla/Documents/BScHons Computer Science/First Semester/Project/D4 Prototype/block-auth-contract/contracts/LogsAuth.sol",
  "compiler": {
    "name": "solc",
    "version": "0.5.8+commit.23d335f2.Emscripten.clang"
  },
  "schemaVersion": "3.0.11",
  "updatedAt": "2019-11-03T17:24:15.685Z",
  "devdoc": {
    "methods": {}
  },
  "userdoc": {
    "methods": {}
  }
}