{
  "contractName": "LogsAuth",
  "abi": [
    {
      "constant": true,
      "inputs": [],
      "name": "logsCount",
      "outputs": [
        {
          "name": "",
          "type": "uint256"
        }
      ],
      "payable": false,
      "stateMutability": "view",
      "type": "function"
    },
    {
      "constant": true,
      "inputs": [
        {
          "name": "",
          "type": "uint256"
        }
      ],
      "name": "logs",
      "outputs": [
        {
          "name": "id",
          "type": "uint256"
        },
        {
          "name": "action",
          "type": "string"
        },
        {
          "name": "account",
          "type": "address"
        },
        {
          "name": "username",
          "type": "string"
        },
        {
          "name": "time",
          "type": "string"
        },
        {
          "name": "role",
          "type": "string"
        }
      ],
      "payable": false,
      "stateMutability": "view",
      "type": "function"
    },
    {
      "anonymous": false,
      "inputs": [
        {
          "indexed": false,
          "name": "id",
          "type": "uint256"
        },
        {
          "indexed": false,
          "name": "action",
          "type": "string"
        },
        {
          "indexed": false,
          "name": "account",
          "type": "address"
        },
        {
          "indexed": false,
          "name": "username",
          "type": "string"
        },
        {
          "indexed": false,
          "name": "time",
          "type": "string"
        },
        {
          "indexed": false,
          "name": "role",
          "type": "string"
        }
      ],
      "name": "LogAdded",
      "type": "event"
    },
    {
      "constant": false,
      "inputs": [
        {
          "name": "action",
          "type": "string"
        },
        {
          "name": "account",
          "type": "address"
        },
        {
          "name": "username",
          "type": "string"
        },
        {
          "name": "time",
          "type": "string"
        },
        {
          "name": "role",
          "type": "string"
        }
      ],
      "name": "addLog",
      "outputs": [],
      "payable": false,
      "stateMutability": "nonpayable",
      "type": "function"
    }
  ],
  "bytecode": "0x60806040526000805534801561001457600080fd5b50610aa3806100246000396000f3fe608060405234801561001057600080fd5b50600436106100415760003560e01c8063b88204bb14610046578063cd1f83931461028c578063e79899bd146102a6575b600080fd5b61028a600480360360a081101561005c57600080fd5b810190602081018135600160201b81111561007657600080fd5b82018360208201111561008857600080fd5b803590602001918460018302840111600160201b831117156100a957600080fd5b91908080601f01602080910402602001604051908101604052809392919081815260200183838082843760009201919091525092956001600160a01b03853516959094909350604081019250602001359050600160201b81111561010c57600080fd5b82018360208201111561011e57600080fd5b803590602001918460018302840111600160201b8311171561013f57600080fd5b91908080601f0160208091040260200160405190810160405280939291908181526020018383808284376000920191909152509295949360208101935035915050600160201b81111561019157600080fd5b8201836020820111156101a357600080fd5b803590602001918460018302840111600160201b831117156101c457600080fd5b91908080601f0160208091040260200160405190810160405280939291908181526020018383808284376000920191909152509295949360208101935035915050600160201b81111561021657600080fd5b82018360208201111561022857600080fd5b803590602001918460018302840111600160201b8311171561024957600080fd5b91908080601f01602080910402602001604051908101604052809392919081815260200183838082843760009201919091525092955061048d945050505050565b005b61029461076e565b60408051918252519081900360200190f35b6102c3600480360360208110156102bc57600080fd5b5035610774565b6040518087815260200180602001866001600160a01b03166001600160a01b0316815260200180602001806020018060200185810385528a818151815260200191508051906020019080838360005b8381101561032a578181015183820152602001610312565b50505050905090810190601f1680156103575780820380516001836020036101000a031916815260200191505b5085810384528851815288516020918201918a019080838360005b8381101561038a578181015183820152602001610372565b50505050905090810190601f1680156103b75780820380516001836020036101000a031916815260200191505b50858103835287518152875160209182019189019080838360005b838110156103ea5781810151838201526020016103d2565b50505050905090810190601f1680156104175780820380516001836020036101000a031916815260200191505b50858103825286518152865160209182019188019080838360005b8381101561044a578181015183820152602001610432565b50505050905090810190601f1680156104775780820380516001836020036101000a031916815260200191505b509a505050505050505050505060405180910390f35b6000805460019081018083556040805160c08101825282815260208082018b81526001600160a01b038b1683850152606083018a90526080830189905260a0830188905293865284815291909420845181559151805192936104f7939085019291909101906109dc565b5060408201516002820180546001600160a01b0319166001600160a01b03909216919091179055606082015180516105399160038401916020909101906109dc565b50608082015180516105559160048401916020909101906109dc565b5060a082015180516105719160058401916020909101906109dc565b509050507f3e503d13711ea52febced43ebfe873558431e88742a4bb87a489a132f1d96ce160005486868686866040518087815260200180602001866001600160a01b03166001600160a01b0316815260200180602001806020018060200185810385528a818151815260200191508051906020019080838360005b838110156106055781810151838201526020016105ed565b50505050905090810190601f1680156106325780820380516001836020036101000a031916815260200191505b5085810384528851815288516020918201918a019080838360005b8381101561066557818101518382015260200161064d565b50505050905090810190601f1680156106925780820380516001836020036101000a031916815260200191505b50858103835287518152875160209182019189019080838360005b838110156106c55781810151838201526020016106ad565b50505050905090810190601f1680156106f25780820380516001836020036101000a031916815260200191505b50858103825286518152865160209182019188019080838360005b8381101561072557818101518382015260200161070d565b50505050905090810190601f1680156107525780820380516001836020036101000a031916815260200191505b509a505050505050505050505060405180910390a15050505050565b60005481565b600160208181526000928352604092839020805481840180548651600296821615610100026000190190911695909504601f810185900485028601850190965285855290949193929091908301828280156108105780601f106107e557610100808354040283529160200191610810565b820191906000526020600020905b8154815290600101906020018083116107f357829003601f168201915b505050506002838101546003850180546040805160206101006001851615026000190190931695909504601f810183900483028601830190915280855295966001600160a01b03909316959294509091908301828280156108b25780601f10610887576101008083540402835291602001916108b2565b820191906000526020600020905b81548152906001019060200180831161089557829003601f168201915b5050505060048301805460408051602060026001851615610100026000190190941693909304601f81018490048402820184019092528181529495949350908301828280156109425780601f1061091757610100808354040283529160200191610942565b820191906000526020600020905b81548152906001019060200180831161092557829003601f168201915b5050505060058301805460408051602060026001851615610100026000190190941693909304601f81018490048402820184019092528181529495949350908301828280156109d25780601f106109a7576101008083540402835291602001916109d2565b820191906000526020600020905b8154815290600101906020018083116109b557829003601f168201915b5050505050905086565b828054600181600116156101000203166002900490600052602060002090601f016020900481019282601f10610a1d57805160ff1916838001178555610a4a565b82800160010185558215610a4a579182015b82811115610a4a578251825591602001919060010190610a2f565b50610a56929150610a5a565b5090565b610a7491905b80821115610a565760008155600101610a60565b9056fea165627a7a723058201d1511a09d231bf4be36dc5a77d12faddc4cc5738be4c897ae8fa74700dfb3a30029",
  "source": "pragma solidity ^0.5.0;\r\n\r\ncontract LogsAuth{\r\n    uint public logsCount = 0;\r\n\r\n    mapping(uint => Log) public logs;\r\n\r\n    struct Log{\r\n        uint id;\r\n        string action;\r\n        address account;\r\n        string username;\r\n        string time;\r\n        string role;\r\n    }\r\n\r\n    function addLog(string memory action, address account, string memory username,string memory time, string memory role) public {\r\n        logsCount ++;\r\n        logs[logsCount] = Log(logsCount,action, account,username, time, role);\r\n        emit LogAdded(logsCount, action, account, username, time, role);\r\n    }\r\n\r\n    event LogAdded(uint id,string action,address account,string username, string time, string role);\r\n}",
  "sourcePath": "C:/Users/Mkhululi Mtshemla/Documents/BScHons Computer Science/First Semester/Project/D4 Prototype/block-auth-contract/contracts/LogsAuth.sol",
  "compiler": {
    "name": "solc",
    "version": "0.5.8+commit.23d335f2.Emscripten.clang"
  },
  "schemaVersion": "3.0.11",
  "updatedAt": "2019-11-02T11:29:45.909Z",
  "devdoc": {
    "methods": {}
  },
  "userdoc": {
    "methods": {}
  }
}