{
  "contractName": "OwnerRoleAuth",
  "abi": [
    {
      "constant": true,
      "inputs": [],
      "name": "off",
      "outputs": [
        {
          "name": "",
          "type": "bool"
        }
      ],
      "payable": false,
      "stateMutability": "view",
      "type": "function"
    },
    {
      "constant": true,
      "inputs": [],
      "name": "on",
      "outputs": [
        {
          "name": "",
          "type": "bool"
        }
      ],
      "payable": false,
      "stateMutability": "view",
      "type": "function"
    },
    {
      "inputs": [],
      "payable": false,
      "stateMutability": "nonpayable",
      "type": "constructor"
    },
    {
      "anonymous": false,
      "inputs": [
        {
          "indexed": false,
          "name": "on",
          "type": "bool"
        },
        {
          "indexed": false,
          "name": "off",
          "type": "bool"
        }
      ],
      "name": "OwnerRoleUpdated",
      "type": "event"
    },
    {
      "constant": false,
      "inputs": [
        {
          "name": "onCommand",
          "type": "bool"
        },
        {
          "name": "offCommand",
          "type": "bool"
        }
      ],
      "name": "updateOwnerRole",
      "outputs": [],
      "payable": false,
      "stateMutability": "nonpayable",
      "type": "function"
    }
  ],
  "bytecode": "0x608060405234801561001057600080fd5b506000805461ff001960ff1990911660011716610100179055610142806100386000396000f3fe608060405234801561001057600080fd5b50600436106100415760003560e01c80636626b26d1461004657806367b7c03414610062578063edf35cf81461006a575b600080fd5b61004e610093565b604080519115158252519081900360200190f35b61004e6100a1565b6100916004803603604081101561008057600080fd5b5080351515906020013515156100aa565b005b600054610100900460ff1681565b60005460ff1681565b6000805460ff19168315151761ff001916610100831515810291909117918290556040805160ff80851615158252929093049091161515602083015280517f9e2db047e554d55a2c954aefe4cb14d674aa72716e8d0bcc8691d77a763db36f9281900390910190a1505056fea165627a7a723058209c3f378ab23491c7b0cd9349b3de3a1a819992685545e31a8b1f0708d2dcbe2b0029",
  "source": "pragma solidity ^0.5.0;\r\n\r\ncontract OwnerRoleAuth {\r\n  bool public on;\r\n  bool public off;\r\n\r\n  constructor() public {\r\n      on = true;\r\n      off = true;\r\n  }\r\n\r\n  function updateOwnerRole(bool onCommand,bool offCommand) public {\r\n    on = onCommand;\r\n    off = offCommand;\r\n    emit OwnerRoleUpdated(on, off);\r\n  }\r\n\r\n  event OwnerRoleUpdated(\r\n      bool on,\r\n      bool off\r\n  );\r\n\r\n}",
  "sourcePath": "C:/Users/Mkhululi Mtshemla/Documents/BScHons Computer Science/First Semester/Project/D4 Prototype/block-auth-contract/contracts/OwnerRoleAuth.sol",
  "compiler": {
    "name": "solc",
    "version": "0.5.8+commit.23d335f2.Emscripten.clang"
  },
  "schemaVersion": "3.0.11",
  "updatedAt": "2019-11-02T11:29:46.200Z",
  "devdoc": {
    "methods": {}
  },
  "userdoc": {
    "methods": {}
  }
}