{
  "contractName": "RoleAuth",
  "abi": [
    {
      "constant": true,
      "inputs": [],
      "name": "roleCount",
      "outputs": [
        {
          "name": "",
          "type": "uint256"
        }
      ],
      "payable": false,
      "stateMutability": "view",
      "type": "function"
    },
    {
      "inputs": [],
      "payable": false,
      "stateMutability": "nonpayable",
      "type": "constructor"
    },
    {
      "anonymous": false,
      "inputs": [
        {
          "indexed": false,
          "name": "id",
          "type": "uint256"
        },
        {
          "indexed": false,
          "name": "name",
          "type": "string"
        }
      ],
      "name": "RoleCreated",
      "type": "event"
    },
    {
      "anonymous": false,
      "inputs": [
        {
          "indexed": false,
          "name": "id",
          "type": "uint256"
        },
        {
          "indexed": false,
          "name": "name",
          "type": "string"
        }
      ],
      "name": "RoleUpdate",
      "type": "event"
    },
    {
      "constant": false,
      "inputs": [
        {
          "name": "name",
          "type": "string"
        }
      ],
      "name": "createRole",
      "outputs": [],
      "payable": false,
      "stateMutability": "nonpayable",
      "type": "function"
    }
  ],
  "bytecode": "0x60806040526000805534801561001457600080fd5b506100596040518060400160405280600581526020017f6f776e657200000000000000000000000000000000000000000000000000000081525061005e60201b60201c565b610297565b60008054600101905561006f6101e4565b506040805160808101825260028183019081527f6f6e0000000000000000000000000000000000000000000000000000000000006060808401919091529082526001602080840182905284519283018552600080548085528483018881528588018790529082528383529590208351815594518051949593946100f99385019291909101906101fc565b506040820151805180516002840191610117918391602001906101fc565b5060208201518160010160006101000a81548160ff02191690831515021790555050509050507f33d5db5dadf5598bea14bf7ec1ca42f58c47dd66bb953ae16559d034bd12dd23600054836040518083815260200180602001828103825283818151815260200191508051906020019080838360005b838110156101a557818101518382015260200161018d565b50505050905090810190601f1680156101d25780820380516001836020036101000a031916815260200191505b50935050505060405180910390a15050565b60408051808201909152606081526000602082015290565b828054600181600116156101000203166002900490600052602060002090601f016020900481019282601f1061023d57805160ff191683800117855561026a565b8280016001018555821561026a579182015b8281111561026a57825182559160200191906001019061024f565b5061027692915061027a565b5090565b61029491905b808211156102765760008155600101610280565b90565b610350806102a66000396000f3fe608060405234801561001057600080fd5b50600436106100365760003560e01c8063af17d38a1461003b578063ddf96358146100e3575b600080fd5b6100e16004803603602081101561005157600080fd5b81019060208101813564010000000081111561006c57600080fd5b82018360208201111561007e57600080fd5b803590602001918460018302840111640100000000831117156100a057600080fd5b91908080601f0160208091040260200160405190810160405280939291908181526020018383808284376000920191909152509295506100fd945050505050565b005b6100eb61026b565b60408051918252519081900360200190f35b60008054600101905561010e610271565b50604080516080810182526002818301908152600160f11b6137b702606080840191909152908252600160208084018290528451928301855260008054808552848301888152858801879052908252838352959020835181559451805194959394610180938501929190910190610289565b50604082015180518051600284019161019e91839160200190610289565b5060208201518160010160006101000a81548160ff02191690831515021790555050509050507f33d5db5dadf5598bea14bf7ec1ca42f58c47dd66bb953ae16559d034bd12dd23600054836040518083815260200180602001828103825283818151815260200191508051906020019080838360005b8381101561022c578181015183820152602001610214565b50505050905090810190601f1680156102595780820380516001836020036101000a031916815260200191505b50935050505060405180910390a15050565b60005481565b60408051808201909152606081526000602082015290565b828054600181600116156101000203166002900490600052602060002090601f016020900481019282601f106102ca57805160ff19168380011785556102f7565b828001600101855582156102f7579182015b828111156102f75782518255916020019190600101906102dc565b50610303929150610307565b5090565b61032191905b80821115610303576000815560010161030d565b9056fea165627a7a723058205fd13270585cbca1d726c0ffa2cbe06510ca3b5059d4f9865700bf792c4018be0029",
  "source": "pragma solidity ^0.5.0;\r\n\r\ncontract RoleAuth  {\r\n  uint public roleCount = 0;\r\n  \r\n  struct Role {\r\n    uint id;\r\n    string name;\r\n    Permission per;\r\n  }\r\n\r\n  struct Permission{\r\n      string title;\r\n      bool Selected;\r\n  }\r\n\r\n  mapping(uint => Role) roles;\r\n  \r\n  event RoleCreated(\r\n    uint id,\r\n    string name\r\n  );\r\n\r\n  event RoleUpdate(\r\n    uint id,\r\n    string name\r\n  );\r\n\r\n  constructor() public {\r\n    createRole(\"owner\");\r\n  }\r\n\r\n  function createRole(string memory name) public {\r\n    roleCount ++;\r\n    Permission memory p = Permission('on',true);\r\n    roles[roleCount] = Role(roleCount, name,p);\r\n    \r\n    emit RoleCreated(roleCount, name);\r\n  }\r\n\r\n}",
  "sourcePath": "C:/Users/Mkay_DaSextja/Documents/BScHons - UJ/Project/Code/block-auth-contract/contracts/RoleAuth.sol",
  "compiler": {
    "name": "solc",
    "version": "0.5.8+commit.23d335f2.Emscripten.clang"
  },
  "schemaVersion": "3.0.11",
  "updatedAt": "2019-09-16T09:57:43.465Z",
  "devdoc": {
    "methods": {}
  },
  "userdoc": {
    "methods": {}
  }
}