{
  "contractName": "RoleAuth",
  "abi": [
    {
      "inputs": [],
      "payable": false,
      "stateMutability": "nonpayable",
      "type": "constructor"
    },
    {
      "anonymous": false,
      "inputs": [
        {
          "indexed": false,
          "name": "on",
          "type": "bool"
        },
        {
          "indexed": false,
          "name": "off",
          "type": "bool"
        }
      ],
      "name": "OwnerRoleUpdated",
      "type": "event"
    },
    {
      "anonymous": false,
      "inputs": [
        {
          "indexed": false,
          "name": "on",
          "type": "bool"
        },
        {
          "indexed": false,
          "name": "off",
          "type": "bool"
        }
      ],
      "name": "GuestRoleUpdated",
      "type": "event"
    },
    {
      "constant": false,
      "inputs": [
        {
          "name": "on",
          "type": "bool"
        },
        {
          "name": "off",
          "type": "bool"
        }
      ],
      "name": "updateOwnerRole",
      "outputs": [],
      "payable": false,
      "stateMutability": "nonpayable",
      "type": "function"
    },
    {
      "constant": false,
      "inputs": [
        {
          "name": "on",
          "type": "bool"
        },
        {
          "name": "off",
          "type": "bool"
        }
      ],
      "name": "UpdateGuestRole",
      "outputs": [],
      "payable": false,
      "stateMutability": "nonpayable",
      "type": "function"
    }
  ],
  "bytecode": "0x608060405234801561001057600080fd5b5061002260018061003860201b60201c565b61003360018061009560201b60201c565b610109565b6100406100f2565b5060408051808201825283151580825283151560208084018290528451928352820152825191927f9e2db047e554d55a2c954aefe4cb14d674aa72716e8d0bcc8691d77a763db36f92918290030190a1505050565b61009d6100f2565b5060408051808201825283151580825283151560208084018290528451928352820152825191927fe64deeb8da62acafa673404a9fc9133e506ffaafb67e7097a2a6b0401b30d6df92918290030190a1505050565b604080518082019091526000808252602082015290565b610188806101186000396000f3fe608060405234801561001057600080fd5b50600436106100365760003560e01c8063edf35cf81461003b578063f26d64da14610064575b600080fd5b6100626004803603604081101561005157600080fd5b50803515159060200135151561008b565b005b6100626004803603604081101561007a57600080fd5b5080351515906020013515156100e8565b610093610145565b5060408051808201825283151580825283151560208084018290528451928352820152825191927f9e2db047e554d55a2c954aefe4cb14d674aa72716e8d0bcc8691d77a763db36f92918290030190a1505050565b6100f0610145565b5060408051808201825283151580825283151560208084018290528451928352820152825191927fe64deeb8da62acafa673404a9fc9133e506ffaafb67e7097a2a6b0401b30d6df92918290030190a1505050565b60408051808201909152600080825260208201529056fea165627a7a7230582023292b83f0e27aca2827e4a634df1b5ce1bad8428925ea776da61668cb49cf730029",
  "source": "pragma solidity ^0.5.0;\r\n\r\ncontract RoleAuth {\r\n  OwnerRole or;\r\n  GuestRole gr;\r\n\r\n  struct OwnerRole {\r\n    bool on;\r\n    bool off;\r\n  }\r\n\r\n  struct GuestRole {\r\n    bool on;\r\n    bool off;\r\n  }\r\n\r\n  event OwnerRoleUpdated(\r\n    bool on,\r\n    bool off\r\n  );\r\n\r\n  event GuestRoleUpdated(\r\n    bool on,\r\n    bool off\r\n  );\r\n  \r\n  constructor() public {\r\n    updateOwnerRole(true,true);\r\n    UpdateGuestRole(true,true);\r\n  }\r\n\r\n\r\n  function updateOwnerRole(bool on,bool off) public {\r\n    OwnerRole memory _or = or;\r\n    _or.on = on;\r\n    _or.off = off;\r\n    emit OwnerRoleUpdated(_or.on, _or.off);\r\n  }\r\n\r\n  function UpdateGuestRole(bool on,bool off) public {\r\n    GuestRole memory _gr = gr;\r\n    _gr.on = on;\r\n    _gr.off = off;\r\n    emit GuestRoleUpdated(_gr.on, _gr.off);\r\n  }\r\n\r\n}",
  "sourcePath": "C:/Users/Mkay_DaSextja/Documents/BScHons - UJ/Project/Code/block-auth-contract/contracts/RoleAuth.sol",
  "compiler": {
    "name": "solc",
    "version": "0.5.8+commit.23d335f2.Emscripten.clang"
  },
  "schemaVersion": "3.0.11",
  "updatedAt": "2019-09-19T02:48:19.135Z",
  "devdoc": {
    "methods": {}
  },
  "userdoc": {
    "methods": {}
  }
}