{
  "contractName": "RoleAuth",
  "abi": [
    {
      "constant": true,
      "inputs": [
        {
          "name": "",
          "type": "uint256"
        }
      ],
      "name": "roles",
      "outputs": [
        {
          "name": "id",
          "type": "uint256"
        },
        {
          "name": "name",
          "type": "string"
        }
      ],
      "payable": false,
      "stateMutability": "view",
      "type": "function"
    },
    {
      "constant": true,
      "inputs": [],
      "name": "roleCount",
      "outputs": [
        {
          "name": "",
          "type": "uint256"
        }
      ],
      "payable": false,
      "stateMutability": "view",
      "type": "function"
    },
    {
      "inputs": [],
      "payable": false,
      "stateMutability": "nonpayable",
      "type": "constructor"
    },
    {
      "anonymous": false,
      "inputs": [
        {
          "indexed": false,
          "name": "id",
          "type": "uint256"
        },
        {
          "indexed": false,
          "name": "name",
          "type": "string"
        }
      ],
      "name": "RoleCreated",
      "type": "event"
    },
    {
      "anonymous": false,
      "inputs": [
        {
          "indexed": false,
          "name": "id",
          "type": "uint256"
        },
        {
          "indexed": false,
          "name": "name",
          "type": "string"
        }
      ],
      "name": "RoleUpdate",
      "type": "event"
    },
    {
      "constant": false,
      "inputs": [
        {
          "name": "name",
          "type": "string"
        }
      ],
      "name": "createRole",
      "outputs": [],
      "payable": false,
      "stateMutability": "nonpayable",
      "type": "function"
    }
  ],
  "bytecode": "0x60806040526000805534801561001457600080fd5b506100596040518060400160405280600581526020017f6f776e657200000000000000000000000000000000000000000000000000000081525061005e60201b60201c565b6101e9565b600080546001908101808355604080518082018252828152602080820187815293865284815291909420845181559151805192936100a49390850192919091019061014e565b509050507f33d5db5dadf5598bea14bf7ec1ca42f58c47dd66bb953ae16559d034bd12dd23600054826040518083815260200180602001828103825283818151815260200191508051906020019080838360005b838110156101105781810151838201526020016100f8565b50505050905090810190601f16801561013d5780820380516001836020036101000a031916815260200191505b50935050505060405180910390a150565b828054600181600116156101000203166002900490600052602060002090601f016020900481019282601f1061018f57805160ff19168380011785556101bc565b828001600101855582156101bc579182015b828111156101bc5782518255916020019190600101906101a1565b506101c89291506101cc565b5090565b6101e691905b808211156101c857600081556001016101d2565b90565b610407806101f86000396000f3fe608060405234801561001057600080fd5b50600436106100415760003560e01c8063af17d38a14610046578063bfda4a49146100ee578063ddf963581461018a575b600080fd5b6100ec6004803603602081101561005c57600080fd5b81019060208101813564010000000081111561007757600080fd5b82018360208201111561008957600080fd5b803590602001918460018302840111640100000000831117156100ab57600080fd5b91908080601f0160208091040260200160405190810160405280939291908181526020018383808284376000920191909152509295506101a4945050505050565b005b61010b6004803603602081101561010457600080fd5b5035610294565b6040518083815260200180602001828103825283818151815260200191508051906020019080838360005b8381101561014e578181015183820152602001610136565b50505050905090810190601f16801561017b5780820380516001836020036101000a031916815260200191505b50935050505060405180910390f35b61019261033a565b60408051918252519081900360200190f35b600080546001908101808355604080518082018252828152602080820187815293865284815291909420845181559151805192936101ea93908501929190910190610340565b509050507f33d5db5dadf5598bea14bf7ec1ca42f58c47dd66bb953ae16559d034bd12dd23600054826040518083815260200180602001828103825283818151815260200191508051906020019080838360005b8381101561025657818101518382015260200161023e565b50505050905090810190601f1680156102835780820380516001836020036101000a031916815260200191505b50935050505060405180910390a150565b600160208181526000928352604092839020805481840180548651600296821615610100026000190190911695909504601f810185900485028601850190965285855290949193929091908301828280156103305780601f1061030557610100808354040283529160200191610330565b820191906000526020600020905b81548152906001019060200180831161031357829003601f168201915b5050505050905082565b60005481565b828054600181600116156101000203166002900490600052602060002090601f016020900481019282601f1061038157805160ff19168380011785556103ae565b828001600101855582156103ae579182015b828111156103ae578251825591602001919060010190610393565b506103ba9291506103be565b5090565b6103d891905b808211156103ba57600081556001016103c4565b9056fea165627a7a7230582064c91743c8c7916c96846740aecd15cb97e43c1d057e27ac192faeccaf73c51e0029",
  "source": "pragma solidity ^0.5.0;\r\n\r\ncontract RoleAuth  {\r\n  uint public roleCount = 0;\r\n  \r\n  struct Role {\r\n    uint id;\r\n    string name;\r\n  }\r\n\r\n  mapping(uint => Role) public roles;\r\n  \r\n  event RoleCreated(\r\n    uint id,\r\n    string name\r\n  );\r\n\r\n  event RoleUpdate(\r\n    uint id,\r\n    string name\r\n  );\r\n\r\n  constructor() public {\r\n    createRole(\"owner\");\r\n  }\r\n\r\n  function createRole(string memory name) public {\r\n    roleCount ++;\r\n    roles[roleCount] = Role(roleCount, name);\r\n    emit RoleCreated(roleCount, name);\r\n  }\r\n\r\n}",
  "sourcePath": "C:/Users/Mkay_DaSextja/Documents/BScHons - UJ/Project/Code/block-auth-contract/contracts/RoleAuth.sol",
  "compiler": {
    "name": "solc",
    "version": "0.5.8+commit.23d335f2.Emscripten.clang"
  },
  "schemaVersion": "3.0.11",
  "updatedAt": "2019-09-16T10:08:44.927Z",
  "devdoc": {
    "methods": {}
  },
  "userdoc": {
    "methods": {}
  }
}