{
  "contractName": "TodoList",
  "abi": [
    {
      "constant": true,
      "inputs": [
        {
          "name": "",
          "type": "uint256"
        }
      ],
      "name": "permissions",
      "outputs": [
        {
          "name": "title",
          "type": "string"
        },
        {
          "name": "Selected",
          "type": "bool"
        }
      ],
      "payable": false,
      "stateMutability": "view",
      "type": "function"
    },
    {
      "constant": true,
      "inputs": [
        {
          "name": "",
          "type": "uint256"
        }
      ],
      "name": "roles",
      "outputs": [
        {
          "name": "id",
          "type": "uint256"
        },
        {
          "name": "name",
          "type": "string"
        }
      ],
      "payable": false,
      "stateMutability": "view",
      "type": "function"
    },
    {
      "constant": true,
      "inputs": [],
      "name": "roleCount",
      "outputs": [
        {
          "name": "",
          "type": "uint256"
        }
      ],
      "payable": false,
      "stateMutability": "view",
      "type": "function"
    },
    {
      "inputs": [],
      "payable": false,
      "stateMutability": "nonpayable",
      "type": "constructor"
    },
    {
      "anonymous": false,
      "inputs": [
        {
          "indexed": false,
          "name": "id",
          "type": "uint256"
        },
        {
          "indexed": false,
          "name": "name",
          "type": "string"
        }
      ],
      "name": "RoleCreated",
      "type": "event"
    },
    {
      "anonymous": false,
      "inputs": [
        {
          "indexed": false,
          "name": "id",
          "type": "uint256"
        },
        {
          "indexed": false,
          "name": "name",
          "type": "string"
        }
      ],
      "name": "RoleUpdate",
      "type": "event"
    },
    {
      "constant": false,
      "inputs": [
        {
          "name": "name",
          "type": "string"
        }
      ],
      "name": "createRole",
      "outputs": [],
      "payable": false,
      "stateMutability": "nonpayable",
      "type": "function"
    }
  ],
  "bytecode": "0x60806040526000805534801561001457600080fd5b506100596040518060400160405280600581526020017f6f776e657200000000000000000000000000000000000000000000000000000081525061005e60201b60201c565b6102f6565b600080546001908101808355604080518082018252828152602080820187815293865284815291909420845181559151805192936100a49390850192919091019061025b565b5050604080518082018252600781527f7475726e206f6e00000000000000000000000000000000000000000000000000602080830191825260008054815260018252848120818052600201909152929092209051610105935090919061025b565b50600080548152600160208181526040808420848052600290810183528185208401805460ff19168517905581518083018352600881527f7475726e206f66660000000000000000000000000000000000000000000000008185019081528654875285855283872095875294909101909252909220915161018792919061025b565b5060008054815260016020818152604080842083855260020182528084208301805460ff19169093179092558254825181815280830184815286519482019490945285517f33d5db5dadf5598bea14bf7ec1ca42f58c47dd66bb953ae16559d034bd12dd239592948794929390926060850192908601918190849084905b8381101561021d578181015183820152602001610205565b50505050905090810190601f16801561024a5780820380516001836020036101000a031916815260200191505b50935050505060405180910390a150565b828054600181600116156101000203166002900490600052602060002090601f016020900481019282601f1061029c57805160ff19168380011785556102c9565b828001600101855582156102c9579182015b828111156102c95782518255916020019190600101906102ae565b506102d59291506102d9565b5090565b6102f391905b808211156102d557600081556001016102df565b90565b610601806103056000396000f3fe608060405234801561001057600080fd5b506004361061004c5760003560e01c806358886dba14610051578063af17d38a146100f1578063bfda4a4914610199578063ddf96358146101f8575b600080fd5b61006e6004803603602081101561006757600080fd5b5035610212565b604051808060200183151515158152602001828103825284818151815260200191508051906020019080838360005b838110156100b557818101518382015260200161009d565b50505050905090810190601f1680156100e25780820380516001836020036101000a031916815260200191505b50935050505060405180910390f35b6101976004803603602081101561010757600080fd5b81019060208101813564010000000081111561012257600080fd5b82018360208201111561013457600080fd5b8035906020019184600183028401116401000000008311171561015657600080fd5b91908080601f0160208091040260200160405190810160405280939291908181526020018383808284376000920191909152509295506102b6945050505050565b005b6101b6600480360360208110156101af57600080fd5b503561048e565b604051808381526020018060200182810382528381815181526020019150805190602001908083836000838110156100b557818101518382015260200161009d565b610200610534565b60408051918252519081900360200190f35b600260208181526000928352604092839020805484516001821615610100026000190190911693909304601f81018390048302840183019094528383529283918301828280156102a35780601f10610278576101008083540402835291602001916102a3565b820191906000526020600020905b81548152906001019060200180831161028657829003601f168201915b5050506001909301549192505060ff1682565b600080546001908101808355604080518082018252828152602080820187815293865284815291909420845181559151805192936102fc9390850192919091019061053a565b505060408051808201825260078152600160c91b663a3ab9371037b70260208083019182526000805481526001825284812081805260020190915292909220905161034a935090919061053a565b50600080548152600160208181526040808420848052600290810183528185208401805460ff1916851790558151808301835260088152600160c11b673a3ab9371037b33302818501908152865487528585528387209587529490910190925290922091516103ba92919061053a565b5060008054815260016020818152604080842083855260020182528084208301805460ff19169093179092558254825181815280830184815286519482019490945285517f33d5db5dadf5598bea14bf7ec1ca42f58c47dd66bb953ae16559d034bd12dd239592948794929390926060850192908601918190849084905b83811015610450578181015183820152602001610438565b50505050905090810190601f16801561047d5780820380516001836020036101000a031916815260200191505b50935050505060405180910390a150565b600160208181526000928352604092839020805481840180548651600296821615610100026000190190911695909504601f8101859004850286018501909652858552909491939290919083018282801561052a5780601f106104ff5761010080835404028352916020019161052a565b820191906000526020600020905b81548152906001019060200180831161050d57829003601f168201915b5050505050905082565b60005481565b828054600181600116156101000203166002900490600052602060002090601f016020900481019282601f1061057b57805160ff19168380011785556105a8565b828001600101855582156105a8579182015b828111156105a857825182559160200191906001019061058d565b506105b49291506105b8565b5090565b6105d291905b808211156105b457600081556001016105be565b9056fea165627a7a7230582088f3ca9e147f6fe0f4f78498415d41c177e840333e79cab31086c487d7a5e8e60029",
  "source": "pragma solidity ^0.5.0;\r\n\r\ncontract TodoList {\r\n  uint public roleCount = 0;\r\n  \r\n  struct Role {\r\n    uint id;\r\n    string name;\r\n    mapping(uint => Permission) permissions;\r\n  }\r\n\r\n  struct Permission{\r\n      string title;\r\n      bool Selected;\r\n  }\r\n\r\n  mapping(uint => Role) public roles;\r\n  mapping(uint => Permission) public permissions;\r\n\r\n  event RoleCreated(\r\n    uint id,\r\n    string name\r\n  );\r\n\r\n  event RoleUpdate(\r\n    uint id,\r\n    string name\r\n  );\r\n\r\n  constructor() public {\r\n    createRole(\"owner\");\r\n  }\r\n\r\n  function createRole(string memory name) public {\r\n    roleCount ++;\r\n    roles[roleCount] = Role(roleCount, name);\r\n    \r\n    roles[roleCount].permissions[0].title = 'turn on';\r\n    roles[roleCount].permissions[0].Selected = true;\r\n    \r\n    roles[roleCount].permissions[1].title = 'turn off';\r\n    roles[roleCount].permissions[1].Selected = true;\r\n    \r\n    emit RoleCreated(roleCount, name);\r\n  }\r\n\r\n}",
  "sourcePath": "C:/Users/Mkay_DaSextja/Documents/BScHons - UJ/Project/Code/block-auth-contract/contracts/RoleAuth.sol",
  "compiler": {
    "name": "solc",
    "version": "0.5.8+commit.23d335f2.Emscripten.clang"
  },
  "schemaVersion": "3.0.11",
  "updatedAt": "2019-09-16T08:28:45.672Z",
  "devdoc": {
    "methods": {}
  },
  "userdoc": {
    "methods": {}
  }
}