{
  "contractName": "UserAuth",
  "abi": [
    {
      "constant": true,
      "inputs": [],
      "name": "userCount",
      "outputs": [
        {
          "name": "",
          "type": "uint256"
        }
      ],
      "payable": false,
      "stateMutability": "view",
      "type": "function"
    },
    {
      "constant": true,
      "inputs": [
        {
          "name": "",
          "type": "uint256"
        },
        {
          "name": "",
          "type": "uint256"
        }
      ],
      "name": "users",
      "outputs": [
        {
          "name": "username",
          "type": "string"
        },
        {
          "name": "account",
          "type": "address"
        },
        {
          "name": "password",
          "type": "string"
        },
        {
          "name": "role",
          "type": "string"
        },
        {
          "name": "token",
          "type": "string"
        }
      ],
      "payable": false,
      "stateMutability": "view",
      "type": "function"
    },
    {
      "inputs": [],
      "payable": false,
      "stateMutability": "nonpayable",
      "type": "constructor"
    },
    {
      "anonymous": false,
      "inputs": [
        {
          "indexed": false,
          "name": "id",
          "type": "uint256"
        },
        {
          "indexed": false,
          "name": "name",
          "type": "string"
        },
        {
          "indexed": false,
          "name": "account",
          "type": "address"
        }
      ],
      "name": "UserAdded",
      "type": "event"
    },
    {
      "constant": false,
      "inputs": [
        {
          "name": "username",
          "type": "string"
        },
        {
          "name": "account",
          "type": "address"
        },
        {
          "name": "password",
          "type": "string"
        },
        {
          "name": "role",
          "type": "string"
        }
      ],
      "name": "addUser",
      "outputs": [],
      "payable": false,
      "stateMutability": "nonpayable",
      "type": "function"
    }
  ],
  "bytecode": "0x6080604052600080553480156200001557600080fd5b50620000c96040518060400160405280600581526020017f6f776e6572000000000000000000000000000000000000000000000000000000815250336040518060400160405280600881526020017f70617373776f72640000000000000000000000000000000000000000000000008152506040518060400160405280600581526020017f6f776e6572000000000000000000000000000000000000000000000000000000815250620000cf60201b60201c565b620003e5565b600080546001019055620000e262000308565b506040805160a0810182528581526001600160a01b03851660208083019190915281830185905260608201849052825180840190935260058084527f4f4f4f4f4f00000000000000000000000000000000000000000000000000000084830152608083019390935260018082527fcc69885fda6bcc1a4ace058b4a62bf5e179ea78fd58a1ccd71c22cc9b688792f805491820180825560009190915283518051949591948694939092027f66b32740ad8041bcc3b909c72d7e1afe60094ec55e3cde329b4b3a28501d826c0192620001c09284929091019062000340565b506020828101516001830180546001600160a01b0319166001600160a01b039092169190911790556040830151805162000201926002850192019062000340565b50606082015180516200021f91600384019160209091019062000340565b50608082015180516200023d91600484019160209091019062000340565b505050507f514af2a82370fd69109ef67206736f3880c4f9c15d2f2acd798b782ae37fdc5a60005486866040518084815260200180602001836001600160a01b03166001600160a01b03168152602001828103825284818151815260200191508051906020019080838360005b83811015620002c4578181015183820152602001620002aa565b50505050905090810190601f168015620002f25780820380516001836020036101000a031916815260200191505b5094505050505060405180910390a15050505050565b6040518060a001604052806060815260200160006001600160a01b031681526020016060815260200160608152602001606081525090565b828054600181600116156101000203166002900490600052602060002090601f016020900481019282601f106200038357805160ff1916838001178555620003b3565b82800160010185558215620003b3579182015b82811115620003b357825182559160200191906001019062000396565b50620003c1929150620003c5565b5090565b620003e291905b80821115620003c15760008155600101620003cc565b90565b6109a980620003f56000396000f3fe608060405234801561001057600080fd5b50600436106100415760003560e01c806307973ccf146100465780631e888b1614610060578063cd600ba914610227575b600080fd5b61004e61040d565b60408051918252519081900360200190f35b6102256004803603608081101561007657600080fd5b81019060208101813564010000000081111561009157600080fd5b8201836020820111156100a357600080fd5b803590602001918460018302840111640100000000831117156100c557600080fd5b91908080601f01602080910402602001604051908101604052809392919081815260200183838082843760009201919091525092956001600160a01b0385351695909490935060408101925060200135905064010000000081111561012957600080fd5b82018360208201111561013b57600080fd5b8035906020019184600183028401116401000000008311171561015d57600080fd5b91908080601f01602080910402602001604051908101604052809392919081815260200183838082843760009201919091525092959493602081019350359150506401000000008111156101b057600080fd5b8201836020820111156101c257600080fd5b803590602001918460018302840111640100000000831117156101e457600080fd5b91908080601f016020809104026020016040519081016040528093929190818152602001838380828437600092019190915250929550610413945050505050565b005b61024a6004803603604081101561023d57600080fd5b508035906020013561062a565b6040518080602001866001600160a01b03166001600160a01b0316815260200180602001806020018060200185810385528a818151815260200191508051906020019080838360005b838110156102ab578181015183820152602001610293565b50505050905090810190601f1680156102d85780820380516001836020036101000a031916815260200191505b5085810384528851815288516020918201918a019080838360005b8381101561030b5781810151838201526020016102f3565b50505050905090810190601f1680156103385780820380516001836020036101000a031916815260200191505b50858103835287518152875160209182019189019080838360005b8381101561036b578181015183820152602001610353565b50505050905090810190601f1680156103985780820380516001836020036101000a031916815260200191505b50858103825286518152865160209182019188019080838360005b838110156103cb5781810151838201526020016103b3565b50505050905090810190601f1680156103f85780820380516001836020036101000a031916815260200191505b50995050505050505050505060405180910390f35b60005481565b6000805460010190556104246108aa565b506040805160a0810182528581526001600160a01b0385166020808301919091528183018590526060820184905282518084019093526005808452600160d81b644f4f4f4f4f0284830152608083019390935260018082527fcc69885fda6bcc1a4ace058b4a62bf5e179ea78fd58a1ccd71c22cc9b688792f805491820180825560009190915283518051949591948694939092027f66b32740ad8041bcc3b909c72d7e1afe60094ec55e3cde329b4b3a28501d826c01926104eb928492909101906108e2565b506020828101516001830180546001600160a01b0319166001600160a01b039092169190911790556040830151805161052a92600285019201906108e2565b50606082015180516105469160038401916020909101906108e2565b50608082015180516105629160048401916020909101906108e2565b505050507f514af2a82370fd69109ef67206736f3880c4f9c15d2f2acd798b782ae37fdc5a60005486866040518084815260200180602001836001600160a01b03166001600160a01b03168152602001828103825284818151815260200191508051906020019080838360005b838110156105e75781810151838201526020016105cf565b50505050905090810190601f1680156106145780820380516001836020036101000a031916815260200191505b5094505050505060405180910390a15050505050565b6001602052816000526040600020818154811061064357fe5b60009182526020918290206005919091020180546040805160026001841615610100026000190190931692909204601f8101859004850283018501909152808252919450925083918301828280156106dc5780601f106106b1576101008083540402835291602001916106dc565b820191906000526020600020905b8154815290600101906020018083116106bf57829003601f168201915b505050506001838101546002808601805460408051602061010097841615979097026000190190921693909304601f810186900486028201860190935282815295966001600160a01b039093169592945091928301828280156107805780601f1061075557610100808354040283529160200191610780565b820191906000526020600020905b81548152906001019060200180831161076357829003601f168201915b5050505060038301805460408051602060026001851615610100026000190190941693909304601f81018490048402820184019092528181529495949350908301828280156108105780601f106107e557610100808354040283529160200191610810565b820191906000526020600020905b8154815290600101906020018083116107f357829003601f168201915b5050505060048301805460408051602060026001851615610100026000190190941693909304601f81018490048402820184019092528181529495949350908301828280156108a05780601f10610875576101008083540402835291602001916108a0565b820191906000526020600020905b81548152906001019060200180831161088357829003601f168201915b5050505050905085565b6040518060a001604052806060815260200160006001600160a01b031681526020016060815260200160608152602001606081525090565b828054600181600116156101000203166002900490600052602060002090601f016020900481019282601f1061092357805160ff1916838001178555610950565b82800160010185558215610950579182015b82811115610950578251825591602001919060010190610935565b5061095c929150610960565b5090565b61097a91905b8082111561095c5760008155600101610966565b9056fea165627a7a72305820e914ef11d4c8be6b4c794ef318c553d75550b1ea95aff582c37abf8da31920570029",
  "source": "pragma solidity ^0.5.0;\r\n\r\ncontract UserAuth{\r\n    uint public userCount = 0;\r\n\r\n    mapping(uint => User[]) public users;\r\n\r\n    struct User{\r\n        string username;\r\n        address account;\r\n        string password;\r\n        string role;\r\n        string token;\r\n    }\r\n\r\n    function addUser(string memory username, address account,string memory password,string memory role) public {\r\n        userCount ++;\r\n        User memory user = User(username, account, password, role,\"OOOOO\");\r\n        users[1].push(user);\r\n        emit UserAdded(userCount, username, account);\r\n    }\r\n\r\n    constructor() public {\r\n        addUser(\"owner\",msg.sender,\"password\",\"owner\");\r\n    }\r\n\r\n    event UserAdded(uint id,string name,address account);\r\n\r\n}",
  "sourcePath": "C:/Users/Mkay_DaSextja/Documents/BScHons - UJ/Project/Code/block-auth-contract/contracts/UserAuth.sol",
  "compiler": {
    "name": "solc",
    "version": "0.5.8+commit.23d335f2.Emscripten.clang"
  },
  "schemaVersion": "3.0.11",
  "updatedAt": "2019-09-16T03:25:40.416Z",
  "devdoc": {
    "methods": {}
  },
  "userdoc": {
    "methods": {}
  }
}