{
  "contractName": "UserAuth",
  "abi": [
    {
      "constant": true,
      "inputs": [],
      "name": "userCount",
      "outputs": [
        {
          "name": "",
          "type": "uint256"
        }
      ],
      "payable": false,
      "stateMutability": "view",
      "type": "function"
    },
    {
      "constant": true,
      "inputs": [
        {
          "name": "",
          "type": "uint256"
        }
      ],
      "name": "users",
      "outputs": [
        {
          "name": "id",
          "type": "uint256"
        },
        {
          "name": "username",
          "type": "string"
        },
        {
          "name": "account",
          "type": "address"
        },
        {
          "name": "password",
          "type": "string"
        },
        {
          "name": "role",
          "type": "string"
        },
        {
          "name": "token",
          "type": "string"
        }
      ],
      "payable": false,
      "stateMutability": "view",
      "type": "function"
    },
    {
      "inputs": [],
      "payable": false,
      "stateMutability": "nonpayable",
      "type": "constructor"
    },
    {
      "anonymous": false,
      "inputs": [
        {
          "indexed": false,
          "name": "id",
          "type": "uint256"
        },
        {
          "indexed": false,
          "name": "name",
          "type": "string"
        },
        {
          "indexed": false,
          "name": "account",
          "type": "address"
        }
      ],
      "name": "UserAdded",
      "type": "event"
    },
    {
      "anonymous": false,
      "inputs": [
        {
          "indexed": false,
          "name": "id",
          "type": "uint256"
        },
        {
          "indexed": false,
          "name": "name",
          "type": "string"
        },
        {
          "indexed": false,
          "name": "role",
          "type": "string"
        }
      ],
      "name": "UserUpdated",
      "type": "event"
    },
    {
      "constant": false,
      "inputs": [
        {
          "name": "username",
          "type": "string"
        },
        {
          "name": "account",
          "type": "address"
        },
        {
          "name": "password",
          "type": "string"
        },
        {
          "name": "role",
          "type": "string"
        }
      ],
      "name": "addUser",
      "outputs": [],
      "payable": false,
      "stateMutability": "nonpayable",
      "type": "function"
    },
    {
      "constant": false,
      "inputs": [
        {
          "name": "_id",
          "type": "uint256"
        },
        {
          "name": "name",
          "type": "string"
        },
        {
          "name": "password",
          "type": "string"
        },
        {
          "name": "role",
          "type": "string"
        }
      ],
      "name": "updateUser",
      "outputs": [],
      "payable": false,
      "stateMutability": "nonpayable",
      "type": "function"
    }
  ],
  "bytecode": "0x6080604052600080553480156200001557600080fd5b50620000c96040518060400160405280600581526020017f6f776e6572000000000000000000000000000000000000000000000000000000815250336040518060400160405280600881526020017f70617373776f72640000000000000000000000000000000000000000000000008152506040518060400160405280600581526020017f6f776e6572000000000000000000000000000000000000000000000000000000815250620000cf60201b60201c565b62000358565b6000805460019081018083556040805160c08101825282815260208082018a81526001600160a01b038a1683850152606083018990526080830188905283518085018552600581527f4f4f4f4f4f0000000000000000000000000000000000000000000000000000008184015260a084015293865284815291909420845181559151805192936200016993908501929190910190620002b3565b5060408201516002820180546001600160a01b0319166001600160a01b0390921691909117905560608201518051620001ad916003840191602090910190620002b3565b5060808201518051620001cb916004840191602090910190620002b3565b5060a08201518051620001e9916005840191602090910190620002b3565b509050507f514af2a82370fd69109ef67206736f3880c4f9c15d2f2acd798b782ae37fdc5a60005485856040518084815260200180602001836001600160a01b03166001600160a01b03168152602001828103825284818151815260200191508051906020019080838360005b838110156200027057818101518382015260200162000256565b50505050905090810190601f1680156200029e5780820380516001836020036101000a031916815260200191505b5094505050505060405180910390a150505050565b828054600181600116156101000203166002900490600052602060002090601f016020900481019282601f10620002f657805160ff191683800117855562000326565b8280016001018555821562000326579182015b828111156200032657825182559160200191906001019062000309565b506200033492915062000338565b5090565b6200035591905b808211156200033457600081556001016200033f565b90565b610f6480620003686000396000f3fe608060405234801561001057600080fd5b506004361061004c5760003560e01c806307973ccf146100515780631e888b161461006b578063365b98b21461022c578063975a584a14610413575b600080fd5b6100596105c8565b60408051918252519081900360200190f35b61022a6004803603608081101561008157600080fd5b810190602081018135600160201b81111561009b57600080fd5b8201836020820111156100ad57600080fd5b803590602001918460018302840111600160201b831117156100ce57600080fd5b91908080601f01602080910402602001604051908101604052809392919081815260200183838082843760009201919091525092956001600160a01b03853516959094909350604081019250602001359050600160201b81111561013157600080fd5b82018360208201111561014357600080fd5b803590602001918460018302840111600160201b8311171561016457600080fd5b91908080601f0160208091040260200160405190810160405280939291908181526020018383808284376000920191909152509295949360208101935035915050600160201b8111156101b657600080fd5b8201836020820111156101c857600080fd5b803590602001918460018302840111600160201b831117156101e957600080fd5b91908080601f0160208091040260200160405190810160405280939291908181526020018383808284376000920191909152509295506105ce945050505050565b005b6102496004803603602081101561024257600080fd5b5035610792565b6040518087815260200180602001866001600160a01b03166001600160a01b0316815260200180602001806020018060200185810385528a818151815260200191508051906020019080838360005b838110156102b0578181015183820152602001610298565b50505050905090810190601f1680156102dd5780820380516001836020036101000a031916815260200191505b5085810384528851815288516020918201918a019080838360005b838110156103105781810151838201526020016102f8565b50505050905090810190601f16801561033d5780820380516001836020036101000a031916815260200191505b50858103835287518152875160209182019189019080838360005b83811015610370578181015183820152602001610358565b50505050905090810190601f16801561039d5780820380516001836020036101000a031916815260200191505b50858103825286518152865160209182019188019080838360005b838110156103d05781810151838201526020016103b8565b50505050905090810190601f1680156103fd5780820380516001836020036101000a031916815260200191505b509a505050505050505050505060405180910390f35b61022a6004803603608081101561042957600080fd5b81359190810190604081016020820135600160201b81111561044a57600080fd5b82018360208201111561045c57600080fd5b803590602001918460018302840111600160201b8311171561047d57600080fd5b91908080601f0160208091040260200160405190810160405280939291908181526020018383808284376000920191909152509295949360208101935035915050600160201b8111156104cf57600080fd5b8201836020820111156104e157600080fd5b803590602001918460018302840111600160201b8311171561050257600080fd5b91908080601f0160208091040260200160405190810160405280939291908181526020018383808284376000920191909152509295949360208101935035915050600160201b81111561055457600080fd5b82018360208201111561056657600080fd5b803590602001918460018302840111600160201b8311171561058757600080fd5b91908080601f0160208091040260200160405190810160405280939291908181526020018383808284376000920191909152509295506109fa945050505050565b60005481565b6000805460019081018083556040805160c08101825282815260208082018a81526001600160a01b038a168385015260608301899052608083018890528351808501855260058152600160d81b644f4f4f4f4f028184015260a0840152938652848152919094208451815591518051929361065193908501929190910190610e5e565b5060408201516002820180546001600160a01b0319166001600160a01b0390921691909117905560608201518051610693916003840191602090910190610e5e565b50608082015180516106af916004840191602090910190610e5e565b5060a082015180516106cb916005840191602090910190610e5e565b509050507f514af2a82370fd69109ef67206736f3880c4f9c15d2f2acd798b782ae37fdc5a60005485856040518084815260200180602001836001600160a01b03166001600160a01b03168152602001828103825284818151815260200191508051906020019080838360005b83811015610750578181015183820152602001610738565b50505050905090810190601f16801561077d5780820380516001836020036101000a031916815260200191505b5094505050505060405180910390a150505050565b600160208181526000928352604092839020805481840180548651600296821615610100026000190190911695909504601f8101859004850286018501909652858552909491939290919083018282801561082e5780601f106108035761010080835404028352916020019161082e565b820191906000526020600020905b81548152906001019060200180831161081157829003601f168201915b505050506002838101546003850180546040805160206101006001851615026000190190931695909504601f810183900483028601830190915280855295966001600160a01b03909316959294509091908301828280156108d05780601f106108a5576101008083540402835291602001916108d0565b820191906000526020600020905b8154815290600101906020018083116108b357829003601f168201915b5050505060048301805460408051602060026001851615610100026000190190941693909304601f81018490048402820184019092528181529495949350908301828280156109605780601f1061093557610100808354040283529160200191610960565b820191906000526020600020905b81548152906001019060200180831161094357829003601f168201915b5050505060058301805460408051602060026001851615610100026000190190941693909304601f81018490048402820184019092528181529495949350908301828280156109f05780601f106109c5576101008083540402835291602001916109f0565b820191906000526020600020905b8154815290600101906020018083116109d357829003601f168201915b5050505050905086565b610a02610edc565b600085815260016020818152604092839020835160c0810185528154815281840180548651600296821615610100026000190190911695909504601f81018590048502860185019096528585529094919385840193909290830182828015610aab5780601f10610a8057610100808354040283529160200191610aab565b820191906000526020600020905b815481529060010190602001808311610a8e57829003601f168201915b50505091835250506002828101546001600160a01b031660208084019190915260038401805460408051601f60001960018516156101000201909316959095049182018490048402850184018152818552909401939091830182828015610b535780601f10610b2857610100808354040283529160200191610b53565b820191906000526020600020905b815481529060010190602001808311610b3657829003601f168201915b505050918352505060048201805460408051602060026001851615610100026000190190941693909304601f8101849004840282018401909252818152938201939291830182828015610be75780601f10610bbc57610100808354040283529160200191610be7565b820191906000526020600020905b815481529060010190602001808311610bca57829003601f168201915b505050918352505060058201805460408051602060026001851615610100026000190190941693909304601f8101849004840282018401909252818152938201939291830182828015610c7b5780601f10610c5057610100808354040283529160200191610c7b565b820191906000526020600020905b815481529060010190602001808311610c5e57829003601f168201915b5050509190925250505060208082018681526060830186905260808301859052600088815260018084526040909120845181559151805194955085949293610cc99392850192910190610e5e565b5060408201516002820180546001600160a01b0319166001600160a01b0390921691909117905560608201518051610d0b916003840191602090910190610e5e565b5060808201518051610d27916004840191602090910190610e5e565b5060a08201518051610d43916005840191602090910190610e5e565b509050507fe11db8bd30f944eba58c4078463d212a766f9d41d47c2d90d55741269a8ca93a8582602001518360800151604051808481526020018060200180602001838103835285818151815260200191508051906020019080838360005b83811015610dba578181015183820152602001610da2565b50505050905090810190601f168015610de75780820380516001836020036101000a031916815260200191505b50838103825284518152845160209182019186019080838360005b83811015610e1a578181015183820152602001610e02565b50505050905090810190601f168015610e475780820380516001836020036101000a031916815260200191505b509550505050505060405180910390a15050505050565b828054600181600116156101000203166002900490600052602060002090601f016020900481019282601f10610e9f57805160ff1916838001178555610ecc565b82800160010185558215610ecc579182015b82811115610ecc578251825591602001919060010190610eb1565b50610ed8929150610f1b565b5090565b6040518060c00160405280600081526020016060815260200160006001600160a01b031681526020016060815260200160608152602001606081525090565b610f3591905b80821115610ed85760008155600101610f21565b9056fea165627a7a7230582006c5d5459f405ed15cf752e478d6e3518a045090a6e92b765c7b1a45d6bdf7d10029",
  "source": "pragma solidity ^0.5.0;\r\n\r\ncontract UserAuth{\r\n    uint public userCount = 0;\r\n\r\n    mapping(uint => User) public users;\r\n\r\n    struct User{\r\n        uint id;\r\n        string username;\r\n        address account;\r\n        string password;\r\n        string role;\r\n        string token;\r\n    }\r\n\r\n    function addUser(string memory username, address account,string memory password,string memory role) public {\r\n        userCount ++;\r\n        users[userCount] = User(userCount,username, account, password, role,\"OOOOO\");\r\n        emit UserAdded(userCount, username, account);\r\n    }\r\n\r\n    function updateUser(uint _id,string memory name,string memory password, string memory role) public {\r\n        User memory _user = users[_id];\r\n        _user.username = name;\r\n        _user.password = password;\r\n        _user.role = role;\r\n        users[_id] = _user;\r\n        emit UserUpdated(_id, _user.username, _user.role);\r\n    }\r\n\r\n    constructor() public {\r\n        addUser(\"owner\",msg.sender,\"password\",\"owner\");\r\n    }\r\n\r\n    event UserAdded(uint id,string name,address account);\r\n    event UserUpdated(uint id, string name, string role);\r\n\r\n}",
  "sourcePath": "C:/Users/Mkay_DaSextja/Documents/BScHons - UJ/Project/Code/block-auth-contract/contracts/UserAuth.sol",
  "compiler": {
    "name": "solc",
    "version": "0.5.8+commit.23d335f2.Emscripten.clang"
  },
  "schemaVersion": "3.0.11",
  "updatedAt": "2019-09-19T13:14:34.850Z",
  "devdoc": {
    "methods": {}
  },
  "userdoc": {
    "methods": {}
  }
}